:0400000007EF00F016
:0A0008006E820BED08F030EF0EF0F1
:10100000003738392F3435362A3132322D23303DEE
:051010002B2569000022
:101016000600FACF51F0FBCF52F0D9CF53F0DACF1A
:1010260054F0F3CF55F0F4CF56F0F2A81DEF08F0C8
:101036001FEF08F028EF08F0F2A224EF08F026EFE1
:1010460008F028EF08F0DDEC0FF0F0A62DEF08F021
:101056002FEF08F038EF08F0F0A034EF08F036EF85
:1010660008F038EF08F0DBEC0FF0F0A83DEF08F0E1
:101076003FEF08F048EF08F0F0A244EF08F046EF23
:1010860008F048EF08F0D9EC0FF0F2A64DEF08F0A3
:101096004FEF08F06AEF08F0F2A054EF08F056EFB1
:1010A60008F06AEF08F081A85BEF08F05DEF08F042
:1010B6006AEF08F06B04D8A463EF08F065EF08F058
:1010C6006AEF08F0000E6B6E000E9CEC0FF0F2A6B5
:1010D6006FEF08F071EF08F08CEF08F0F2A076EFF2
:1010E60008F078EF08F08CEF08F081B87DEF08F093
:1010F6007FEF08F08CEF08F06B50D8A485EF08F06E
:1011060087EF08F08CEF08F0010E6B6E010E9CEC79
:101116000FF0F2A691EF08F093EF08F0AEEF08F0AB
:10112600F2A098EF08F09AEF08F0AEEF08F081AA67
:101136009FEF08F0A1EF08F0AEEF08F06A04D8A41C
:10114600A7EF08F0A9EF08F0AEEF08F0000E6A6E00
:10115600000E8FEC0FF0F2A6B3EF08F0B5EF08F033
:10116600D0EF08F0F2A0BAEF08F0BCEF08F0D0EF2D
:1011760008F081BAC1EF08F0C3EF08F0D0EF08F02D
:101186006A50D8A4C9EF08F0CBEF08F0D0EF08F00A
:10119600010E6A6E010E8FEC0FF0F2A6D5EF08F085
:1011A600D7EF08F0F2EF08F0F2A0DCEF08F0DEEF80
:1011B60008F0F2EF08F081ACE3EF08F0E5EF08F095
:1011C600F2EF08F06904D8A4EBEF08F0EDEF08F0B1
:1011D600F2EF08F0000E696E000E82EC0FF0F2A638
:1011E600F7EF08F0F9EF08F014EF09F0F2A0FEEFC0
:1011F60008F000EF09F014EF09F081BC05EF09F0E3
:1012060007EF09F014EF09F06950D8A40DEF09F0C3
:101216000FEF09F014EF09F0010E696E010E82EC72
:101226000FF0F2A619EF09F01BEF09F036EF09F0FF
:10123600F2A020EF09F022EF09F036EF09F081AEB7
:1012460027EF09F029EF09F036EF09F06804D8A472
:101256002FEF09F031EF09F036EF09F0000E686E56
:10126600000E75EC0FF0F2A63BEF09F03DEF09F02A
:1012760058EF09F0F2A042EF09F044EF09F058EFF9
:1012860009F081BE49EF09F04BEF09F058EF09F07C
:101296006850D8A451EF09F053EF09F058EF09F060
:1012A600010E686E010E75EC0FF09DAC5DEF09F056
:1012B6005FEF09F068EF09F09EAC64EF09F066EFA6
:1012C60009F068EF09F0E5EC0FF0F2AA6DEF09F00E
:1012D6006FEF09F078EF09F0F2A474EF09F076EFFA
:1012E60009F078EF09F007EC0FF09DA07DEF09F00B
:1012F6007FEF09F088EF09F09EA084EF09F086EFF2
:1013060009F088EF09F0C2EC0FF09DA28DEF09F00D
:101316008FEF09F098EF09F09EA294EF09F096EF8F
:1013260009F098EF09F0CEEC0FF0A0A29DEF09F0BE
:101336009FEF09F0A8EF09F0A1A2A4EF09F0A6EF2C
:1013460009F0A8EF09F0BCEC0FF09DA4ADEF09F091
:10135600AFEF09F0B8EF09F09EA4B4EF09F0B6EFCD
:1013660009F0B8EF09F0E3EC0FF0A0A0BDEF09F02B
:10137600BFEF09F0C8EF09F0A1A0C4EF09F0C6EF6E
:1013860009F0C8EF09F0E1EC0FF09DA8CDEF09F0E8
:10139600CFEF09F0D8EF09F09EA8D4EF09F0D6EF09
:1013A60009F0D8EF09F0DFEC0FF09DAADDEF09F0A8
:1013B600DFEF09F0E8EF09F09EAAE4EF09F0E6EFA7
:1013C60009F0E8EF09F0E8EC0FF09DA6EDEF09F063
:1013D600EFEF09F0F8EF09F09EA6F4EF09F0F6EF4B
:1013E60009F0F8EF09F0E7EC0FF09DA6FDEF09F024
:1013F600FFEF09F008EF0AF09EA604EF0AF006EFE9
:101406000AF008EF0AF0D5EC0FF0A0A60DEF0AF0EF
:101416000FEF0AF018EF0AF0A1A614EF0AF016EF84
:101426000AF018EF0AF0D7EC0FF056C0F4FF55C0DB
:10143600F3FF54C0DAFF53C0D9FF52C0FBFF51C0BF
:10144600FAFF6E921100010E0001AB6F5750D8B42F
:101456002FEF0AF031EF0AF041EF0AF05750D96E3C
:10146600DA6ADF30E832E832070B596E070E596444
:101476003FEF0AF041EF0AF098EF0AF0000EAB6F6B
:10148600ADEF0AF05750D96EDA6ADF30E832E8324B
:10149600070B596E010E5A6E592A54EF0AF0D8906E
:1014A6005A36592E52EF0AF05A50FF0A5B6E5750C1
:1014B600D96EDA6ADF50070B020DF3505E0FD96E54
:1014C600DA6ADECF5CF0DDCF5DF05CC0D9FF5DC0CF
:1014D600DAFF5B50DF16ADEF0AF05750D96EDA6AC5
:1014E600DF30E832E832070B596E010E5A6E592A80
:1014F6007FEF0AF0D8905A36592E7DEF0AF05750F2
:10150600D96EDA6ADF50070B020DF3505E0FD96E03
:10151600DA6ADECF5BF0DDCF5CF05BC0D9FF5CC082
:10152600DAFF5A50DF12ADEF0AF05850596E5A6A78
:101536005A50000AD8B4A2EF0AF041EF0AF0595007
:10154600000AD8B445EF0AF0010AD8B470EF0AF0E1
:1015560041EF0AF00001AB511200010E5D6E5750CB
:10156600D8B4B8EF0AF0BAEF0AF0CAEF0AF057504B
:10157600D96EDA6ADF30E832E832070B586E070EAA
:101586005864C8EF0AF0CAEF0AF021EF0BF0000E1C
:101596005D6E37EF0BF05750D96EDA6ADF30E832FE
:1015A600E832070B586E010E596E582ADDEF0AF025
:1015B600D8905936582EDBEF0AF05950FF0A5A6E6A
:1015C6005750D96EDA6ADF50070B020DF3508A0FB7
:1015D600D96EDA6ADECF5BF0DDCF5CF05BC0D9FF97
:1015E6005CC0DAFF5A50DF1637EF0BF05750D96E52
:1015F600DA6ADF30E832E832070B586E010E596EB0
:10160600582A08EF0BF0D8905936582E06EF0BF0F3
:101616005750D96EDA6ADF50070B020DF3508A0F66
:10162600D96EDA6ADECF5AF0DDCF5BF05AC0D9FF49
:101636005BC0DAFF5950DF1237EF0BF05750D96E07
:10164600DA6ADFBC29EF0BF02CEF0BF0010E2DEF61
:101656000BF0000E000AD8B4CEEF0AF0010AD8B497
:10166600F9EF0AF0CAEF0AF05D501200010E4D6E56
:101676004650D8B441EF0BF043EF0BF053EF0BF0AD
:101686004650D96EDA6ADF30E832E832070B486E28
:10169600070E486451EF0BF053EF0BF0AAEF0BF077
:1016A600000E4D6EBFEF0BF04650D96EDA6ADF3092
:1016B600E832E832070B486E010E496E482A66EF9B
:1016C6000BF0D8904936482E64EF0BF04950FF0ACC
:1016D6004A6E4650D96EDA6ADF50070B020DF35098
:1016E6005E0FD96EDA6ADECF4BF0DDCF4CF04BC021
:1016F600D9FF4CC0DAFF4A50DF16BFEF0BF0465059
:10170600D96EDA6ADF30E832E832070B486E010E2E
:10171600496E482A91EF0BF0D8904936482E8FEF44
:101726000BF04650D96EDA6ADF50070B020DF35004
:101736005E0FD96EDA6ADECF4AF0DDCF4BF04AC0D3
:10174600D9FF4BC0DAFF4950DF12BFEF0BF047500D
:10175600486E496A4950000AD8B4B4EF0BF053EF0B
:101766000BF04850000AD8B457EF0BF0010AD8B472
:1017760082EF0BF053EF0BF04D501200000E0001FC
:10178600B66FB451D8A4CAEF0BF0CCEF0BF0D0EF84
:101796000BF0000EB76F44EF0CF0B4C0ACF062EC87
:1017A6000EF00001B76FB429AC6F62EC0EF00001C9
:1017B600B76F000EB66FB451B625020FAC6F62EC70
:1017C6000EF00001B62B070EB665ECEF0BF0EEEF50
:1017D6000BF0DEEF0BF0340E0001B56FF10EE82EC4
:1017E600FED7B52FFCD700D0B4C0AEF0380E00013E
:1017F600AF6F12EC0DF00D0E0001B56FFB0EE82E6B
:10180600FED7B52FFCD700D0B4C0AEF0380E00011D
:10181600AF6F12EC0DF0640EE82EFED7B4C0AEF03A
:10182600380E0001AF6F12EC0DF0B4C0AEF0010E31
:101836000001AF6F12EC0DF0B4C0AEF0020E000165
:10184600AF6F12EC0DF0B4C0AEF0060E0001AF6F34
:1018560012EC0DF0B4C0AEF00C0E0001AF6F12EC3E
:101866000DF0B4C0AEF0380E0001AF6F12EC0DF003
:10187600B4C0AEF0800E0001AF6F12EC0DF00001A7
:10188600B76FB7511200000E0001B46FB251D8A461
:101896004FEF0CF051EF0CF055EF0CF0000EB56F5A
:1018A600C9EF0CF0B2C0ACF062EC0EF00001B56FFF
:1018B600B229AC6F62EC0EF00001B56F000EB46F8A
:1018C600B251B425020FAC6F62EC0EF00001B42BDE
:1018D600030EB46571EF0CF073EF0CF063EF0CF0D0
:1018E600340E0001B36FF10EE82EFED7B32FFCD7EE
:1018F60000D0B2C0AFF0380E0001B06FFCEC0DF0B6
:101906000D0E0001B36FFB0EE82EFED7B32FFCD7EA
:1019160000D0B2C0AFF0380E0001B06FFCEC0DF095
:10192600640EE82EFED7B2C0AFF0380E0001B06FDD
:10193600FCEC0DF0B2C0AFF0010E0001B06FFCEC94
:101946000DF0B2C0AFF0020E0001B06FFCEC0DF06E
:10195600B2C0AFF0060E0001B06FFCEC0DF0B2C0E5
:10196600AFF00C0E0001B06FFCEC0DF0B2C0AFF0A2
:10197600280E0001B06FFCEC0DF0B2C0AFF0800E87
:101986000001B06FFCEC0DF00001B56FB55112000F
:10199600010E5C6E5950D8A4D3EF0CF0D5EF0CF0C5
:1019A600D9EF0CF0000E5C6E10EF0DF0D59E59C00D
:1019B60057F0C1EC0EF059C057F052EC0DF059C07B
:1019C60057F0EAEC0EF05950D96EDA6A040ED926B1
:1019D600DECF5AF0DDCF5BF05BC05AF05B6A5A503F
:1019E600D76E5950D96EDA6A040ED926DF50D66EF4
:1019F6005950D96EDA6A040ED926DECF19F0DDCF3A
:101A06001AF0F28AF2945950D96EDA6ADECF1BF0D8
:101A1600DDCF1CF0F28EF28CD58E5C501200000EDB
:101A26000001B36FAE51D8A41BEF0DF01DEF0DF002
:101A360021EF0DF0000EB26F50EF0DF0AEC057F073
:101A4600000E586E26EC0AF0000E0001B36FAE5180
:101A5600B325020F576EB3C0B0F0AFC0B1F0B02BD4
:101A660037EF0DF0D890B133B02F35EF0DF0000100
:101A7600B151010B586E26EC0AF00001B32B070E8C
:101A8600B36548EF0DF04AEF0DF02AEF0DF0AEC04A
:101A9600ACF022EC0FF00001B26FB25112005750B9
:101AA600D96EDA6A060ED926DFA45CEF0DF05EEF7A
:101AB6000DF061EF0DF0D59A8CEF0DF05750D96E01
:101AC600DA6A060ED926DFB46BEF0DF06DEF0DF076
:101AD6008CEF0DF0D58A5750D96EDA6A060ED926E4
:101AE600DFA278EF0DF07AEF0DF07DEF0DF0D598CF
:101AF6008CEF0DF05750D96EDA6A060ED926DFB292
:101B060087EF0DF089EF0DF08CEF0DF0D5888CEF97
:101B16000DF012000001AF51D8A494EF0DF096EF2E
:101B26000DF09AEF0DF0000EB16FC5EF0DF045C048
:101B3600B2F0AF51D96EDA6ADF500F0BB06FB25107
:101B4600B019F80BB019B26FAF51D96EDA6ADF3837
:101B5600070BB06FB047B047B047B251B019C70BCB
:101B6600B019B26FB29DAF51D96EDA6ADFAE02D04C
:101B7600B28F02D00001B29FB20EAC6F62EC0EF0D3
:101B86000001B16FB15112004E50D8A4CDEF0DF047
:101B9600CFEF0DF0D1EF0DF0FBEF0DF044C050F09C
:101BA6004E50D96EDA6ADF500F0B4F6E50504F18F9
:101BB600F80B4F18506E4E50D96EDA6ADF38070BA5
:101BC6004F6E4F464F464F4650504F18C70B4F1853
:101BD600506E509C4E50D96EDA6ADFAE02D0508EEF
:101BE60001D0509E500E466E010E476E39EC0BF03A
:101BF60012000001AF51D8A403EF0EF005EF0EF06E
:101C060009EF0EF0000EB16F2EEF0EF0AFC057F0D9
:101C1600000E586E26EC0AF00001B16FAFC0ACF0B2
:101C2600B0390F0BAD6F94EC0EF00001B16FAFC081
:101C3600ACF038EC0FF00001B16FAFC0ACF0B0C043
:101C4600ADF094EC0EF00001B16FAFC0ACF038EC23
:101C56000FF00001B16FB15112009C0EF66E1E0E10
:101C6600F76E000EF86E00EE80F010EE2BF0090015
:101C7600F5CFEEFFE550E150FAE1680EF66E1F0E65
:101C8600F76E000EF86E00EE5EF010EE0FF0090033
:101C9600F5CFEEFFE550E150FAE10001BD6BBC6BFC
:101CA600BB6BBA6BB96BB86B00EE01F0450EEE6A12
:101CB600E806FDE16E906E92000164EF0FF0000100
:101CC600AC51D8B469EF0EF06BEF0EF07BEF0EF06F
:101CD600AC51D96EDA6ADF30E832E832070BAD6F05
:101CE600070EAD6579EF0EF07BEF0EF07FEF0EF08D
:101CF600000EAE6F92EF0EF0ACC057F0B0EC0AF0EB
:101D06000001AE6FACC057F0AC51D96EDA6A000E66
:101D1600DFBE010E586E26EC0AF00001AE6FAE5122
:101D260012000001AC51020F576EAD51010B586EF7
:101D360026EC0AF00001AC51030F576ED890AD3176
:101D4600010B586E26EC0AF00001AC51040F576ED9
:101D5600AD41E8423F0B010B586E26EC0AF000013C
:101D6600AC51050F576EAD39E8461F0B010B586E87
:101D760026EC0AF00001AE6FAE5112005750D96E34
:101D8600DA6A060ED926DFA0CBEF0EF0CDEF0EF005
:101D9600DCEF0EF0D5965750D96EDA6A030ED926C7
:101DA600DF50586ED5505818F80B5818D56EE9EF15
:101DB6000EF05750D96EDA6A060ED926DFB0E6EF76
:101DC6000EF0E8EF0EF0E9EF0EF0D5861200575050
:101DD600D96EDA6A060ED926DFA6F4EF0EF0F6EF14
:101DE6000EF0F9EF0EF0D58C06EF0FF05750D96EC6
:101DF600DA6A060ED926DFB603EF0FF005EF0FF00D
:101E060006EF0FF0D59C1200F2941A50D76E19C047
:101E1600D6FF1B501C10D8B413EF0FF015EF0FF0C0
:101E260021EF0FF002D821EF0FF00500FA6E1B50DC
:101E3600FD6E1C50FE6EFF6AFA5012001200000181
:101E4600AC29576E010E586E26EC0AF0030EE82EEA
:101E5600FED700000001AC29576E000E586E26EC26
:101E66000AF00001AD6FAD5112000001AC29576EAA
:101E7600010E586E26EC0AF0030EE82EFED700007F
:101E86000001AC29576E000E586E26EC0AF00001D0
:101E9600AD6FAD511200800F810F820F830F840F3B
:101EA600920F930F940F950F960F323A030B131B55
:101EB600232B333B901F0007E54809020A121A221A
:011EC6002AF1
:101EC800D2EC0FF09E0E596ECBEC0CF06D6E6C0ED2
:101ED8000001AF6F8DEC0DF06D6E71EF0FF007EF35
:101EE80000F0466EF2904650D8A47DEF0FF07FEFD9
:101EF8000FF081EF0FF081EF0FF01200466EF290B5
:101F08004650D8A48AEF0FF08CEF0FF08EEF0FF049
:101F18008EEF0FF01200466EF2904650D8A497EF5D
:101F28000FF099EF0FF09BEF0FF09BEF0FF01200FF
:101F3800466EF2904650D8A4A4EF0FF0A6EF0FF02B
:101F4800A8EF0FF0A8EF0FF01200A50E0001B26F76
:101F580046EC0CF0940E0001B46FC1EC0BF01200CB
:0F1F6800890F8A0F8B0F8C0F8D0F010101010361
:101F7800A1921050B36E0FC0B2FF12009E9016507F
:101F8800CF6E15C0CEFF12003D2A6C0E4E6EC7EC08
:101F98000DF012009E923EC0CCFF1200A9EC0FF08B
:101FA80012009E961200A1961200F0921200F09074
:101FB8001200F29212009D981200A19012009E94B5
:0A1FC80012009E9C1200120012008D
:020000040030CA
:0E000000FF02091EFF8181FF0FC00FE00F40BD
:00000001FF
