:0400000007EF00F016
:0A0008007D82A0ED0EF072EF14F0FF
:10100000003738392F3435362A3132322D23303DEE
:051010002B2569000022
:10101600000E3C6E000E3D6E000E3E6E000E3F6EE4
:1010260029EF0AF0AC98AC94B8963950D96EDA6AC2
:10103600DECF02F0DECF03F0DECF04F0DECF05F028
:10104600000E53EC10F002C014F003C015F004C0FB
:1010560016F005C017F0000E106E240E116EF40E79
:10106600126E4A0E136ED3EC0CF010C040F011C095
:1010760041F012C042F013C043F0000E146E000E91
:10108600156E800E166E420E176E40C010F041C0EF
:1010960011F042C012F043C013F0D3EC0CF010C0B4
:1010A60029F011C02AF012C02BF013C02CF0000E4C
:1010B6002D6E000E2E6E800E2F6EBF0E306E73ECF0
:1010C6000AF029C03CF02AC03DF02BC03EF02CC0EF
:1010D6003FF053EF0AF0AC98AC84B8963950D96E0D
:1010E600DA6ADECF02F0DECF03F0DECF04F0DECF29
:1010F60005F0000E53EC10F002C014F003C015F01A
:1011060004C016F005C017F0000E106E240E116E06
:10111600F40E126E4A0E136ED3EC0CF010C040F0B3
:1011260011C041F012C042F013C043F0000E146E1D
:10113600000E156E800E166E410E176E40C010F032
:1011460041C011F042C012F043C013F0D3EC0CF0D2
:1011560010C029F011C02AF012C02BF013C02CF0D9
:10116600000E2D6E000E2E6E800E2F6EBF0E306E90
:1011760073EC0AF029C03CF02AC03DF02BC03EF0CB
:101186002CC03FF053EF0AF0AC98AC94B8863950B7
:10119600D96EDA6ADECF02F0DECF03F0DECF04F0DE
:1011A600DECF05F0000E53EC10F002C014F003C0C1
:1011B60015F004C016F005C017F0000E106E240ED0
:1011C600116EF40E126E4A0E136ED3EC0CF010C0B4
:1011D60040F011C041F012C042F013C043F0000EBF
:1011E600146E000E156E800E166E410E176E40C000
:1011F60010F041C011F042C012F043C013F0D3EC1E
:101206000CF010C029F011C02AF012C02BF013C048
:101216002CF0000E2D6E000E2E6E800E2F6EBF0E61
:10122600306E73EC0AF029C03CF02AC03DF02BC0AA
:101236003EF02CC03FF053EF0AF0AC98AC84B88671
:101246003950D96EDA6ADECF02F0DECF03F0DECF98
:1012560004F0DECF05F0000E53EC10F002C014F0DF
:1012660003C015F004C016F005C017F0000E106E8E
:10127600240E116EF40E126E4A0E136ED3EC0CF0A1
:1012860010C040F011C041F012C042F013C043F04C
:10129600000E146E000E156E800E166E400E176E42
:1012A60040C010F041C011F042C012F043C013F02C
:1012B600D3EC0CF010C029F011C02AF012C02BF0AC
:1012C60013C02CF0000E2D6E000E2E6E800E2F6EAB
:1012D600BF0E306E73EC0AF029C03CF02AC03DF018
:1012E6002BC03EF02CC03FF053EF0AF0AC88B89606
:1012F6003950D96EDA6ADECF02F0DECF03F0DECFE8
:1013060004F0DECF05F0000E53EC10F002C014F02E
:1013160003C015F004C016F005C017F0000E106EDD
:10132600240E116EF40E126E4A0E136ED3EC0CF0F0
:1013360010C040F011C041F012C042F013C043F09B
:10134600000E146E000E156E800E166E400E176E91
:1013560040C010F041C011F042C012F043C013F07B
:10136600D3EC0CF010C029F011C02AF012C02BF0FB
:1013760013C02CF0000E2D6E000E2E6E800E2F6EFA
:10138600BF0E306E73EC0AF029C03CF02AC03DF067
:101396002BC03EF02CC03FF053EF0AF0AC88B88665
:1013A6003950D96EDA6ADECF02F0DECF03F0DECF37
:1013B60004F0DECF05F0000E53EC10F002C014F07E
:1013C60003C015F004C016F005C017F0000E106E2D
:1013D600240E116EF40E126E4A0E136ED3EC0CF040
:1013E60010C040F011C041F012C042F013C043F0EB
:1013F600000E146E000E156E800E166E400E176EE1
:1014060040C010F041C011F042C012F043C013F0CA
:10141600D3EC0CF010C029F011C02AF012C02BF04A
:1014260013C02CF0000E2D6E000E2E6E800E2F6E49
:10143600BF0E306E73EC0AF029C03CF02AC03DF0B6
:101446002BC03EF02CC03FF053EF0AF03950D96E56
:10145600DA6A040ED926DF503A6E3B6A3B50000A20
:10146600D8B438EF0AF053EF0AF03A50000AD8B46D
:1014760015EF08F0010AD8B46EEF08F0030AD8B4E5
:10148600C7EF08F0010AD8B420EF09F0070AD8B46C
:1014960079EF09F0010AD8B4D1EF09F053EF0AF059
:1014A6003CC002F03DC003F03EC004F03FC005F072
:1014B6003EEC12F00250AF6E3CC002F03DC003F0AD
:1014C6003EC004F03FC005F03EEC12F003C002F04F
:1014D60004C003F005C004F0056A0250B06E1200A5
:1014E6002C50800B356E2C502C24376E2BAE7EEF95
:1014F6000AF080EF0AF081EF0AF037803750D8B44F
:1015060087EF0AF089EF0AF09EEF0AF03728D8A491
:101516008FEF0AF091EF0AF099EF0AF0000E296EAC
:10152600000E2A6E000E2B6E000E2C6E2B8E000EF9
:101536002C6EA6EF0AF0000E296E000E2A6E000E23
:101546002B6E000E2C6E3050800B366E35503618D2
:10155600D8B4B0EF0AF0B2EF0AF0B3EF0AF0358C68
:1015660030503024366E2FAEBBEF0AF0BDEF0AF0D6
:10157600BEEF0AF036803650D8B4C4EF0AF0C6EF94
:101586000AF0DBEF0AF03628D8A4CCEF0AF0CEEF4B
:101596000AF0D6EF0AF0000E2D6E000E2E6E000E2B
:1015A6002F6E000E306E2F8E000E306EE3EF0AF0B7
:1015B600000E2D6E000E2E6E000E2F6E000E306E7B
:1015C6003750365CD8B0EAEF0AF0ECEF0AF013EFCA
:1015D6000BF035ACF1EF0AF0F3EF0AF0F5EF0AF095
:1015E600800E351A37C038F036C037F038C036F0BE
:1015F60029C038F02DC029F038C02DF02AC038F0A7
:101606002EC02AF038C02EF02BC038F02FC02BF099
:1016160038C02FF02CC038F030C02CF038C030F075
:10162600000E386E375036C031F0326A315E000E29
:10163600325A32BE28EF0BF0325009E11A0E315CF5
:10164600D8A028EF0BF02AEF0BF061EF0BF0295032
:101656002A102B102C10D8A433EF0BF036EF0BF01A
:10166600010E37EF0BF0000E386E000E296E000EDD
:101676002A6E000E2B6E000E2C6E36C037F06AEF07
:101686000BF038A049EF0BF04BEF0BF051EF0BF0DE
:10169600D89038300109386E53EF0BF0D8903832B5
:1016A60029A058EF0BF05AEF0BF05BEF0BF0388EDA
:1016B6002C342C322B322A322932372A3650375CD8
:1016C600D8A068EF0BF06AEF0BF044EF0BF035BCD7
:1016D6006FEF0BF071EF0BF0B1EF0BF03750D8A4B2
:1016E60077EF0BF079EF0BF083EF0BF0000E296E1E
:1016F600000E2A6E000E2B6E000E2C6ED2EF0CF032
:101706002D5029262E502A222F502B2230502C22A3
:101716002CA090EF0BF092EF0BF03EEF0CF038A000
:1017260097EF0BF099EF0BF09FEF0BF0D890383056
:101736000109386EA1EF0BF0D890383229A0A6EF38
:101746000BF0A8EF0BF0A9EF0BF0388E2C342C32EF
:101756002B322A322932372A3EEF0CF02D50295CE3
:101766002E502A582F502B582C50800A316E30504C
:10177600800A3158D8B0C2EF0BF0C4EF0BF0EFEF90
:101786000BF029502D5C316E2A502E58326E2B509C
:101796002F58336E2C503058346EFF0E3124296E7C
:1017A600FF0E32202A6EFF0E33202B6EFF0E3420E2
:1017B6002C6E800E351A386C3850D8A4E5EF0BF035
:1017C600E7EF0BF0F7EF0BF0010E2926000E2A22A9
:1017D6002B222C22F7EF0BF02D50295E2E502A5A81
:1017E6002F502B5A30502C5A29502A102B102C10BF
:1017F600D8A400EF0CF002EF0CF037EF0CF03850E5
:10180600D8A408EF0CF00AEF0CF037EF0CF0000E3E
:10181600296E000E2A6E000E2B6E000E2C6ED2EF75
:101826000CF0D89029362A362B362C3638AE1EEFD9
:101836000CF020EF0CF021EF0CF0298038A026EFF9
:101846000CF028EF0CF02CEF0CF0D88038362EEF89
:101856000CF0D89038363750D8B434EF0CF036EF59
:101866000CF037EF0CF037062BAE3CEF0CF03EEFEA
:101876000CF014EF0CF0000E366E38AE45EF0CF09F
:1018860047EF0CF05FEF0CF038C031F07F0E3116E9
:10189600D8B450EF0CF052EF0CF056EF0CF0010EEE
:1018A600366E5FEF0CF029A05BEF0CF05DEF0CF0ED
:1018B6005FEF0CF052EF0CF03650D8B465EF0CF039
:1018C60067EF0CF092EF0CF0010E2926000E2A228B
:1018D6002B222C222CA072EF0CF074EF0CF092EF5E
:1018E6000CF029C031F02AC032F02BC033F02CC0E6
:1018F60034F03434343233323232313231C029F0BA
:1019060032C02AF033C02BF034C02CF03728D8B4BC
:101916008FEF0CF091EF0CF092EF0CF0372A37288E
:10192600D8B498EF0CF09AEF0CF0A2EF0CF0375009
:10193600D8A4A0EF0CF0A2EF0CF0B4EF0CF0000E60
:10194600296E000E2A6E000E2B6E000E2C6E37507E
:10195600D8A4B0EF0CF0B2EF0CF0B4EF0CF0000E20
:10196600356E37A0B9EF0CF0BBEF0CF0BEEF0CF004
:101976002B8EBFEF0CF02B9ED89037302C6E35AEE9
:10198600C7EF0CF0C9EF0CF0CAEF0CF02C8E29C093
:1019960029F02AC02AF02BC02BF02CC02CF0120004
:1019A6001350800B206E13501324276E12AEDEEFF9
:1019B6000CF0E0EF0CF0E1EF0CF027802750D8B4E4
:1019C600E7EF0CF0E9EF0CF0FEEF0CF02728D8A4B7
:1019D600EFEF0CF0F1EF0CF0F9EF0CF0000E106EDB
:1019E600000E116E000E126E000E136E128E000E99
:1019F600136E06EF0DF0000E106E000E116E000E47
:101A0600126E000E136E1750800B201A17501724F3
:101A1600286E16AE11EF0DF013EF0DF014EF0DF06A
:101A260028802850D8B41AEF0DF01CEF0DF031EFD6
:101A36000DF02828D8A422EF0DF024EF0DF02CEF9E
:101A46000DF0000E146E000E156E000E166E000ED2
:101A5600176E168E000E176E39EF0DF0000E146E0F
:101A6600000E156E000E166E000E176E1450151031
:101A760016101710D8A442EF0DF044EF0DF05CEFEE
:101A86000DF0000E106E000E116E000E126E000E9E
:101A9600136E800E12127F0E13122050131210C0F6
:101AA60010F011C011F012C012F013C013F09FEF26
:101AB6000EF02750D8A462EF0DF064EF0DF06EEF34
:101AC6000DF0000E106E000E116E000E126E000E5E
:101AD600136E9FEF0EF0285027C018F0196A185E93
:101AE600000E195A7F0E1824216E000E1920226E40
:101AF60010C01CF011C01DF012C01EF013C01FF064
:101B0600000E106E000E116E000E126E000E136E99
:101B1600000E236E000E246E000E256E000E266E3D
:101B2600000E286ECFEF0DF02850D8B49DEF0DF0C3
:101B36009FEF0DF0B6EF0DF0D8901C361D361E3611
:101B46001F36D890103611361236133626AEAEEF43
:101B56000DF0B0EF0DF0B1EF0DF01080D8902336F8
:101B660024362536263614501C5C15501D58165042
:101B76001E5817501F58D8A0C3EF0DF0C5EF0DF033
:101B8600CEEF0DF0268C14501C5E15501D5A1650C3
:101B96001E5A17501F5A282A190E2864D5EF0DF021
:101BA600D7EF0DF097EF0DF01C501D101E101F10F3
:101BB600D8B4E0EF0DF0E2EF0DF0FAEF0DF0238070
:101BC600FAEF0DF0D890103611361236133626AECF
:101BD600EFEF0DF0F1EF0DF0F2EF0DF01080D89071
:101BE60023362436253626362106D8A0220612AEFE
:101BF600FFEF0DF001EF0EF0E5EF0DF0000E286E91
:101C060026AE08EF0EF00AEF0EF02EEF0EF0FF0EE6
:101C16002314186EFF0E2414196EFF0E25141A6E67
:101C26007F0E26141B6E185019101A101B10D8B4EC
:101C36001FEF0EF021EF0EF025EF0EF0010E286ECD
:101C46002EEF0EF010A02AEF0EF02CEF0EF02EEF76
:101C56000EF021EF0EF02850D8B434EF0EF036EF28
:101C66000EF05AEF0EF0010E1026000E112212226F
:101C7600132213A041EF0EF043EF0EF05AEF0EF0D1
:101C860010C018F011C019F012C01AF013C01BF0E2
:101C96001B341B321A321932183218C010F019C010
:101CA60011F01AC012F01BC013F0214A222A22BEDC
:101CB60065EF0EF0225008E12128D8A065EF0EF05E
:101CC60067EF0EF072EF0EF0000E226E2168000E26
:101CD600106E000E116E000E126E000E136E22BEF6
:101CE6007FEF0EF0225006E12104D8B07DEF0EF012
:101CF6007FEF0EF08DEF0EF0000E226E000E216EBD
:101D0600000E106E000E116E000E126E000E136E97
:101D1600000E206E21C027F027A094EF0EF096EF5C
:101D26000EF099EF0EF0128E9AEF0EF0129ED890EA
:101D36002730136E50EF0DF012000600F2A8A6EF42
:101D46000EF0A8EF0EF0B1EF0EF0F2A2ADEF0EF02E
:101D5600AFEF0EF0B1EF0EF03CEC16F0F0A6B6EFDA
:101D66000EF0B8EF0EF0C1EF0EF0F0A0BDEF0EF0E2
:101D7600BFEF0EF0C1EF0EF03AEC16F0F0A8C6EF8A
:101D86000EF0C8EF0EF0D1EF0EF0F0A2CDEF0EF090
:101D9600CFEF0EF0D1EF0EF038EC16F0F2A6D6EF3C
:101DA6000EF0D8EF0EF0F3EF0EF0F2A0DDEF0EF02E
:101DB600DFEF0EF0F3EF0EF081A8E4EF0EF0E6EFA2
:101DC6000EF0F3EF0EF07C04D8A4ECEF0EF0EEEF7D
:101DD6000EF0F3EF0EF0000E7C6E000EFBEC15F02D
:101DE600F2A6F8EF0EF0FAEF0EF015EF0FF0F2A0F4
:101DF600FFEF0EF001EF0FF015EF0FF081B806EFD1
:101E06000FF008EF0FF015EF0FF07C50D8A40EEF8F
:101E16000FF010EF0FF015EF0FF0010E7C6E010EB4
:101E2600FBEC15F0F2A61AEF0FF01CEF0FF037EFF0
:101E36000FF0F2A021EF0FF023EF0FF037EF0FF0C6
:101E460081AA28EF0FF02AEF0FF037EF0FF07B048F
:101E5600D8A430EF0FF032EF0FF037EF0FF0000E8F
:101E66007B6E000EEEEC15F0F2A63CEF0FF03EEFA7
:101E76000FF059EF0FF0F2A043EF0FF045EF0FF020
:101E860059EF0FF081BA4AEF0FF04CEF0FF059EF10
:101E96000FF07B50D8A452EF0FF054EF0FF059EF2C
:101EA6000FF0010E7B6E010EEEEC15F0F2A65EEF62
:101EB6000FF060EF0FF07BEF0FF0F2A065EF0FF081
:101EC60067EF0FF07BEF0FF081AC6CEF0FF06EEF6A
:101ED6000FF07BEF0FF07A04D8A474EF0FF076EFD3
:101EE6000FF07BEF0FF0000E7A6E000EE1EC15F0AE
:101EF600F2A680EF0FF082EF0FF09DEF0FF0F2A049
:101F060087EF0FF089EF0FF09DEF0FF081BC8EEF9A
:101F16000FF090EF0FF09DEF0FF07A50D8A496EFE8
:101F26000FF098EF0FF09DEF0FF0010E7A6E010E95
:101F3600E1EC15F0F2A6A2EF0FF0A4EF0FF0BFEF61
:101F46000FF0F2A0A9EF0FF0ABEF0FF0BFEF0FF01D
:101F560081AEB0EF0FF0B2EF0FF0BFEF0FF07904E4
:101F6600D8A4B8EF0FF0BAEF0FF0BFEF0FF0000EE6
:101F7600796E000ED4EC15F0F2A6C4EF0FF0C6EFA2
:101F86000FF0E1EF0FF0F2A0CBEF0FF0CDEF0FF077
:101F9600E1EF0FF081BED2EF0FF0D4EF0FF0E1EFDB
:101FA6000FF07950D8A4DAEF0FF0DCEF0FF0E1EF85
:101FB6000FF0010E796E010ED4EC15F09DACE6EF34
:101FC6000FF0E8EF0FF0F1EF0FF09EACEDEF0FF032
:101FD600EFEF0FF0F1EF0FF042EC16F0F2AAF6EF8A
:101FE6000FF0F8EF0FF001EF10F0F2A4FDEF0FF095
:101FF600FFEF0FF001EF10F029EC16F09DA006EFB1
:1020060010F008EF10F011EF10F09EA00DEF10F099
:102016000FEF10F011EF10F023EC16F09DA216EF63
:1020260010F018EF10F021EF10F09EA21DEF10F047
:102036001FEF10F021EF10F02FEC16F0A0A226EF04
:1020460010F028EF10F031EF10F0A1A22DEF10F0F4
:102056002FEF10F031EF10F01DEC16F09DA436EFC7
:1020660010F038EF10F041EF10F09EA43DEF10F0A5
:102076003FEF10F041EF10F040EC16F0A0A046EF55
:1020860010F048EF10F051EF10F0A1A04DEF10F056
:102096004FEF10F051EF10F03EEC16F07D9211006C
:1020A6000A6E0A50D8B45AEF10F05CEF10F07EEFCB
:1020B60010F005BE63EF10F061EF10F07EEF10F048
:1020C60002C006F003C007F004C008F005C009F01E
:1020D600061E071E081E091E062A000E07220822D3
:1020E600092206C00CF007C00DF008C00EF009C0AA
:1020F6000FF086EF10F002C00CF003C00DF004C024
:102106000EF005C00FF00250031004100510D8A4FD
:102116008FEF10F091EF10F09BEF10F0000E026EB3
:10212600000E036E000E046E000E056E2CEF11F00D
:10213600960E0B6EA5EF10F00B2AD8900F320E32CA
:102146000D320C32000E0C14066E000E0D14076EC6
:10215600000E0E14086EFE0E0F14096E06500710C0
:1021660008100910D8A4BAEF10F0BCEF10F09FEFDA
:1021760010F0CAEF10F00B2A010E0C26000E0D22ED
:102186000E220F22D8900F320E320D320C32000E74
:102196000C14066E000E0D14076E000E0E14086E5B
:1021A600FF0E0F14096E0650071008100910D8A468
:1021B600DFEF10F0E1EF10F0BEEF10F0E9EF10F0F6
:1021C6000B06D8900C360D360E360F360EBEEEEFD9
:1021D60010F0F0EF10F0F8EF10F0020E0B60F6EFD3
:1021E60010F0F8EF10F0E3EF10F00BB0FDEF10F089
:1021F600FFEF10F000EF11F00E9ED8900B320BC0DF
:1022060006F0076A086A096A06C009F0086A076ADA
:10221600066A06500C1207500D1208500E1209508D
:102226000F120A50D8B41AEF11F01CEF11F024EF78
:1022360011F005BE23EF11F021EF11F024EF11F09C
:102246000F8E0CC002F00DC003F00EC004F00FC0DC
:1022560005F01200010E086E0250D8B435EF11F0E9
:1022660037EF11F047EF11F00250D96EDA6ADF301E
:10227600E832E832070B036E070E036445EF11F0F0
:1022860047EF11F09EEF11F0000E086EB4EF11F05B
:102296000250D96EDA6ADF30E832E832070B036E95
:1022A600010E046E032A5AEF11F0D8900436032E5D
:1022B60058EF11F00450FF0A056E0250D96EDA6A23
:1022C600DF50070B020DF350940FD96EDA6ADECF9A
:1022D60006F0DDCF07F006C0D9FF07C0DAFF0550CC
:1022E600DF16B4EF11F00250D96EDA6ADF30E83249
:1022F600E832070B036E010E046E032A85EF11F018
:10230600D8900436032E83EF11F00250D96EDA6AA4
:10231600DF50070B020DF350940FD96EDA6ADECF49
:1023260005F0DDCF06F005C0D9FF06C0DAFF045080
:10233600DF12B4EF11F00250D96EDA6ADFBCA6EFF5
:1023460011F0A9EF11F0010EAAEF11F0000E000A2C
:10235600D8B44BEF11F0010AD8B476EF11F047EF7D
:1023660011F008501200010E096E0250D8B4BEEFEB
:1023760011F0C0EF11F0D0EF11F00250D96EDA6A09
:10238600DF30E832E832070B046E070E0464CEEF46
:1023960011F0D0EF11F027EF12F0000E096E3CEFAE
:1023A60012F00250D96EDA6ADF30E832E832070BF3
:1023B600046E010E056E042AE3EF11F0D89005367F
:1023C600042EE1EF11F00550FF0A066E0250D96E99
:1023D600DA6ADF50070B020DF3508A0FD96EDA6AFC
:1023E600DECF07F0DDCF08F007C0D9FF08C0DAFF5F
:1023F6000650DF163CEF12F00250D96EDA6ADF3073
:10240600E832E832070B046E010E056E042A0EEF61
:1024160012F0D8900536042E0CEF12F00250D96E49
:10242600DA6ADF50070B020DF3508A0FD96EDA6AAB
:10243600DECF06F0DDCF07F006C0D9FF07C0DAFF12
:102446000550DF123CEF12F00350046E056A05508A
:10245600000AD8B431EF12F0D0EF11F00450000AA0
:10246600D8B4D4EF11F0010AD8B4FFEF11F0D0EFD1
:1024760011F009501200043405340B6E0B50D8A429
:1024860047EF12F049EF12F053EF12F0000E026E12
:10249600000E036E000E046E000E056EC0EF12F005
:1024A60002C006F003C007F004C008F005C009F03A
:1024B600200E63EF12F0D890093208320732063246
:1024C600E82E5EEF12F006500A6E048EFF0E02161C
:1024D600FF0E0316FF0E0416000E0516960E0B5E73
:1024E6000BBE7AEF12F078EF12F090EF12F00B506D
:1024F600800A970FD8B082EF12F084EF12F086EFC1
:1025060012F049EF12F0D89005320432033202324B
:102516000B3E86EF12F0A8EF12F01F0E0B6496EF3B
:1025260012F098EF12F0A0EF12F049EF12F0D890E7
:1025360002360336043605360B060B50D8A4A6EF32
:1025460012F0A8EF12F09AEF12F00A50D8B4AEEFDC
:1025560012F0B0EF12F0B8EF12F0051E041E031EC3
:10256600026C000E03220422052202C002F003C000
:1025760003F004C004F005C005F01200000E146E4E
:102586001250D8A4C9EF12F0CBEF12F0CFEF12F031
:10259600000E156E32EF13F012C00AF0A3EC14F021
:1025A600156E12280A6EA3EC14F0156E000E146E4A
:1025B60012501424020F0A6EA3EC14F0142A070E0C
:1025C6001464E8EF12F0EAEF12F0DBEF12F0340ECB
:1025D600136EF20EE82EFED7132EFCD712C00CF0A7
:1025E600380E0D6E37EC14F00D0E136EFC0EE82E41
:1025F600FED7132EFCD712C00CF0380E0D6E37EC3A
:1026060014F0640EE82EFED712C00CF0380E0D6ED4
:1026160037EC14F012C00CF0010E0D6E37EC14F00E
:1026260012C00CF0020E0D6E37EC14F012C00CF056
:10263600060E0D6E37EC14F012C00CF00C0E0D6E7B
:1026460037EC14F012C00CF0380E0D6E37EC14F0A7
:1026560012C00CF0800E0D6E37EC14F0156E15508E
:102666001200000E126E1050D8A43CEF13F03EEF8D
:1026760013F042EF13F0000E136EA5EF13F010C027
:102686000AF0A3EC14F0136E10280A6EA3EC14F0F3
:10269600136E000E126E10501224020F0A6EA3EC77
:1026A60014F0122A030E12645BEF13F05DEF13F0C1
:1026B6004EEF13F0340E116EF20EE82EFED7112EE9
:1026C600FCD710C00DF0380E0E6ED2EC14F00D0EC5
:1026D600116EFC0EE82EFED7112EFCD710C00DF0A1
:1026E600380E0E6ED2EC14F0640EE82EFED710C033
:1026F6000DF0380E0E6ED2EC14F010C00DF0010E77
:102706000E6ED2EC14F010C00DF0020E0E6ED2EC6E
:1027160014F010C00DF0060E0E6ED2EC14F010C0C0
:102726000DF00C0E0E6ED2EC14F010C00DF0280E4B
:102736000E6ED2EC14F010C00DF0800E0E6ED2ECC0
:1027460014F0136E135012000250D96EDA6A050E99
:10275600D926DFAAB1EF13F0B3EF13F0EEEF13F0C3
:10276600AC8A0250D96EDA6A050ED926DFACBEEF06
:1027760013F0C0EF13F0C3EF13F09D88D0EF13F002
:102786000250D96EDA6A050ED926DFBCCDEF13F0FA
:10279600CFEF13F0D0EF13F09D980250D96EDA6A9E
:1027A600050ED926DFAEDAEF13F0DCEF13F0DFEF1C
:1027B60013F0AC8CEEEF13F00250D96EDA6A050E08
:1027C600D926DFBEE9EF13F0EBEF13F0EEEF13F0CF
:1027D600AC9CEEEF13F012000250D96EDA6A060EC8
:1027E600D926DFAAF9EF13F0FBEF13F036EF14F05A
:1027F600AB880250D96EDA6A060ED926DFAC06EF30
:1028060014F008EF14F00BEF14F09D8A18EF14F093
:102816000250D96EDA6A060ED926DFBC15EF14F01F
:1028260017EF14F018EF14F09D9A0250D96EDA6A79
:10283600060ED926DFAE22EF14F024EF14F027EFB0
:1028460014F0AB8C36EF14F00250D96EDA6A060E2D
:10285600D926DFBE31EF14F033EF14F036EF14F063
:10286600AB9C36EF14F01200000E116E0C50D8A47B
:102876003FEF14F041EF14F045EF14F0000E106E28
:1028860070EF14F00CC002F0000E036EB6EC11F0FF
:10289600000E116E0C501124020F026E11C00EF0C4
:1028A6000DC00FF00E2A5AEF14F0D8900F320E2EEC
:1028B60058EF14F00F50010B036EB6EC11F0112A0D
:1028C600070E116469EF14F06BEF14F04DEF14F07E
:1028D6000CC00AF0AEEC15F0106E105012002E0E61
:1028E600F66E2B0EF76E000EF86E00EE80F010EE10
:1028F6002EF00900F5CFEEFFE550E150FAE16C0E3F
:10290600F66E2C0EF76E000EF86E00EE79F010EEF5
:1029160004F00900F5CFEEFFE550E150FAE100EED4
:10292600AEF0180EEE6AE806FDE100EE56F0230E54
:10293600EE6AE806FDE17D907D92000100EF15F05C
:102946000A50D8B4A9EF14F0ABEF14F0BBEF14F0B3
:102956000A50D96EDA6ADF30E832E832070B0B6EBE
:10296600070E0B64B9EF14F0BBEF14F0BFEF14F0D1
:10297600000E0C6ED0EF14F00AC002F02DEC11F030
:102986000C6E0AC002F00A50D96EDA6A000EDFBE7B
:10299600010E036EB6EC11F00C6E0C5012000D50C9
:1029A600D8A4D8EF14F0DAEF14F0DEEF14F0000E2E
:1029B6000F6EFEEF14F00DC002F0000E036EB6ECC3
:1029C60011F00F6E0DC00AF00E380F0B0B6E28ECCF
:1029D60015F00F6E0DC00AF0C1EC15F00F6E0DC0AC
:1029E6000AF00EC00BF028EC15F00F6E0DC00AF0C1
:1029F600C1EC15F00F6E0F50120033EC16F050ECD0
:102A060015F0610E08EC16F0020E0001C76F040EF9
:102A1600C66FBA0EE82EFED7C62FFCD7C72FFAD739
:102A26000000620E08EC16F0020E0001C76F040EDD
:102A3600C66FBA0EE82EFED7C62FFCD7C72FFAD719
:102A4600000004EF15F007EF00F00A50020F026EC7
:102A56000B50010B036EB6EC11F00A50030F026E19
:102A6600D8900B30010B036EB6EC11F00A50040F30
:102A7600026E0B40E8423F0B010B036EB6EC11F001
:102A86000A50050F026E0B38E8461F0B010B036E4A
:102A9600B6EC11F00C6E0C501200800E466E250E30
:102AA600476E000E486E000E496E000E4A6E4B8A47
:102AB6004B9C4B9E4C8A4C9C4C9E000E4E6E000EC0
:102AC6004F6E000E506E000E516E000E526E000ECE
:102AD600536E000E546E000E556E460E446E77EC25
:102AE60015F00001C86F1200010E456E4450D8A4BF
:102AF6007FEF15F081EF15F085EF15F0000E456EAE
:102B060095EF15F0AB9E948C948E44C039F00BEC87
:102B160008F044C002F0A7EC13F044C002F0EFEC5A
:102B260013F0AB8E45501200800F810F820F830F7A
:102B3600840F890F8A0F8B0F8C0F8D0F920F930FB7
:102B4600940F950F960F323A030B131B232B333B2F
:102B5600020A121A222A0A28026E010E036EB6EC27
:102B660011F0030EE82EFED700000A28026E000EB2
:102B7600036EB6EC11F00B6E0B5012000A28026EB3
:102B8600010E036EB6EC11F0030EE82EFED7000020
:102B96000A28026E000E036EB6EC11F00B6E0B5097
:102BA6001200016EF2900150D8A4DCEF15F0DEEFB2
:102BB60015F0E0EF15F0E0EF15F01200016EF2905F
:102BC6000150D8A4E9EF15F0EBEF15F0EDEF15F095
:102BD600EDEF15F01200016EF2900150D8A4F6EF59
:102BE60015F0F8EF15F0FAEF15F0FAEF15F0120000
:102BF600016EF2900150D8A403EF16F005EF16F01F
:102C060007EF16F007EF16F01200026EACA20EEFF9
:102C160016F010EF16F009EF16F002C0ADFF010E28
:102C26001200A80E106E34EC13F09E0E126EC1EC5C
:102C360012F01200A1925750B36E56C0B2FF1200A6
:102C46009E905950CF6E58C0CEFF1200F2945B5042
:102C5600D76E5AC0D6FF12009E9271C0CCFF1200EA
:102C660014EC16F0120001010101F0921200F0902E
:102C76001200F2921200A19012009E9412009E9CE5
:022C860012003A
:020000040030CA
:0E000000FF02091EFF8181FF0FC00FE00F40BD
:00000001FF
