:04000000E7EF08F02E
:101000000000DDEC08F0F19E1F0E936E9590959216
:1010100083908382BD50F00B0C09BD6E94947C0EBE
:10102000CB6ECA50FC0B0109CA6ECA84000E076E53
:1010300081A01DEF08F01FEF08F04BEF08F00750FC
:10104000D8B425EF08F028EF08F0010E29EF08F0DA
:10105000000E076E07B002D0839001D08380075046
:10106000D8B435EF08F039EF08F0056A052A3AEFF1
:1010700008F0056A054683500518FD0B0518836EB8
:10108000030E066E8A0E056E560EE82EFED7052E4E
:10109000FCD7062EFAD781A250EF08F052EF08F0E5
:1010A0005FEF08F0000E026E000E016EA5EC08F076
:1010B000820E056EDE0EE82EFED7052EFCD781A42B
:1010C00064EF08F066EF08F073EF08F0020E026EAE
:1010D000000E016EA5EC08F0820E056EDE0EE82E05
:1010E000FED7052EFCD781A678EF08F07AEF08F03E
:1010F00087EF08F0030E026E000E016EA5EC08F0FB
:10110000820E056EDE0EE82EFED7052EFCD781A8D6
:101110008CEF08F08EEF08F09AEF08F0030E026EE5
:101120000168A5EC08F0820E056EDE0EE82EFED7F3
:10113000052EFCD70D0E056EFC0EE82EFED7052EF3
:10114000FCD718EF08F000EF00F0040E025CD8B0F6
:10115000ACEF08F0AEEF08F0C4EF08F001C003F008
:10116000030E0316033ABD500318CF0B0318BD6ED0
:1011700001C003F002C004F0D89004320332D890CA
:10118000043203320350BE6E1200000E8D6E000E4C
:101190008C6E000E896E000E8A6E000E8B6E070E2E
:1011A000966E92689368F00E946E95687E681F0E36
:1011B0007F6E000E7C6EF18E1200C5EC08F0E2EC42
:1011C00008F01200300ED36E000E9B6E120000016C
:0411D00001EF08F033
:020000040030CA
:0E000000FF021F1EFF8B85FF0FC00FE00F4099
:00000001FF
