:100000000C9433000C9424060C9424060C942406BF
:100010000C9424060C9424060C9424060C942406B8
:100020000C9424060C9424060C9424060C942406A8
:100030000C9424060C9444040C9424060C946D0433
:100040000C9424060C9424060C9424060C94240688
:100050000C942406006000A28000A200A4000C56AC
:1000600000A400A8800011241FBECFE5D8E0DEBFA9
:10007000CDBFE4E5F0E040E017C0B591A591359122
:100080002591059107FD0CC095918591EF01F92F00
:10009000E82F05900D92A217B307D9F7FE0104C00F
:1000A0001D92A217B307E1F7E536F40731F70E9476
:0A00B000B3030C94C705F894FFCFCA
:1000BA00CF92DF92EF92FF92CF93DF93C82F6A011C
:1000CA007B0120E030E044EB52E4C701B6010E9414
:1000DA00100618169CF020E030E044EB52ECC70101
:1000EA00B6010E940B0688238CF40F2EC12CD12C4A
:1000FA00F4EBEF2EF2ECFF2EF02D08C00F2EC12CE0
:10010A00D12CF4EBEF2EF2E4FF2EF02D27E737E7A0
:10011A0047EA50E4C701B6010E941D0620E030E814
:10012A004DEA54E40E94E4050E94E70380E090E06F
:10013A000E943D036B017C0160919C0070919D00BF
:10014A0080E090E00E943D039B01AC0160E074E214
:10015A0084E799E40E9419060E94E70380E090E090
:10016A000E943D039B01AC01C701B6010E9419061A
:10017A0020E030E040E855E40E941D060E94E703B3
:10018A00F62ED72F80E00E9489058091A600805C18
:10019A000E94BA048C2F880F880F8A5F0E94AC05D0
:1001AA0080E00E94AC0580E00E94AC058F2D0E9481
:1001BA00AC058D2F8F700E94AC050E94DC05DF9183
:0C01CA00CF91FF90EF90DF90CF90089550
:1001D600FF920F931F93CF93DF930F92CDB7DEB7A6
:1001E600F82E8B0170939D0060939C008093A6006F
:1001F6000E94FF0580E00E94890580E48F0D0E9421
:10020600BA0480E00E94AC0581E30E94AC050E941E
:10021600DC0589EF90E00197F1F700C00000B80116
:1002260080E090E00E943D0320E030E040E855E4A5
:100236000E941D062FE135E84BE65FE30E941D068E
:100246009B01AC0160E27CEB8EEB9BE40E941906FD
:1002560020E030E040E85FE30E94E3050E94E70308
:10026600698380E00E94890580E40E94BA048EEFCB
:100276000E94AC0589810E94AC050E94DC0589EFCD
:1002860090E00197F1F700C0000080E00E94890528
:1002960080E40E94BA0480E00E94AC0581EA0E94D4
:1002A600AC050E94DC0589EF90E00197F1F700C0EC
:1002B600000080E00E94890580E40E94BA0481E083
:1002C6000E94AC0584E00E94AC050E94DC050F90FC
:0C02D600DF91CF911F910F91FF900895D0
:1002E20010C00E94F10558F00E94EA0540F029F47E
:1002F2005F3F29F00C94050651110C94F9050C94FA
:1003020021060E94DC0468F39923B1F3552391F38B
:10031200951B550BBB27AA2762177307840738F072
:100322009F5F5F4F220F331F441FAA1FA9F335D0CF
:100332000E2E3AF0E0E832D091505040E695001C83
:10034200CAF72BD0FE2F29D0660F771F881FBB1F3D
:10035200261737074807AB07B0E809F0BB0B802D1B
:10036200BF01FF2793585F4F3AF09E3F510578F047
:100372000C9405060C94F9055F3FE4F3983ED4F320
:10038200869577956795B795F7959F5FC9F7880F1B
:10039200911D9695879597F90895E1E0660F771F6D
:1003A200881FBB1F621773078407BA0720F0621BFE
:0E03B200730B840BBA0BEE1F88F7E0950895CD
:1003C0000FC00E94EA0538F00E94F10520F0952345
:1003D00011F00C9405060C94210611240C94F905D7
:1003E0000E94DC0470F3959FC1F3950F50E0551FF8
:1003F000629FF001729FBB27F00DB11D639FAA277A
:10040000F00DB11DAA1F649F6627B00DA11D661FC8
:10041000829F2227B00DA11D621F739FB00DA11DE9
:10042000621F839FA00D611D221F749F3327A00DA3
:10043000611D231F849F600D211D822F762F6A2F3F
:1004400011249F5750409AF0F1F088234AF0EE0FA4
:10045000FF1FBB1F661F771F881F91505040A9F7D1
:100460009E3F510580F00C9405060C94F9055F3F02
:10047000E4F3983ED4F3869577956795B795F7950D
:10048000E7959F5FC1F7FE2B880F911D9695879585
:0404900097F908953B
:1004940011C00E94EA0538F00E94F10520F039F4F9
:1004A4009F3F19F426F40C9421060EF4E095E7FB23
:1004B4000C940506E92F0E94DC0458F3BA1762076E
:1004C40073078407950720F079F4A6F50C94F805D2
:1004D4000EF4E0950B2EBA2FA02D0B01B90190015B
:1004E4000C01CA01A0011124FF27591B99F0593F9F
:1004F40050F4503E68F11A16F040A22F232F342FE7
:100504004427585FF3CF469537952795A795F04034
:100514005395C9F77EF41F16BA0B620B730B840B49
:10052400BAF09150A1F0FF0FBB1F661F771F881F01
:10053400C2F70EC0BA0F621F731F841F48F4879559
:1005440077956795B795F7959E3F08F0B0CF93954B
:0E055400880F08F09927EE0F97958795089568
:10056200EF92FF921F93CF93DF93CDB7DEB7AD9794
:100572000FB6F894DEBF0FBECDBF4CE250E0BC0117
:10058200CE0101960E946F051DA662EA70E0CE01BF
:1005920001960E94FE020097D9F00F2EFDE8EF2E81
:1005A200F0E0FF2EF02D10E00E947A03F701819314
:1005B2007F0162EA70E080E090E00E94FE021F5F2D
:1005C200009719F41F3028F00CC01F3069F709C0DA
:1005D20010E0E12FF0E0E357FF4F10821F5F1F3062
:1005E200C0F3AD960FB6F894DEBF0FBECDBFDF915C
:0A05F200CF911F91FF90EF90089544
:1005FC000F931F93CF93DF93EC018B01892B31F475
:10060C00C091A400D091A500209751F1B801CE0162
:10061C000E941B05C80FD91F8881811105C010923B
:10062C00A5001092A4001DC0B801CE010E94FE04CA
:10063C00FE01E80FF91FF093A500E093A400808160
:10064C00882341F0CF0101969093A5008093A400DC
:10065C00108204C01092A5001092A400CE0102C01A
:0E066C0080E090E0DF91CF911F910F910895F3
:10067A00E89409C097FB3EF4909580957095619532
:10068A007F4F8F4F9F4F9923A9F0F92F96E9BB27E8
:10069A009395F695879577956795B795F111F8CF64
:1006AA00FAF4BB0F11F460FF1BC06F5F7F4F8F4FCF
:1006BA009F4F16C0882311F096E911C0772321F0C5
:1006CA009EE8872F762F05C0662371F096E8862F5D
:1006DA0070E060E02AF09A95660F771F881FDAF7B4
:0A06EA00880F9695879597F90895FB
:1006F400AC01FA0190814F5F5F4F9032D1F3292F03
:10070400092E000C330B295031092530310588F3AB
:100714009B3209F540E050E0319602C040E050E0E1
:1007240080E090E06AE02191022E000C330B20530C
:1007340031092A30310548F4689FD001699FB00D12
:100744001124CD01821B930BEECF452B49F49195D7
:100754008195910908959D3209F741E050E0DCCF7D
:020764000895F6
:1007660062E370E080E00E94EB000E94D205C0E0E8
:1007760040E050E0BA018C2F0E945D00CF5FCF3081
:10078600B9F76DE280E690E00E94160480E690E0FC
:100796000E94B1020DE810E0C0E0F80161918F01FE
:1007A60070E080E090E00E943D03AB01BC018C2F1D
:1007B6000E945D008BE792E90197F1F700C0000007
:0807C600CF5FCF3051F7DDCF0A
:1007CE000E94E40488F09F5798F0B92F9927B751EB
:1007DE00B0F0E1F0660F771F881F991F1AF0BA95D7
:1007EE00C9F714C0B13091F00E94F805B1E0089538
:1007FE000C94F805672F782F8827B85F39F0B93F2A
:10080E00CCF3869577956795B395D9F73EF4909589
:0E081E008095709561957F4F8F4F9F4F089585
:10082C00EF92FF920F931F93CF937C01062F10E052
:10083C000150110910161106B4F4C0E001C0C92F03
:10084C000E9415068A3081F0882371F091E09C0F8C
:10085C00F701EC0FF11D8083292F30E020173107B1
:10086C0074F3C92F01C0C0E0F701EC0FF11D108229
:0C087C00CF911F910F91FF90EF90089515
:100888001F920F920FB60F9211242F933F934F93FD
:100898005F936F937F938F939F93AF93BF93EF93E0
:1008A800FF93E091A000F091A100309709F009951D
:1008B800FF91EF91BF91AF919F918F917F916F9130
:1008C8005F914F913F912F910F900FBE0F901F9006
:0208D800189571
:1008DA001F920F920FB60F9211242F933F934F93AB
:1008EA005F936F937F938F939F93AF93BF93EF938E
:1008FA00FF93E0919E00F0919F00309709F00995CF
:10090A00FF91EF91BF91AF919F918F917F916F91DD
:10091A005F914F913F912F910F900FBE0F901F90B3
:02092A0018951E
:10092C00990F0008550FAA0BE0E8FEEF16161706F4
:10093C00E807F907C0F012161306E407F50798F05C
:10094C00621B730B840B950B39F40A2661F0232B75
:10095C00242B252B21F408950A2609F4A140A695F1
:08096C008FEF811D811D08952C
:10097400880F9091A700892B83B984E886BF06B6B7
:1009840007FEFDCF8091A700811106C081B1887F49
:10099400883151F08EEF0895813041F481B1887F20
:1009A400803431F08EEF08958FEF089580E008953C
:0409B4008FEF089524
:1009B80057FD9058440F551F59F05F3F71F0479508
:1009C800880F97FB991F61F09F3F79F087950895ED
:1009D800121613061406551FF2CF4695F1DF08C00C
:1009E800161617061806991FF1CF86957105610529
:0409F80008940895C2
:1009FC00A0E0B0E0E4E0F5E00C9442058C016B0162
:100A0C00EC017E01E01AF10A6991662341F0062E91
:100A1C00000C770BC6010E94BB05892B91F3C70113
:0A0A2C00CDB7DEB7E8E00C945E05DC
:100A3600A0E0B0E0E1E2F5E00C9442058C016B0128
:100A4600EC017E01E01AF10A6991662341F0062E57
:100A5600000C770BC6010E94BB05892B91F7C701D5
:0A0A6600CDB7DEB7E8E00C945E05A2
:100A70002F923F924F925F926F927F928F929F92AE
:100A8000AF92BF92CF92DF92EF92FF920F931F939C
:100A9000CF93DF93CDB7DEB7CA1BDB0B0FB6F8944D
:080AA000DEBF0FBECDBF0994BB
:100AA8002A88398848885F846E847D848C849B84F6
:100AB800AA84B984C884DF80EE80FD800C811B8104
:100AC800AA81B981CE0FD11D0FB6F894DEBF0FBE33
:060AD800CDBFED01089501
:100ADE00CF93DF93EB01FC014115510581F041509D
:100AEE005109DF01119629912083FD012111F4CFC7
:100AFE004A0F5B1F4A175B0711F01D92FBCFDF9168
:040B0E00CF910895E6
:100B12008093A70086B7846A86BF06B607FEFDCF1C
:100B220081B1887F883021F0803111F08EEF0895F5
:040B32008FEF0895A4
:100B3600092E0394000C11F4882352F0BB0F40F4E5
:100B4600BF2B11F460FF04C06F5F7F4F8F4F9F4F25
:020B5600089500
:100B580083B986B7806886BF06B607FEFDCF81B128
:0E0B6800887F883211F08EEF08958FEF089588
:100B7600FC012E2F9F2F8191861721F08111F9CF2D
:080B860090E00895822F08950C
:100B8E00EC010E9429060E942806CE010E942A0628
:060B9E00CE010E942606B4
:100BA4005998529886E880BD10BC83E389B9549A59
:040BB400539A0895B3
:0E0BB80086B7806986BF06B604FCFDCF08959F
:0E0BC6005058BB27AA270E944A020C949B0598
:0E0BD40000240A94161617061806090608953E
:0E0BE20000240A941216130614060506089540
:0E0BF000E894BB2766277727CB0197F9089575
:0C0BFE0081B18C7F81B980E280B908953C
:0C0C0A0097F99F6780E870E060E00895B3
:0A0C16000E94960408F481E008959E
:0A0C20000E94960408F48FEF089577
:080C2A005F9BFECF8CB1089521
:080C32000E9471010C949B0566
:080C3A000E94E0010C949B05EF
:060C42009FEF80EC089515
:040C48000C94000008
:040C4C000E945B00A7
:020C5000089505
:020C5200089503
:020C5400089501
:020C56002C0070
:00000001FF
