:0400000007EF00F016
:0A0008006C82D3ED0CF03AEF16F015
:10100000003738392F3435362A3132322D23303DEE
:051010002B2569000022
:10101600000E4E6E000E4F6E000E506E000E516E9C
:1010260029EF0AF0AC98AC94B8964B50D96EDA6AB0
:10103600DECF14F0DECF15F0DECF16F0DECF17F0E0
:10104600000E8BEC10F014C026F015C027F016C069
:1010560028F017C029F0000E226E240E236EF40E1F
:10106600246E4A0E256EBEEC0EF022C052F023C04E
:1010760053F024C054F025C055F0000E266E000E25
:10108600276E800E286E420E296E52C022F053C083
:1010960023F054C024F055C025F0BEEC0EF022C05B
:1010A6003BF023C03CF024C03DF025C03EF0000ECE
:1010B6003F6E000E406E800E416EBF0E426E73ECA8
:1010C6000AF03BC04EF03CC04FF03DC050F03EC071
:1010D60051F053EF0AF0AC98AC84B8964B50D96EE9
:1010E600DA6ADECF14F0DECF15F0DECF16F0DECFF3
:1010F60017F0000E8BEC10F014C026F015C027F088
:1011060016C028F017C029F0000E226E240E236E9A
:10111600F40E246E4A0E256EBEEC0EF022C052F07E
:1011260023C053F024C054F025C055F0000E266E9F
:10113600000E276E800E286E410E296E52C022F0D8
:1011460053C023F054C024F055C025F0BEEC0EF079
:1011560022C03BF023C03CF024C03DF025C03EF049
:10116600000E3F6E000E406E800E416EBF0E426E48
:1011760073EC0AF03BC04EF03CC04FF03DC050F05F
:101186003EC051F053EF0AF0AC98AC94B8864B5081
:10119600D96EDA6ADECF14F0DECF15F0DECF16F0A8
:1011A600DECF17F0000E8BEC10F014C026F015C041
:1011B60027F016C028F017C029F0000E226E240E64
:1011C600236EF40E246E4A0E256EBEEC0EF022C07F
:1011D60052F023C053F024C054F025C055F0000E41
:1011E600266E000E276E800E286E410E296E52C0A6
:1011F60022F053C023F054C024F055C025F0BEECB5
:101206000EF022C03BF023C03CF024C03DF025C0C8
:101216003EF0000E3F6E000E406E800E416EBF0E19
:10122600426E73EC0AF03BC04EF03CC04FF03DC03E
:1012360050F03EC051F053EF0AF0AC98AC84B8863B
:101246004B50D96EDA6ADECF14F0DECF15F0DECF62
:1012560016F0DECF17F0000E8BEC10F014C026F05F
:1012660015C027F016C028F017C029F0000E226E10
:10127600240E236EF40E246E4A0E256EBEEC0EF07E
:1012860022C052F023C053F024C054F025C055F0BC
:10129600000E266E000E276E800E286E400E296EFA
:1012A60052C022F053C023F054C024F055C025F09C
:1012B600BEEC0EF022C03BF023C03CF024C03DF053
:1012C60025C03EF0000E3F6E000E406E800E416E51
:1012D600BF0E426E73EC0AF03BC04EF03CC04FF0BE
:1012E6003DC050F03EC051F053EF0AF0AC88B896BE
:1012F6004B50D96EDA6ADECF14F0DECF15F0DECFB2
:1013060016F0DECF17F0000E8BEC10F014C026F0AE
:1013160015C027F016C028F017C029F0000E226E5F
:10132600240E236EF40E246E4A0E256EBEEC0EF0CD
:1013360022C052F023C053F024C054F025C055F00B
:10134600000E266E000E276E800E286E400E296E49
:1013560052C022F053C023F054C024F055C025F0EB
:10136600BEEC0EF022C03BF023C03CF024C03DF0A2
:1013760025C03EF0000E3F6E000E406E800E416EA0
:10138600BF0E426E73EC0AF03BC04EF03CC04FF00D
:101396003DC050F03EC051F053EF0AF0AC88B8861D
:1013A6004B50D96EDA6ADECF14F0DECF15F0DECF01
:1013B60016F0DECF17F0000E8BEC10F014C026F0FE
:1013C60015C027F016C028F017C029F0000E226EAF
:1013D600240E236EF40E246E4A0E256EBEEC0EF01D
:1013E60022C052F023C053F024C054F025C055F05B
:1013F600000E266E000E276E800E286E400E296E99
:1014060052C022F053C023F054C024F055C025F03A
:10141600BEEC0EF022C03BF023C03CF024C03DF0F1
:1014260025C03EF0000E3F6E000E406E800E416EEF
:10143600BF0E426E73EC0AF03BC04EF03CC04FF05C
:101446003DC050F03EC051F053EF0AF04B50D96EFC
:10145600DA6A040ED926DF504C6E4D6A4D50000AEA
:10146600D8B438EF0AF053EF0AF04C50000AD8B45B
:1014760015EF08F0010AD8B46EEF08F0030AD8B4E5
:10148600C7EF08F0010AD8B420EF09F0070AD8B46C
:1014960079EF09F0010AD8B4D1EF09F053EF0AF059
:1014A6004EC014F04FC015F050C016F051C017F0E2
:1014B600FEEC12F01450AF6E4EC014F04FC015F093
:1014C60050C016F051C017F0FEEC12F015C014F023
:1014D60016C015F017C016F0176A1450B06E120039
:1014E6003E50800B476E3E503E24496E3DAE7EEF29
:1014F6000AF080EF0AF081EF0AF049804950D8B42B
:1015060087EF0AF089EF0AF09EEF0AF04928D8A47F
:101516008FEF0AF091EF0AF099EF0AF0000E3B6E9A
:10152600000E3C6E000E3D6E000E3E6E3D8E000EB1
:101536003E6EA6EF0AF0000E3B6E000E3C6E000EED
:101546003D6E000E3E6E4250800B486E4750481866
:10155600D8B4B0EF0AF0B2EF0AF0B3EF0AF0478C56
:1015660042504224486E41AEBBEF0AF0BDEF0AF08E
:10157600BEEF0AF048804850D8B4C4EF0AF0C6EF70
:101586000AF0DBEF0AF04828D8A4CCEF0AF0CEEF39
:101596000AF0D6EF0AF0000E3F6E000E406E000E07
:1015A600416E000E426E418E000E426EE3EF0AF06F
:1015B600000E3F6E000E406E000E416E000E426E33
:1015C6004950485CD8B0EAEF0AF0ECEF0AF013EFA6
:1015D6000BF047ACF1EF0AF0F3EF0AF0F5EF0AF083
:1015E600800E471A49C04AF048C049F04AC048F040
:1015F6003BC04AF03FC03BF04AC03FF03CC04AF017
:1016060040C03CF04AC040F03DC04AF041C03DF009
:101616004AC041F03EC04AF042C03EF04AC042F0E5
:10162600000E4A6E495048C043F0446A435E000EBD
:10163600445A44BE28EF0BF0445009E11A0E435CAD
:10164600D8A028EF0BF02AEF0BF061EF0BF03B5020
:101656003C103D103E10D8A433EF0BF036EF0BF0E4
:10166600010E37EF0BF0000E4A6E000E3B6E000EB9
:101676003C6E000E3D6E000E3E6E48C049F06AEFAD
:101686000BF04AA049EF0BF04BEF0BF051EF0BF0CC
:10169600D8904A3001094A6E53EF0BF0D8904A327F
:1016A6003BA058EF0BF05AEF0BF05BEF0BF04A8EB6
:1016B6003E343E323D323C323B32492A4850495C48
:1016C600D8A068EF0BF06AEF0BF044EF0BF047BCC5
:1016D6006FEF0BF071EF0BF0B1EF0BF04950D8A4A0
:1016E60077EF0BF079EF0BF083EF0BF0000E3B6E0C
:1016F600000E3C6E000E3D6E000E3E6ED2EF0CF0FC
:101706003F503B2640503C2241503D2242503E2213
:101716003EA090EF0BF092EF0BF03EEF0CF04AA0DC
:1017260097EF0BF099EF0BF09FEF0BF0D8904A3044
:1017360001094A6EA1EF0BF0D8904A323BA0A6EF02
:101746000BF0A8EF0BF0A9EF0BF04A8E3E343E32B9
:101756003D323C323B32492A3EEF0CF03F503B5C77
:1017660040503C5841503D583E50800A436E4250CE
:10177600800A4358D8B0C2EF0BF0C4EF0BF0EFEF7E
:101786000BF03B503F5C436E3C504058446E3D501E
:101796004158456E3E504258466EFF0E43243B6EFE
:1017A600FF0E44203C6EFF0E45203D6EFF0E462088
:1017B6003E6E800E471A4A6C4A50D8A4E5EF0BF0ED
:1017C600E7EF0BF0F7EF0BF0010E3B26000E3C2285
:1017D6003D223E22F7EF0BF03F503B5E40503C5A15
:1017E60041503D5A42503E5A3B503C103D103E102F
:1017F600D8A400EF0CF002EF0CF037EF0CF04A50D3
:10180600D8A408EF0CF00AEF0CF037EF0CF0000E3E
:101816003B6E000E3C6E000E3D6E000E3E6ED2EF2D
:101826000CF0D8903B363C363D363E364AAE1EEF7F
:101836000CF020EF0CF021EF0CF03B804AA026EFD5
:101846000CF028EF0CF02CEF0CF0D8804A362EEF77
:101856000CF0D8904A364950D8B434EF0CF036EF35
:101866000CF037EF0CF049063DAE3CEF0CF03EEFC6
:101876000CF014EF0CF0000E486E4AAE45EF0CF07B
:1018860047EF0CF05FEF0CF04AC043F07F0E4316B3
:10189600D8B450EF0CF052EF0CF056EF0CF0010EEE
:1018A600486E5FEF0CF03BA05BEF0CF05DEF0CF0C9
:1018B6005FEF0CF052EF0CF04850D8B465EF0CF027
:1018C60067EF0CF092EF0CF0010E3B26000E3C2267
:1018D6003D223E223EA072EF0CF074EF0CF092EF28
:1018E6000CF03BC043F03CC044F03DC045F03EC068
:1018F60046F04634463245324432433243C03BF02A
:1019060044C03CF045C03DF046C03EF04928D8B43E
:101916008FEF0CF091EF0CF092EF0CF0492A49286A
:10192600D8B498EF0CF09AEF0CF0A2EF0CF04950F7
:10193600D8A4A0EF0CF0A2EF0CF0B4EF0CF0000E60
:101946003B6E000E3C6E000E3D6E000E3E6E495024
:10195600D8A4B0EF0CF0B2EF0CF0B4EF0CF0000E20
:10196600476E49A0B9EF0CF0BBEF0CF0BEEF0CF0E0
:101976003D8EBFEF0CF03D9ED89049303E6E47AE8F
:10198600C7EF0CF0C9EF0CF0CAEF0CF03E8E3BC06F
:101996003BF03CC03CF03DC03DF03EC03EF0120086
:1019A6000600FACF0EF0FBCF0FF0D9CF10F0DACF4A
:1019B60011F0F3CF12F0F4CF13F0F2A8E5EF0CF02C
:1019C600E7EF0CF0F0EF0CF0F2A2ECEF0CF0EEEF1C
:1019D6000CF0F0EF0CF01CEC18F0F0A6F5EF0CF0A4
:1019E600F7EF0CF000EF0DF0F0A0FCEF0CF0FEEFBF
:1019F6000CF000EF0DF01AEC18F0F0A805EF0DF062
:101A060007EF0DF010EF0DF0F0A20CEF0DF00EEF5A
:101A16000DF010EF0DF018EC18F0F2A615EF0DF022
:101A260017EF0DF032EF0DF0F2A01CEF0DF01EEFE8
:101A36000DF032EF0DF081A823EF0DF025EF0DF03C
:101A460032EF0DF06904D8A42BEF0DF02DEF0DF059
:101A560032EF0DF0000E696E000ECDEC17F0F2A617
:101A660037EF0DF039EF0DF054EF0DF0F2A03EEF29
:101A76000DF040EF0DF054EF0DF081B845EF0DF08D
:101A860047EF0DF054EF0DF06950D8A44DEF0DF06F
:101A96004FEF0DF054EF0DF0010E696E010ECDEC17
:101AA60017F0F2A659EF0DF05BEF0DF076EF0DF0A3
:101AB600F2A060EF0DF062EF0DF076EF0DF081AA67
:101AC60067EF0DF069EF0DF076EF0DF06804D8A41E
:101AD6006FEF0DF071EF0DF076EF0DF0000E686E02
:101AE600000EC0EC17F0F2A67BEF0DF07DEF0DF0C7
:101AF60098EF0DF0F2A082EF0DF084EF0DF098EF65
:101B06000DF081BA89EF0DF08BEF0DF098EF0DF027
:101B16006850D8A491EF0DF093EF0DF098EF0DF00B
:101B2600010E686E010EC0EC17F0F2A69DEF0DF0E7
:101B36009FEF0DF0BAEF0DF0F2A0A4EF0DF0A6EFB7
:101B46000DF0BAEF0DF081ACABEF0DF0ADEF0DF08F
:101B5600BAEF0DF06704D8A4B3EF0DF0B5EF0DF0B2
:101B6600BAEF0DF0000E676E000EB3EC17F0F2A69A
:101B7600BFEF0DF0C1EF0DF0DCEF0DF0F2A0C6EFF8
:101B86000DF0C8EF0DF0DCEF0DF081BCCDEF0DF0E0
:101B9600CFEF0DF0DCEF0DF06750D8A4D5EF0DF0C8
:101BA600D7EF0DF0DCEF0DF0010E676E010EB3EC12
:101BB60017F0F2A6E1EF0DF0E3EF0DF0FEEF0DF0FA
:101BC600F2A0E8EF0DF0EAEF0DF0FEEF0DF081AEBA
:101BD600EFEF0DF0F1EF0DF0FEEF0DF06604D8A477
:101BE600F7EF0DF0F9EF0DF0FEEF0DF0000E666E5B
:101BF600000EA6EC17F0F2A603EF0EF005EF0EF0BE
:101C060020EF0EF0F2A00AEF0EF00CEF0EF020EF30
:101C16000EF081BE11EF0EF013EF0EF020EF0EF076
:101C26006650D8A419EF0EF01BEF0EF020EF0EF061
:101C3600010E666E010EA6EC17F09DAC25EF0EF0B8
:101C460027EF0EF030EF0EF09EAC2CEF0EF02EEFDD
:101C56000EF030EF0EF024EC18F0F2AA35EF0EF08D
:101C660037EF0EF040EF0EF0F2A43CEF0EF03EEF31
:101C76000EF040EF0EF008EC18F09DA045EF0EF0C8
:101C860047EF0EF050EF0EF09EA04CEF0EF04EEF29
:101C96000EF050EF0EF002EC18F09DA255EF0EF08C
:101CA60057EF0EF060EF0EF09EA25CEF0EF05EEFC7
:101CB6000EF060EF0EF00EEC18F0A0A265EF0EF03D
:101CC60067EF0EF070EF0EF0A1A26CEF0EF06EEF64
:101CD6000EF070EF0EF0FCEC17F09DA475EF0EF011
:101CE60077EF0EF080EF0EF09EA47CEF0EF07EEF05
:101CF6000EF080EF0EF022EC18F0A0A085EF0EF0AB
:101D060087EF0EF090EF0EF0A1A08CEF0EF08EEFA5
:101D16000EF090EF0EF020EC18F09DA895EF0EF067
:101D260097EF0EF0A0EF0EF09EA89CEF0EF09EEF40
:101D36000EF0A0EF0EF01EEC18F09DAAA5EF0EF027
:101D4600A7EF0EF0B0EF0EF09EAAACEF0EF0AEEFDE
:101D56000EF0B0EF0EF039EC17F013C0F4FF12C01E
:101D6600F3FF11C0DAFF10C0D9FF0FC0FBFF0EC092
:101D7600FAFF6C9211002550800B326E25502524F7
:101D8600396E24AEC9EF0EF0CBEF0EF0CCEF0EF0AD
:101D960039803950D8B4D2EF0EF0D4EF0EF0E9EF17
:101DA6000EF03928D8A4DAEF0EF0DCEF0EF0E4EFEF
:101DB6000EF0000E226E000E236E000E246E000E34
:101DC600256E248E000E256EF1EF0EF0000E226EAB
:101DD600000E236E000E246E000E256E2950800B19
:101DE600321A295029243A6E28AEFCEF0EF0FEEF87
:101DF6000EF0FFEF0EF03A803A50D8B405EF0FF030
:101E060007EF0FF01CEF0FF03A28D8A40DEF0FF0F4
:101E16000FEF0FF017EF0FF0000E266E000E276E75
:101E2600000E286E000E296E288E000E296E24EFF5
:101E36000FF0000E266E000E276E000E286E000EA6
:101E4600296E2650271028102910D8A42DEF0FF040
:101E56002FEF0FF047EF0FF0000E226E000E236EED
:101E6600000E246E000E256E800E24127F0E2512A3
:101E76003250251222C022F023C023F024C024F0C1
:101E860025C025F08AEF10F03950D8A44DEF0FF099
:101E96004FEF0FF059EF0FF0000E226E000E236E7B
:101EA600000E246E000E256E8AEF10F03A5039C0EF
:101EB6002AF02B6A2A5E000E2B5A7F0E2A24336ED6
:101EC600000E2B20346E22C02EF023C02FF024C02B
:101ED60030F025C031F0000E226E000E236E000E8B
:101EE600246E000E256E000E356E000E366E000E48
:101EF600376E000E386E000E3A6EBAEF0FF03A509B
:101F0600D8B488EF0FF08AEF0FF0A1EF0FF0D8905A
:101F16002E362F3630363136D890223623362436B2
:101F2600253638AE99EF0FF09BEF0FF09CEF0FF0D0
:101F36002280D890353636363736383626502E5CDF
:101F460027502F582850305829503158D8A0AEEF76
:101F56000FF0B0EF0FF0B9EF0FF0388C26502E5E71
:101F660027502F5A2850305A2950315A3A2A190EDA
:101F76003A64C0EF0FF0C2EF0FF082EF0FF02E5071
:101F86002F1030103110D8B4CBEF0FF0CDEF0FF08B
:101F9600E5EF0FF03580E5EF0FF0D89022362336C7
:101FA6002436253638AEDAEF0FF0DCEF0FF0DDEF32
:101FB6000FF02280D8903536363637363836330627
:101FC600D8A0340624AEEAEF0FF0ECEF0FF0D0EF16
:101FD6000FF0000E3A6E38AEF3EF0FF0F5EF0FF09C
:101FE60019EF10F0FF0E35142A6EFF0E36142B6E05
:101FF600FF0E37142C6E7F0E38142D6E2A502B10C0
:102006002C102D10D8B40AEF10F00CEF10F010EFD2
:1020160010F0010E3A6E19EF10F022A015EF10F035
:1020260017EF10F019EF10F00CEF10F03A50D8B48B
:102036001FEF10F021EF10F045EF10F0010E2226F1
:10204600000E23222422252225A02CEF10F02EEFAD
:1020560010F045EF10F022C02AF023C02BF024C068
:102066002CF025C02DF02D342D322C322B322A3275
:102076002AC022F02BC023F02CC024F02DC025F05E
:10208600334A342A34BE50EF10F0345008E1332876
:10209600D8A050EF10F052EF10F05DEF10F0000EE8
:1020A600346E3368000E226E000E236E000E246E10
:1020B600000E256E34BE6AEF10F0345006E133048C
:1020C600D8B068EF10F06AEF10F078EF10F0000E5D
:1020D600346E000E336E000E226E000E236E000E5E
:1020E600246E000E256E000E326E33C039F039A014
:1020F6007FEF10F081EF10F084EF10F0248E85EF63
:1021060010F0249ED8903930256E3BEF0FF0120068
:102116001C6E1C50D8B492EF10F094EF10F0B6EF8E
:1021260010F017BE9BEF10F099EF10F0B6EF10F01D
:1021360014C018F015C019F016C01AF017C01BF01D
:10214600181E191E1A1E1B1E182A000E19221A22E4
:102156001B2218C01EF019C01FF01AC020F01BC0A9
:1021660021F0BEEF10F014C01EF015C01FF016C00F
:1021760020F017C021F01450151016101710D8A40F
:10218600C7EF10F0C9EF10F0D3EF10F0000E146E89
:10219600000E156E000E166E000E176E64EF11F02F
:1021A600960E1D6EDDEF10F01D2AD89021322032DA
:1021B6001F321E32000E1E14186E000E1F14196EEA
:1021C600000E20141A6EFE0E21141B6E18501910E4
:1021D6001A101B10D8A4F2EF10F0F4EF10F0D7EF9E
:1021E60010F002EF11F01D2A010E1E26000E1F220E
:1021F60020222122D890213220321F321E32000E98
:102206001E14186E000E1F14196E000E20141A6E7E
:10221600FF0E21141B6E185019101A101B10D8A48B
:1022260017EF11F019EF11F0F6EF10F021EF11F0A2
:102236001D06D8901E361F362036213620BE26EFC4
:1022460011F028EF11F030EF11F0020E1D602EEFA5
:1022560011F030EF11F01BEF11F01DB035EF11F05A
:1022660037EF11F038EF11F0209ED8901D321DC0C7
:1022760018F0196A1A6A1B6A18C01BF01A6A196ADA
:10228600186A18501E1219501F121A5020121B508D
:1022960021121C50D8B452EF11F054EF11F05CEF3C
:1022A60011F017BE5BEF11F059EF11F05CEF11F072
:1022B600218E1EC014F01FC015F020C016F021C0DC
:1022C60017F01200010E1A6E1450D8B46DEF11F00B
:1022D6006FEF11F07FEF11F01450D96EDA6ADF302C
:1022E600E832E832070B156E070E15647DEF11F024
:1022F6007FEF11F0D6EF11F0000E1A6EECEF11F031
:102306001450D96EDA6ADF30E832E832070B156E00
:10231600010E166E152A92EF11F0D8901636152E6C
:1023260090EF11F01650FF0A176E1450D96EDA6A44
:10233600DF50070B020DF350C80FD96EDA6ADECFF5
:1023460018F0DDCF19F018C0D9FF19C0DAFF175001
:10235600DF16ECEF11F01450D96EDA6ADF30E8328E
:10236600E832070B156E010E166E152ABDEF11F039
:10237600D8901636152EBBEF11F01450D96EDA6AC6
:10238600DF50070B020DF350C80FD96EDA6ADECFA5
:1023960017F0DDCF18F017C0D9FF18C0DAFF1650B6
:1023A600DF12ECEF11F01450D96EDA6ADFBCDEEF03
:1023B60011F0E1EF11F0010EE2EF11F0000E000A4C
:1023C600D8B483EF11F0010AD8B4AEEF11F07FEF65
:1023D60011F01A501200010E1B6E1450D8B4F6EF0D
:1023E60011F0F8EF11F008EF12F01450D96EDA6A16
:1023F600DF30E832E832070B166E070E166406EF7A
:1024060012F008EF12F05FEF12F0000E1B6E74EF81
:1024160012F01450D96EDA6ADF30E832E832070B70
:10242600166E010E176E162A1BEF12F0D89017368D
:10243600162E19EF12F01750FF0A186E1450D96EA7
:10244600DA6ADF50070B020DF350BE0FD96EDA6A57
:10245600DECF19F0DDCF1AF019C0D9FF1AC0DAFFA6
:102466001850DF1674EF12F01450D96EDA6ADF30A6
:10247600E832E832070B166E010E176E162A46EF83
:1024860012F0D8901736162E44EF12F01450D96E6B
:10249600DA6ADF50070B020DF350BE0FD96EDA6A07
:1024A600DECF18F0DDCF19F018C0D9FF19C0DAFF5A
:1024B6001750DF1274EF12F01550166E176A175088
:1024C600000AD8B469EF12F008EF12F01650000AAD
:1024D600D8B40CEF12F0010AD8B437EF12F008EFB7
:1024E60012F01B501200010E086E0150D8B47EEF98
:1024F60012F080EF12F090EF12F00150D96EDA6A06
:10250600DF30E832E832070B036E070E03648EEF06
:1025160012F090EF12F0E7EF12F0000E086EFCEFEB
:1025260012F00150D96EDA6ADF30E832E832070B72
:10253600036E010E046E032AA3EF12F0D890043640
:10254600032EA1EF12F00450FF0A056E0150D96E5A
:10255600DA6ADF50070B020DF350BE0FD96EDA6A46
:10256600DECF06F0DDCF07F006C0D9FF07C0DAFFE1
:102576000550DF16FCEF12F00150D96EDA6ADF3033
:10258600E832E832070B036E010E046E032ACEEF23
:1025960012F0D8900436032ECCEF12F00150D96E0B
:1025A600DA6ADF50070B020DF350BE0FD96EDA6AF6
:1025B600DECF05F0DDCF06F005C0D9FF06C0DAFF95
:1025C6000450DF12FCEF12F00250036E046A04504E
:1025D600000AD8B4F1EF12F090EF12F00350000A9F
:1025E600D8B494EF12F0010AD8B4BFEF12F090EF0E
:1025F60012F008501200163417341D6E1D50D8A460
:1026060007EF13F009EF13F013EF13F0000E146E3B
:10261600000E156E000E166E000E176E80EF13F08C
:1026260014C018F015C019F016C01AF017C01BF028
:10263600200E23EF13F0D8901B321A3219321832BB
:10264600E82E1EEF13F018501C6E168EFF0E141691
:10265600FF0E1516FF0E1616000E1716960E1D5EA9
:102666001DBE3AEF13F038EF13F050EF13F01D5084
:10267600800A970FD8B042EF13F044EF13F046EFFD
:1026860013F009EF13F0D8901732163215321432C0
:102696001D3E46EF13F068EF13F01F0E1D6456EF54
:1026A60013F058EF13F060EF13F009EF13F0D89022
:1026B60014361536163617361D061D50D8A466EF85
:1026C60013F068EF13F05AEF13F01C50D8B46EEF06
:1026D60013F070EF13F078EF13F0171E161E151E89
:1026E600146C000E15221622172214C014F015C001
:1026F60015F016C016F017C017F01200000E266E61
:102706002450D8A489EF13F08BEF13F08FEF13F05A
:10271600000E276EF2EF13F024C01CF06BEC16F0DF
:10272600276E24281C6E6BEC16F0276E000E266EA4
:1027360024502624020F1C6E6BEC16F0262A070E78
:102746002664A8EF13F0AAEF13F09BEF13F0340EF4
:10275600256EF20EE82EFED7252EFCD724C01EF0DD
:10276600380E1F6E5EEC15F00D0E256EFC0EE82E73
:10277600FED7252EFCD724C01EF0380E1F6E5EEC49
:1027860015F0640EE82EFED724C01EF0380E1F6E1C
:102796005EEC15F024C01EF0010E1F6E5EEC15F007
:1027A60024C01EF0020E1F6E5EEC15F024C01EF053
:1027B600060E1F6E5EEC15F024C01EF00C0E1F6E8A
:1027C6005EEC15F024C01EF0380E1F6E5EEC15F0A0
:1027D60024C01EF0800E1F6E5EEC15F0276E27508B
:1027E6001200000E246E2250D8A4FCEF13F0FEEF68
:1027F60013F002EF14F0000E256E65EF14F022C000
:102806001CF06BEC16F0256E22281C6E6BEC16F095
:10281600256E000E246E22502424020F1C6E6BECD3
:1028260016F0242A030E24641BEF14F01DEF14F097
:102836000EEF14F0340E236EF20EE82EFED7232E82
:10284600FCD722C01FF0380E206E9AEC16F00D0E43
:10285600236EFC0EE82EFED7232EFCD722C01FF0D7
:10286600380E206E9AEC16F0640EE82EFED722C0C3
:102876001FF0380E206E9AEC16F022C01FF0010EE3
:10288600206E9AEC16F022C01FF0020E206E9AEC13
:1028960016F022C01FF0060E206E9AEC16F022C02B
:1028A6001FF00C0E206E9AEC16F022C01FF0280EB8
:1028B600206E9AEC16F022C01FF0800E206E9AEC65
:1028C60016F0256E255012001450D96EDA6A070EDE
:1028D600D926DFAA71EF14F073EF14F0CCEF14F0E1
:1028E600AB881450D96EDA6A0C0ED926DECF8AF080
:1028F600DDCF8BF01450D96EDA6A0E0ED926DECFF4
:1029060088F0DDCF89F01450D96EDA6A100ED92618
:10291600DECF86F0DDCF87F09D8AF28EF28C1450E2
:10292600D96EDA6A070ED926DFAC9CEF14F09EEF5B
:1029360014F0A1EF14F09D8AAEEF14F01450D96E86
:10294600DA6A070ED926DFBCABEF14F0ADEF14F050
:10295600AEEF14F09D9A1450D96EDA6A070ED92696
:10296600DFAEB8EF14F0BAEF14F0BDEF14F0AB8C95
:10297600CCEF14F01450D96EDA6A070ED926DFBEF2
:10298600C7EF14F0C9EF14F0CCEF14F0AB9CCCEF0A
:1029960014F012001450D96EDA6A050ED926DFAA91
:1029A600D7EF14F0D9EF14F020EF15F0AC8A1450DD
:1029B600D96EDA6A0A0ED926DECF8CF0DDCF8DF01D
:1029C6009D88F28EF28C1450D96EDA6A050ED926DD
:1029D600DFACF0EF14F0F2EF14F0F5EF14F09D8891
:1029E60002EF15F01450D96EDA6A050ED926DFBC4F
:1029F600FFEF14F001EF15F002EF15F09D9814505B
:102A0600D96EDA6A050ED926DFAE0CEF15F00EEF99
:102A160015F011EF15F0AC8C20EF15F01450D96EAF
:102A2600DA6A050ED926DFBE1BEF15F01DEF15F08D
:102A360020EF15F0AC9C20EF15F01200650E016E2C
:102A460069EC17F0610E6518D8A42CEF15F02EEF7F
:102A560015F041EF15F06A0E096ED0EC15F0630E15
:102A6600DAEC17F06B6E030E0D6E8A0E0C6E560EB8
:102A7600E82EFED70C2EFCD70D2EFAD7620E65185F
:102A8600D8A448EF15F04AEF15F05DEF15F06A0E81
:102A9600096E05EC16F0640EDAEC17F06B6E030E99
:102AA6000D6E8A0E0C6E560EE82EFED70C2EFCD737
:102AB6000D2EFAD71200000E236E1E50D8A466EF14
:102AC60015F068EF15F06CEF15F0000E226E97EF1B
:102AD60015F01EC014F0000E156EEEEC11F0000E8F
:102AE600236E1E502324020F146E23C020F01FC035
:102AF60021F0202A81EF15F0D8902132202E7FEF89
:102B060015F02150010B156EEEEC11F0232A070E7D
:102B1600236490EF15F092EF15F074EF15F01EC0D8
:102B26001CF080EC17F0226E225012001F50D8A421
:102B36009FEF15F0A1EF15F0A5EF15F0000E216E31
:102B4600CEEF15F064C022F01F50D96EDA6ADF505E
:102B56000F0B206E22502018F80B2018226E1F50E3
:102B6600D96EDA6ADF38070B206E204620462046EB
:102B760022502018C70B2018226E229C1F50D96E97
:102B8600DA6ADFAE02D0228E01D0229E220E1C6EA1
:102B96006BEC16F0216E215012000950D8A4D6EF26
:102BA60015F0D8EF15F0DAEF15F004EF16F063C064
:102BB6000BF00950D96EDA6ADF500F0B0A6E0B5014
:102BC6000A18F80B0A180B6E0950D96EDA6ADF3844
:102BD600070B0A6E0A460A460A460B500A18C70B26
:102BE6000A180B6E0B9C0950D96EDA6ADFAE02D05A
:102BF6000B8E01D00B9E0B0E016E010E026E76EC53
:102C060012F012000950D8A40BEF16F00DEF16F0D3
:102C16000FEF16F039EF16F062C00BF00950D96EBF
:102C2600DA6ADF500F0B0A6E0B500A18F80B0A18F7
:102C36000B6E0950D96EDA6ADF38070B0A6E0A4640
:102C46000A460A460B500A18C70B0A180B6E0B9C4D
:102C56000950D96EDA6ADFAE02D00B8E01D00B9E18
:102C66000B0E016E000E026E76EC12F01200A40E30
:102C7600F66E2E0EF76E000EF86E00EEB4F010EE45
:102C86002EF00900F5CFEEFFE550E150FAE12A0EED
:102C9600F66E300EF76E000EF86E00EE66F010EE71
:102CA60005F00900F5CFEEFFE550E150FAE100EE40
:102CB60080F0340EEE6AE806FDE100EE57F00F0EE6
:102CC600EE6AE806FDE16C906C920001E7EF17F002
:102CD6001C50D8B471EF16F073EF16F083EF16F0B0
:102CE6001C50D96EDA6ADF30E832E832070B1D6E07
:102CF600070E1D6481EF16F083EF16F087EF16F0CE
:102D0600000E1E6E98EF16F01CC014F065EC11F064
:102D16001E6E1CC014F01C50D96EDA6A000EDFBE9F
:102D2600010E156EEEEC11F01E6E1E5012001F50B5
:102D3600D8A4A0EF16F0A2EF16F0A6EF16F0000E3C
:102D4600216EC6EF16F01FC014F0000E156EEEECE5
:102D560011F0216E1FC01CF020380F0B1D6EC8EC41
:102D660016F0216E1FC01CF093EC17F0216E1FC0E9
:102D76001CF020C01DF0C8EC16F0216E1FC01CF020
:102D860093EC17F0216E215012001C50020F146EA6
:102D96001D50010B156EEEEC11F01C50030F146E56
:102DA600D8901D30010B156EEEEC11F01C50040F7F
:102DB600146E1D40E8423F0B010B156EEEEC11F050
:102DC6001C50050F146E1D38E8461F0B010B156EBF
:102DD600EEEC11F01E6E1E501200800E0001E36F25
:102DE600250EE46F000EE56F000EE66F000EE76F2E
:102DF600E88BE88DE89FEA8BEA8DEA9F000EED6F7F
:102E0600000EEE6F420EEF6F2A0EF06F000EF16F9E
:102E1600000EF26F000EF36F000EF46FE30E566EA7
:102E260017EC17F06B6E1200010E0001E26F5650A0
:102E3600D8A420EF17F022EF17F026EF17F0000EB8
:102E4600E26F36EF17F0AB9E948C948E56C04BF023
:102E56000BEC08F056C014F0CDEC14F056C014F08C
:102E660067EC14F0AB8E0001E251120000018A51AA
:102E76008B11D8B441EF17F043EF17F051EF17F06D
:102E860002D84FEF17F00500FA6E8A51FD6E8B518E
:102E9600FE6EFF6AFA50120051EF17F01200800F13
:102EA600810F820F830F840F890F8A0F8B0F8C0F70
:102EB6008D0F920F930F940F950F960F323A030BC7
:102EC600131B232B333B020A121A222A0150D8A4C1
:102ED6006FEF17F071EF17F073EF17F07FEF17F042
:102EE6009EAA78EF17F07AEF17F071EF17F00150FE
:102EF600D96EDA6AAECFDFFF12001C28146E010EFF
:102F0600156EEEEC11F0030EE82EFED700001C281D
:102F1600146E000E156EEEEC11F01D6E1D501200B3
:102F26001C28146E010E156EEEEC11F0030EE82E41
:102F3600FED700001C28146E000E156EEEEC11F084
:102F46001D6E1D501200016EF2900150D8A4AEEF16
:102F560017F0B0EF17F0B2EF17F0B2EF17F012005C
:102F6600016EF2900150D8A4BBEF17F0BDEF17F039
:102F7600BFEF17F0BFEF17F01200016EF29001508D
:102F8600D8A4C8EF17F0CAEF17F0CCEF17F0CCEFC4
:102F960017F01200016EF2900150D8A4D5EF17F089
:102FA600D7EF17F0D9EF17F0D9EF17F01200016E2F
:102FB600ACA2E0EF17F0E2EF17F0DBEF17F09D8819
:102FC60001C0ADFF010E120012EC18F0F0EC16F085
:102FD6006A0E1F6E99EC15F0EFEF17F007EF00F091
:102FE600DC0E226EF4EC13F0D20E246E81EC13F09C
:102FF6001200A1925850B36E57C0B2FF12009E90B5
:103006005A50CF6E59C0CEFF1200F2945C50D76E64
:103016005BC0D6FF12009E925DC0CCFF1200F3EC9F
:0930260017F01200010101010381
:10303000F0921200F0901200F29212009D9812008D
:0C304000A19012009E9412009E9C1200B1
:020000040030CA
:0E000000FF02091EFF8181FF0FC00FE00F40BD
:00000001FF
