:0400000007EF00F016
:0A0008007C826BED0AF0B8EF12F0F5
:10100000003738392F3435362A3132322D23303DEE
:051010002B2569000022
:101016002E50800B376E2E502E24396E2DAE16EFC5
:1010260008F018EF08F019EF08F039803950D8B4F5
:101036001FEF08F021EF08F036EF08F03928D8A4A2
:1010460027EF08F029EF08F031EF08F0000E2B6EBD
:10105600000E2C6E000E2D6E000E2E6E2D8E000EC6
:101066002E6E3EEF08F0000E2B6E000E2C6E000E5C
:101076002D6E000E2E6E3250800B386E375038189B
:10108600D8B448EF08F04AEF08F04BEF08F0378C79
:1010960032503224386E31AE53EF08F055EF08F077
:1010A60056EF08F038803850D8B45CEF08F05EEFA1
:1010B60008F073EF08F03828D8A464EF08F066EF5C
:1010C60008F06EEF08F0000E2F6E000E306E000E68
:1010D600316E000E326E318E000E326E7BEF08F0EE
:1010E600000E2F6E000E306E000E316E000E326E48
:1010F6003950385CD8B082EF08F084EF08F0ABEFD7
:1011060008F037AC89EF08F08BEF08F08DEF08F0A8
:10111600800E371A39C03AF038C039F03AC038F084
:101126002BC03AF02FC02BF03AC02FF02CC03AF06B
:1011360030C02CF03AC030F02DC03AF031C02DF05E
:101146003AC031F02EC03AF032C02EF03AC032F03A
:10115600000E3A6E395038C033F0346A335E000EF2
:10116600345A34BEC0EF08F0345009E11A0E335C2D
:10117600D8A0C0EF08F0C2EF08F0F9EF08F02B5046
:101186002C102D102E10D8A4CBEF08F0CEEF08F0BF
:10119600010ECFEF08F0000E3A6E000E2B6E000E19
:1011A6002C6E000E2D6E000E2E6E38C039F002EF3A
:1011B60009F03AA0E1EF08F0E3EF08F0E9EF08F0F4
:1011C600D8903A3001093A6EEBEF08F0D8903A32EF
:1011D6002BA0F0EF08F0F2EF08F0F3EF08F03A8EEC
:1011E6002E342E322D322C322B32392A3850395C9D
:1011F600D8A000EF09F002EF09F0DCEF08F037BCE9
:1012060007EF09F009EF09F049EF09F03950D8A4C2
:101216000FEF09F011EF09F01BEF09F0000E2B6E2E
:10122600000E2C6E000E2D6E000E2E6E6AEF0AF06A
:101236002F502B2630502C2231502D2232502E2268
:101246002EA028EF09F02AEF09F0D6EF09F03AA010
:101256002FEF09F031EF09F037EF09F0D8903A3067
:1012660001093A6E39EF09F0D8903A322BA03EEFD9
:1012760009F040EF09F041EF09F03A8E2E342E3294
:101286002D322C322B32392AD6EF09F02F502B5C17
:1012960030502C5831502D582E50800A336E325013
:1012A600800A3358D8B05AEF09F05CEF09F087EF9F
:1012B60009F02B502F5C336E2C503058346E2D5065
:1012C6003158356E2E503258366EFF0E33242B6E43
:1012D600FF0E34202C6EFF0E35202D6EFF0E3620AD
:1012E6002E6E800E371A3A6C3A50D8A47DEF09F06C
:1012F6007FEF09F08FEF09F0010E2B26000E2C224E
:101306002D222E228FEF09F02F502B5E30502C5AB3
:1013160031502D5A32502E5A2B502C102D102E1083
:10132600D8A498EF09F09AEF09F0CFEF09F03A50F8
:10133600D8A4A0EF09F0A2EF09F0CFEF09F0000E54
:101346002B6E000E2C6E000E2D6E000E2E6E6AEFAA
:101356000AF0D8902B362C362D362E363AAEB6EF0E
:1013660009F0B8EF09F0B9EF09F02B803AA0BEEF0B
:1013760009F0C0EF09F0C4EF09F0D8803A36C6EF9D
:1013860009F0D8903A363950D8B4CCEF09F0CEEF00
:1013960009F0CFEF09F039062DAED4EF09F0D6EFFC
:1013A60009F0ACEF09F0000E386E3AAEDDEF09F049
:1013B600DFEF09F0F7EF09F03AC033F07F0E33168E
:1013C600D8B4E8EF09F0EAEF09F0EEEF09F0010E04
:1013D600386EF7EF09F02BA0F3EF09F0F5EF09F0FF
:1013E600F7EF09F0EAEF09F03850D8B4FDEF09F04D
:1013F600FFEF09F02AEF0AF0010E2B26000E2C2231
:101406002D222E222EA00AEF0AF00CEF0AF02AEF68
:101416000AF02BC033F02CC034F02DC035F02EC0AE
:1014260036F03634363235323432333233C02BF07E
:1014360034C02CF035C02DF036C02EF03928D8B483
:1014460027EF0AF029EF0AF02AEF0AF0392A39289D
:10145600D8B430EF0AF032EF0AF03AEF0AF039501A
:10146600D8A438EF0AF03AEF0AF04CEF0AF0000E73
:101476002B6E000E2C6E000E2D6E000E2E6E395049
:10148600D8A448EF0AF04AEF0AF04CEF0AF0000E33
:10149600376E39A051EF0AF053EF0AF056EF0AF013
:1014A6002D8E57EF0AF02D9ED89039302E6E37AE1E
:1014B6005FEF0AF061EF0AF062EF0AF02E8E2BC0A2
:1014C6002BF02CC02CF02DC02DF02EC02EF01200CB
:1014D6000600FACF02F0FBCF03F0F2A875EF0AF090
:1014E60077EF0AF080EF0AF0F2A27CEF0AF07EEFC7
:1014F6000AF080EF0AF073EC14F0F0A685EF0AF01C
:1015060087EF0AF090EF0AF0F0A08CEF0AF08EEF6A
:101516000AF090EF0AF071EC14F0F0A895EF0AF0DB
:1015260097EF0AF0A0EF0AF0F0A29CEF0AF09EEF08
:101536000AF0A0EF0AF06FEC14F0F2A6A5EF0AF09D
:10154600A7EF0AF0C2EF0AF0F2A0ACEF0AF0AEEF96
:101556000AF0C2EF0AF081A8B3EF0AF0B5EF0AF07D
:10156600C2EF0AF07B04D8A4BBEF0AF0BDEF0AF085
:10157600C2EF0AF0000E7B6E000E37EC14F0F2A6F6
:10158600C7EF0AF0C9EF0AF0E4EF0AF0F2A0CEEFD7
:101596000AF0D0EF0AF0E4EF0AF081B8D5EF0AF0CE
:1015A600D7EF0AF0E4EF0AF07B50D8A4DDEF0AF09B
:1015B600DFEF0AF0E4EF0AF0010E7B6E010E37EC66
:1015C60014F0F2A6E9EF0AF0EBEF0AF006EF0BF0E3
:1015D600F2A0F0EF0AF0F2EF0AF006EF0BF081AAA4
:1015E600F7EF0AF0F9EF0AF006EF0BF07A04D8A449
:1015F600FFEF0AF001EF0BF006EF0BF0000E7A6E2C
:10160600000E2AEC14F0F2A60BEF0BF00DEF0BF028
:1016160028EF0BF0F2A012EF0BF014EF0BF028EF0F
:101626000BF081BA19EF0BF01BEF0BF028EF0BF064
:101636007A50D8A421EF0BF023EF0BF028EF0BF034
:10164600010E7A6E010E2AEC14F0F2A62DEF0BF0C5
:101656002FEF0BF04AEF0BF0F2A034EF0BF036EF62
:101666000BF04AEF0BF081AC3BEF0BF03DEF0BF0CC
:101676004AEF0BF07904D8A443EF0BF045EF0BF0DB
:101686004AEF0BF0000E796E000E1DEC14F0F2A678
:101696004FEF0BF051EF0BF06CEF0BF0F2A056EFA3
:1016A6000BF058EF0BF06CEF0BF081BC5DEF0BF01D
:1016B6005FEF0BF06CEF0BF07950D8A465EF0BF0F1
:1016C60067EF0BF06CEF0BF0010E796E010E1DEC5F
:1016D60014F0F2A671EF0BF073EF0BF08EEF0BF038
:1016E600F2A078EF0BF07AEF0BF08EEF0BF081AEF5
:1016F6007FEF0BF081EF0BF08EEF0BF07804D8A4A0
:1017060087EF0BF089EF0BF08EEF0BF0000E786E83
:10171600000E10EC14F0F2A693EF0BF095EF0BF021
:10172600B0EF0BF0F2A09AEF0BF09CEF0BF0B0EFDE
:101736000BF081BEA1EF0BF0A3EF0BF0B0EF0BF0B7
:101746007850D8A4A9EF0BF0ABEF0BF0B0EF0BF08D
:10175600010E786E010E10EC14F09DACB5EF0BF097
:10176600B7EF0BF0C0EF0BF09EACBCEF0BF0BEEF8B
:101776000BF0C0EF0BF07BEC14F0F2AAC5EF0BF008
:10178600C7EF0BF0D0EF0BF0F2A4CCEF0BF0CEEFDF
:101796000BF0D0EF0BF059EC14F09DA0D5EF0BF049
:1017A600D7EF0BF0E0EF0BF09EA0DCEF0BF0DEEFD7
:1017B6000BF0E0EF0BF053EC14F09DA2E5EF0BF00D
:1017C600E7EF0BF0F0EF0BF09EA2ECEF0BF0EEEF75
:1017D6000BF0F0EF0BF05FEC14F0A0A2F5EF0BF0BE
:1017E600F7EF0BF000EF0CF0A1A2FCEF0BF0FEEF11
:1017F6000BF000EF0CF04DEC14F09DA405EF0CF08F
:1018060007EF0CF010EF0CF09EA40CEF0CF00EEFAF
:101816000CF010EF0CF079EC14F0A0A015EF0CF022
:1018260017EF0CF020EF0CF0A1A01CEF0CF01EEF50
:101836000CF020EF0CF077EC14F09DA825EF0CF0DF
:1018460027EF0CF030EF0CF09EA82CEF0CF02EEFEB
:101856000CF030EF0CF075EC14F09DAA35EF0CF09F
:1018660037EF0CF040EF0CF09EAA3CEF0CF03EEF89
:101876000CF040EF0CF07EEC14F09DA645EF0CF05A
:1018860047EF0CF050EF0CF09EA64CEF0CF04EEF2D
:101896000CF050EF0CF07DEC14F09DA655EF0CF01B
:1018A60057EF0CF060EF0CF09EA65CEF0CF05EEFCD
:1018B6000CF060EF0CF0C6EC13F0A0A665EF0CF090
:1018C60067EF0CF070EF0CF0A1A66CEF0CF06EEF6A
:1018D6000CF070EF0CF06DEC14F003C0FBFF02C0CF
:1018E600FAFF7C9211001550800B226E15501524BC
:1018F600296E14AE81EF0CF083EF0CF084EF0CF040
:1019060029802950D8B48AEF0CF08CEF0CF0A1EFA7
:101916000CF02928D8A492EF0CF094EF0CF09CEF71
:101926000CF0000E126E000E136E000E146E000EFA
:10193600156E148E000E156EA9EF0CF0000E126EC9
:10194600000E136E000E146E000E156E1950800BED
:10195600221A195019242A6E18AEB4EF0CF0B6EFFD
:101966000CF0B7EF0CF02A802A50D8B4BDEF0CF07B
:10197600BFEF0CF0D4EF0CF02A28D8A4C5EF0CF07A
:10198600C7EF0CF0CFEF0CF0000E166E000E176EC0
:10199600000E186E000E196E188E000E196EDCEF12
:1019A6000CF0000E166E000E176E000E186E000E6E
:1019B600196E1650171018101910D8A4E5EF0CF070
:1019C600E7EF0CF0FFEF0CF0000E126E000E136E38
:1019D600000E146E000E156E800E14127F0E151278
:1019E6002250151212C012F013C013F014C014F0D6
:1019F60015C015F042EF0EF02950D8A405EF0DF0F2
:101A060007EF0DF011EF0DF0000E126E000E136EC3
:101A1600000E146E000E156E42EF0EF02A5029C00D
:101A26001AF01B6A1A5E000E1B5A7F0E1A24236ECA
:101A3600000E1B20246E12C01EF013C01FF014C02F
:101A460020F015C021F0000E126E000E136E000E6F
:101A5600146E000E156E000E256E000E266E000E1C
:101A6600276E000E286E000E2A6E72EF0DF02A50B9
:101A7600D8B440EF0DF042EF0DF059EF0DF0D890CD
:101A86001E361F3620362136D890123613361436B7
:101A9600153628AE51EF0DF053EF0DF054EF0DF063
:101AA6001280D890253626362736283616501E5CE4
:101AB60017501F581850205819502158D8A066EFB3
:101AC6000DF068EF0DF071EF0DF0288C16501E5ECC
:101AD60017501F5A1850205A1950215A2A2A190EDF
:101AE6002A6478EF0DF07AEF0DF03AEF0DF01E5004
:101AF6001F1020102110D8B483EF0DF085EF0DF0E4
:101B06009DEF0DF025809DEF0DF0D890123613361F
:101B16001436153628AE92EF0DF094EF0DF095EFD2
:101B26000DF01280D890253626362736283623061D
:101B3600D8A0240614AEA2EF0DF0A4EF0DF088EFA6
:101B46000DF0000E2A6E28AEABEF0DF0ADEF0DF0E6
:101B5600D1EF0DF0FF0E25141A6EFF0E26141B6E24
:101B6600FF0E27141C6E7F0E28141D6E1A501B10B4
:101B76001C101D10D8B4C2EF0DF0C4EF0DF0C8EF65
:101B86000DF0010E2A6ED1EF0DF012A0CDEF0DF083
:101B9600CFEF0DF0D1EF0DF0C4EF0DF02A50D8B411
:101BA600D7EF0DF0D9EF0DF0FDEF0DF0010E122677
:101BB600000E13221422152215A0E4EF0DF0E6EF15
:101BC6000DF0FDEF0DF012C01AF013C01BF014C09B
:101BD6001CF015C01DF01D341D321C321B321A328A
:101BE6001AC012F01BC013F01CC014F01DC015F073
:101BF600234A242A24BE08EF0EF0245008E12328A5
:101C0600D8A008EF0EF00AEF0EF015EF0EF0000E5A
:101C1600246E2368000E126E000E136E000E146EF4
:101C2600000E156E24BE22EF0EF0245006E12304AA
:101C3600D8B020EF0EF022EF0EF030EF0EF0000ECF
:101C4600246E000E236E000E126E000E136E000E32
:101C5600146E000E156E000E226E23C029F029A008
:101C660037EF0EF039EF0EF03CEF0EF0148E3DEF2D
:101C76000EF0149ED8902930156EF3EF0CF012007A
:101C86000C6E0C50D8B44AEF0EF04CEF0EF06EEF1F
:101C96000EF007BE53EF0EF051EF0EF06EEF0EF0A2
:101CA60004C008F005C009F006C00AF007C00BF032
:101CB600081E091E0A1E0B1E082A000E09220A22E9
:101CC6000B2208C00EF009C00FF00AC010F00BC0BE
:101CD60011F076EF0EF004C00EF005C00FF006C04E
:101CE60010F007C011F00450051006100710D8A414
:101CF6007FEF0EF081EF0EF08BEF0EF0000E046E0C
:101D0600000E056E000E066E000E076E1CEF0FF03D
:101D1600960E0D6E95EF0EF00D2AD89011321032F8
:101D26000F320E32000E0E14086E000E0F14096EDE
:101D3600000E10140A6EFE0E11140B6E08500910D8
:101D46000A100B10D8A4AAEF0EF0ACEF0EF08FEF2E
:101D56000EF0BAEF0EF00D2A010E0E26000E0F221F
:101D660010221122D890113210320F320E32000E8C
:101D76000E14086E000E0F14096E000E10140A6E73
:101D8600FF0E11140B6E085009100A100B10D8A480
:101D9600CFEF0EF0D1EF0EF0AEEF0EF0D9EF0EF062
:101DA6000D06D8900E360F361036113610BEDEEF01
:101DB6000EF0E0EF0EF0E8EF0EF0020E0D60E6EF2B
:101DC6000EF0E8EF0EF0D3EF0EF00DB0EDEF0EF0E3
:101DD600EFEF0EF0F0EF0EF0109ED8900D320DC022
:101DE60008F0096A0A6A0B6A08C00BF00A6A096AEF
:101DF600086A08500E1209500F120A5010120B50A2
:101E060011120C50D8B40AEF0FF00CEF0FF014EFCC
:101E16000FF007BE13EF0FF011EF0FF014EF0FF0F6
:101E2600118E0EC004F00FC005F010C006F011C0F0
:101E360007F01200010E0001D96FD851D8A426EF81
:101E46000FF028EF0FF02CEF0FF0000ED96FB5EF63
:101E56000FF0C69AD851D96EDA6A060ED926DFA0D7
:101E660037EF0FF039EF0FF03FEF0FF0D8C045F026
:101E760032EC12F075EF0FF0D851D96EDA6A060E11
:101E8600D926DFB049EF0FF04BEF0FF075EF0FF0EB
:101E9600D851D96EDA6A060ED926DFA655EF0FF0AD
:101EA60057EF0FF05AEF0FF0C58E67EF0FF0D851CE
:101EB600D96EDA6A060ED926DFB664EF0FF066EF42
:101EC6000FF067EF0FF0C59EC69EC69CC688D85118
:101ED600D96EDA6A050ED926DF50C86ED8C004F06E
:101EE60003EC14F00001D851D96EDA6A060ED92631
:101EF600DFB280EF0FF082EF0FF085EF0FF0C79E95
:101F060092EF0FF0D851D96EDA6A060ED926DFA203
:101F16008FEF0FF091EF0FF092EF0FF0C78ED851C1
:101F2600D96EDA6A060ED926DFA49CEF0FF09EEF73
:101F36000FF0A1EF0FF0C78CAEEF0FF0D851D96EAE
:101F4600DA6A060ED926DFB4ABEF0FF0ADEF0FF06D
:101F5600AEEF0FF0C79C66EC14F0D8C004F06EEC40
:101F660013F0C68A0001D9511200010E0A6E045000
:101F7600D8B4C0EF0FF0C2EF0FF0D2EF0FF004505D
:101F8600D96EDA6ADF30E832E832070B056E070EE3
:101F96000564D0EF0FF0D2EF0FF029EF10F0000E2E
:101FA6000A6E3FEF10F00450D96EDA6ADF30E8327D
:101FB600E832070B056E010E066E052AE5EF0FF0F7
:101FC600D8900636052EE3EF0FF00650FF0A076E8F
:101FD6000450D96EDA6ADF50070B020DF350940FE6
:101FE600D96EDA6ADECF08F0DDCF09F008C0D9FF76
:101FF60009C0DAFF0750DF163FEF10F00450D96E24
:10200600DA6ADF30E832E832070B056E010E066E3B
:10201600052A10EF10F0D8900636052E0EEF10F0B8
:102026000450D96EDA6ADF50070B020DF350940F95
:10203600D96EDA6ADECF07F0DDCF08F007C0D9FF28
:1020460008C0DAFF0650DF123FEF10F00450D96ED9
:10205600DA6ADFBC31EF10F034EF10F0010E35EF25
:1020660010F0000E000AD8B4D6EF0FF0010AD8B46B
:1020760001EF10F0D2EF0FF00A501200010E0B6EB6
:102086000450D8B449EF10F04BEF10F05BEF10F0AE
:102096000450D96EDA6ADF30E832E832070B066E92
:1020A600070E066459EF10F05BEF10F0B2EF10F078
:1020B600000E0B6EC7EF10F00450D96EDA6ADF30EF
:1020C600E832E832070B066E010E076E062A6EEF3F
:1020D60010F0D8900736062E6CEF10F00750FF0A66
:1020E600086E0450D96EDA6ADF50070B020DF35002
:1020F6008A0FD96EDA6ADECF09F0DDCF0AF009C0A1
:10210600D9FF0AC0DAFF0850DF16C7EF10F00450F7
:10211600D96EDA6ADF30E832E832070B066E010E56
:10212600076E062A99EF10F0D8900736062E97EF1D
:1021360010F00450D96EDA6ADF50070B020DF35027
:102146008A0FD96EDA6ADECF08F0DDCF09F008C053
:10215600D9FF09C0DAFF0750DF12C7EF10F00550AC
:10216600066E076A0750000AD8B4BCEF10F05BEFA2
:1021760010F00650000AD8B45FEF10F0010AD8B488
:102186008AEF10F05BEF10F00B5012003D343E3436
:10219600446E4450D8A4D2EF10F0D4EF10F0DEEF26
:1021A60010F0000E3B6E000E3C6E000E3D6E000EF3
:1021B6003E6E4BEF11F03BC03FF03CC040F03DC0DF
:1021C60041F03EC042F0200EEEEF10F0D8904232C1
:1021D600413240323F32E82EE9EF10F03F50436E75
:1021E6003D8EFF0E3B16FF0E3C16FF0E3D16000EF3
:1021F6003E16960E445E44BE05EF11F003EF11F055
:102206001BEF11F04450800A970FD8B00DEF11F074
:102216000FEF11F011EF11F0D4EF10F0D8903E321D
:102226003D323C323B32443E11EF11F033EF11F0B8
:102236001F0E446421EF11F023EF11F02BEF11F084
:10224600D4EF10F0D8903B363C363D363E36440649
:102256004450D8A431EF11F033EF11F025EF11F00F
:102266004350D8B439EF11F03BEF11F043EF11F0C2
:102276003E1E3D1E3C1E3B6C000E3C223D223E2275
:102286003BC03BF03CC03CF03DC03DF03EC03EF0A4
:102296001200000E166E1450D8A454EF11F056EF2B
:1022A60011F05AEF11F0000E176EBDEF11F014C0C9
:1022B6000CF0E9EC12F0176E14280C6EE9EC12F033
:1022C600176E000E166E14501624020F0C6EE9ECF3
:1022D60012F0162A070E166473EF11F075EF11F05F
:1022E60066EF11F0340E156EF20EE82EFED7152E9F
:1022F600FCD714C00EF0380E0F6E7DEC12F00D0EEA
:10230600156EFC0EE82EFED7152EFCD714C00EF067
:10231600380E0F6E7DEC12F0640EE82EFED714C058
:102326000EF0380E0F6E7DEC12F014C00EF0010E9A
:102336000F6E7DEC12F014C00EF0020E0F6E7DECE7
:1023460012F014C00EF0060E0F6E7DEC12F014C0E3
:102356000EF00C0E0F6E7DEC12F014C00EF0380E5F
:102366000F6E7DEC12F014C00EF0800E0F6E7DEC39
:1023760012F0176E17501200000E146E1250D8A4E9
:10238600C7EF11F0C9EF11F0CDEF11F0000E156E89
:1023960030EF12F012C00CF0E9EC12F0156E1228B4
:1023A6000C6EE9EC12F0156E000E146E1250142429
:1023B600020F0C6EE9EC12F0142A030E1464E6EF19
:1023C60011F0E8EF11F0D9EF11F0340E136EF20EA2
:1023D600E82EFED7132EFCD712C00FF0380E106E63
:1023E60018EC13F00D0E136EFC0EE82EFED7132E0E
:1023F600FCD712C00FF0380E106E18EC13F0640EF6
:10240600E82EFED712C00FF0380E106E18EC13F03F
:1024160012C00FF0010E106E18EC13F012C00FF080
:10242600020E106E18EC13F012C00FF0060E106EAE
:1024360018EC13F012C00FF00C0E106E18EC13F01F
:1024460012C00FF0280E106E18EC13F012C00FF029
:10245600800E106E18EC13F0156E155012004550D4
:10246600D96EDA6A040ED926DF50466EC650461873
:10247600F00B4618C66E000E2F6E000E306E800EE4
:10248600316EBF0E326E4550D96EDA6ADECF04F079
:10249600DECF05F0DECF06F0DECF07F0000E43EC10
:1024A6000EF004C016F005C017F006C018F007C0FD
:1024B60019F0000E126E240E136EF40E146E490EF1
:1024C600156E76EC0CF012C02BF013C02CF014C075
:1024D6002DF015C02EF00BEC08F02BC03BF02CC0F5
:1024E6003CF02DC03DF02EC03EF0C9EC10F03B5044
:1024F600C86E1200000E136E0E50D8A485EF12F0AF
:1025060087EF12F08BEF12F0000E126EB6EF12F09C
:102516000EC004F0000E056E41EC10F0000E136EB6
:102526000E501324020F046E13C010F00FC011F0EA
:10253600102AA0EF12F0D8901132102E9EEF12F052
:102546001150010B056E41EC10F0132A070E1364AF
:10255600AFEF12F0B1EF12F093EF12F00EC00CF0E5
:10256600DDEC13F0126E125012005E0EF66E270EA0
:10257600F76E000EF86E00EE80F010EE2EF00900F9
:10258600F5CFEEFFE550E150FAE1D20EF66E280ED9
:10259600F76E000EF86E00EE78F010EE04F009000B
:1025A600F5CFEEFFE550E150FAE100EEAEF02A0E6F
:1025B600EE6AE806FDE100EE47F0310EEE6AE80647
:1025C600FDE17C907C92000190EF13F00C50D8B4A2
:1025D600EFEF12F0F1EF12F001EF13F00C50D96E9D
:1025E600DA6ADF30E832E832070B0D6E070E0D644B
:1025F600FFEF12F001EF13F005EF13F0000E0E6E71
:1026060016EF13F00CC004F0B8EC0FF00E6E0CC011
:1026160004F00C50D96EDA6A000EDFBE010E056EAC
:1026260041EC10F00E6E0E5012000F50D8A41EEFA3
:1026360013F020EF13F024EF13F0000E116E44EFA9
:1026460013F00FC004F0000E056E41EC10F0116E91
:102656000FC00CF010380F0B0D6E46EC13F0116E18
:102666000FC00CF0F0EC13F0116E0FC00CF010C0A0
:102676000DF046EC13F0116E0FC00CF0F0EC13F0F9
:10268600116E115012000C50020F046E0D50010B0A
:10269600056E41EC10F00C50030F046ED8900D300F
:1026A600010B056E41EC10F00C50040F046E0D404A
:1026B600E8423F0B010B056E41EC10F00C50050F84
:1026C600046E0D38E8461F0B010B056E41EC10F049
:1026D6000E6E0E5012009D86A0869E96A196045000
:1026E600D96EDA6A0B0ED926DECF47F0DDCF48F079
:1026F6000450D96EDA6A090ED926DECFB6F0DDCFE0
:10270600B7F00450D96EDA6A0D0ED926DECFB6F0D0
:10271600DDCFB7F0F28EF28C120063EC14F00001FC
:10272600CE91620ECD6F060ECC6FCE97CE83CE9530
:10273600D60ED36F280ED46F000ED56F000ED66F4F
:10274600000ED16F000ED26FC80ED86F1DEC0FF0C1
:10275600ABEF13F007EF00F0800F810F820F830FAE
:10276600840F890F8A0F8B0F8C0F8D0F920F930F8B
:10277600940F950F960F323A030B131B232B333B03
:10278600020A121A222A9E9647504810D8B4CEEF53
:1027960013F0D0EF13F0DCEF13F002D8DCEF13F0F8
:1027A6000500FA6E4750FD6E4850FE6EFF6AFA50FD
:1027B600120012000C28046E010E056E41EC10F09A
:1027C600030EE82EFED700000C28046E000E056EE0
:1027D60041EC10F00D6E0D5012000C28046E010E27
:1027E600056E41EC10F0030EE82EFED700000C2813
:1027F600046E000E056E41EC10F00D6E0D501200C9
:102806000450D96EDA6A040ED926DF50056EC6501A
:102816000518F00B0518C66E1200016EF2900150F5
:10282600D8A418EF14F01AEF14F01CEF14F01CEFF4
:1028360014F01200016EF2900150D8A425EF14F0A6
:1028460027EF14F029EF14F029EF14F01200016EAF
:10285600F2900150D8A432EF14F034EF14F036EFB2
:1028660014F036EF14F01200016EF2900150D8A465
:102876003FEF14F041EF14F043EF14F043EF14F080
:102886001200A80E126EBFEC11F09E0E146E4CECE8
:1028960011F01200A1924A50B36E49C0B2FF120065
:1028A6009E904C50CF6E4BC0CEFF1200F2944E500D
:1028B600D76E4DC0D6FF12009E9270C0CCFF12009C
:1028C60044EC14F012009486948812000101010170
:1028D6006D2A1200A1961200F0921200F0901200DA
:1028E600F29212009D981200A19012009E9412007E
:0828F6009E9C1200120012006A
:020000040030CA
:0E000000FF02091EFF8181FF0FC00FE00F40BD
:00000001FF
