:0400000007EF00F016
:0A0008007D826BED0AF03BEF13F070
:10100000003738392F3435362A3132322D23303DEE
:051010002B2569000022
:101016002C50800B356E2C502C24376E2BAE16EFD1
:1010260008F018EF08F019EF08F037803750D8B4F9
:101036001FEF08F021EF08F036EF08F03728D8A4A4
:1010460027EF08F029EF08F031EF08F0000E296EBF
:10105600000E2A6E000E2B6E000E2C6E2B8E000ECE
:101066002C6E3EEF08F0000E296E000E2A6E000E62
:101076002B6E000E2C6E3050800B366E35503618A7
:10108600D8B448EF08F04AEF08F04BEF08F0358C7B
:1010960030503024366E2FAE53EF08F055EF08F07F
:1010A60056EF08F036803650D8B45CEF08F05EEFA5
:1010B60008F073EF08F03628D8A464EF08F066EF5E
:1010C60008F06EEF08F0000E2D6E000E2E6E000E6C
:1010D6002F6E000E306E2F8E000E306E7BEF08F0F6
:1010E600000E2D6E000E2E6E000E2F6E000E306E50
:1010F6003750365CD8B082EF08F084EF08F0ABEFDB
:1011060008F035AC89EF08F08BEF08F08DEF08F0AA
:10111600800E351A37C038F036C037F038C036F092
:1011260029C038F02DC029F038C02DF02AC038F07B
:101136002EC02AF038C02EF02BC038F02FC02BF06E
:1011460038C02FF02CC038F030C02CF038C030F04A
:10115600000E386E375036C031F0326A315E000EFE
:10116600325A32BEC0EF08F0325009E11A0E315C35
:10117600D8A0C0EF08F0C2EF08F0F9EF08F0295048
:101186002A102B102C10D8A4CBEF08F0CEEF08F0C5
:10119600010ECFEF08F0000E386E000E296E000E1D
:1011A6002A6E000E2B6E000E2C6E36C037F002EF44
:1011B60009F038A0E1EF08F0E3EF08F0E9EF08F0F6
:1011C600D89038300109386EEBEF08F0D8903832F5
:1011D60029A0F0EF08F0F2EF08F0F3EF08F0388EF0
:1011E6002C342C322B322A322932372A3650375CAD
:1011F600D8A000EF09F002EF09F0DCEF08F035BCEB
:1012060007EF09F009EF09F049EF09F03750D8A4C4
:101216000FEF09F011EF09F01BEF09F0000E296E30
:10122600000E2A6E000E2B6E000E2C6E6AEF0AF070
:101236002D5029262E502A222F502B2230502C2278
:101246002CA028EF09F02AEF09F0D6EF09F038A014
:101256002FEF09F031EF09F037EF09F0D890383069
:101266000109386E39EF09F0D890383229A03EEFDF
:1012760009F040EF09F041EF09F0388E2C342C329A
:101286002B322A322932372AD6EF09F02D50295C23
:101296002E502A582F502B582C50800A316E305021
:1012A600800A3158D8B05AEF09F05CEF09F087EFA1
:1012B60009F029502D5C316E2A502E58326E2B5073
:1012C6002F58336E2C503058346EFF0E3124296E51
:1012D600FF0E32202A6EFF0E33202B6EFF0E3420B7
:1012E6002C6E800E351A386C3850D8A47DEF09F074
:1012F6007FEF09F08FEF09F0010E2926000E2A2252
:101306002B222C228FEF09F02D50295E2E502A5ABF
:101316002F502B5A30502C5A29502A102B102C1093
:10132600D8A498EF09F09AEF09F0CFEF09F03850FA
:10133600D8A4A0EF09F0A2EF09F0CFEF09F0000E54
:10134600296E000E2A6E000E2B6E000E2C6E6AEFB2
:101356000AF0D89029362A362B362C3638AEB6EF18
:1013660009F0B8EF09F0B9EF09F0298038A0BEEF0F
:1013760009F0C0EF09F0C4EF09F0D8803836C6EF9F
:1013860009F0D89038363750D8B4CCEF09F0CEEF04
:1013960009F0CFEF09F037062BAED4EF09F0D6EF00
:1013A60009F0ACEF09F0000E366E38AEDDEF09F04D
:1013B600DFEF09F0F7EF09F038C031F07F0E311694
:1013C600D8B4E8EF09F0EAEF09F0EEEF09F0010E04
:1013D600366EF7EF09F029A0F3EF09F0F5EF09F003
:1013E600F7EF09F0EAEF09F03650D8B4FDEF09F04F
:1013F600FFEF09F02AEF0AF0010E2926000E2A2235
:101406002B222C222CA00AEF0AF00CEF0AF02AEF6E
:101416000AF029C031F02AC032F02BC033F02CC0BC
:1014260034F03434343233323232313231C029F08E
:1014360032C02AF033C02BF034C02CF03728D8B491
:1014460027EF0AF029EF0AF02AEF0AF0372A3728A1
:10145600D8B430EF0AF032EF0AF03AEF0AF037501C
:10146600D8A438EF0AF03AEF0AF04CEF0AF0000E73
:10147600296E000E2A6E000E2B6E000E2C6E375053
:10148600D8A448EF0AF04AEF0AF04CEF0AF0000E33
:10149600356E37A051EF0AF053EF0AF056EF0AF017
:1014A6002B8E57EF0AF02B9ED89037302C6E35AE28
:1014B6005FEF0AF061EF0AF062EF0AF02C8E29C0A6
:1014C60029F02AC02AF02BC02BF02CC02CF01200D9
:1014D6000600F2A871EF0AF073EF0AF07CEF0AF04B
:1014E600F2A278EF0AF07AEF0AF07CEF0AF0FCEC51
:1014F60014F0F0A681EF0AF083EF0AF08CEF0AF001
:10150600F0A088EF0AF08AEF0AF08CEF0AF0FAEC06
:1015160014F0F0A891EF0AF093EF0AF09CEF0AF0AE
:10152600F0A298EF0AF09AEF0AF09CEF0AF0F8ECB6
:1015360014F0F2A6A1EF0AF0A3EF0AF0BEEF0AF04C
:10154600F2A0A8EF0AF0AAEF0AF0BEEF0AF081A80F
:10155600AFEF0AF0B1EF0AF0BEEF0AF07B04D8A4B1
:10156600B7EF0AF0B9EF0AF0BEEF0AF0000E7B6E95
:10157600000EC4EC14F0F2A6C3EF0AF0C5EF0AF0B1
:10158600E0EF0AF0F2A0CAEF0AF0CCEF0AF0E0EFC3
:101596000AF081B8D1EF0AF0D3EF0AF0E0EF0AF0D3
:1015A6007B50D8A4D9EF0AF0DBEF0AF0E0EF0AF09F
:1015B600010E7B6E010EC4EC14F0F2A6E5EF0AF004
:1015C600E7EF0AF002EF0BF0F2A0ECEF0AF0EEEF15
:1015D6000AF002EF0BF081AAF3EF0AF0F5EF0AF03A
:1015E60002EF0BF07A04D8A4FBEF0AF0FDEF0AF045
:1015F60002EF0BF0000E7A6E000EB7EC14F0F2A6B6
:1016060007EF0BF009EF0BF024EF0BF0F2A00EEF53
:101616000BF010EF0BF024EF0BF081BA15EF0BF087
:1016260017EF0BF024EF0BF07A50D8A41DEF0BF058
:101636001FEF0BF024EF0BF0010E7A6E010EB7ECE4
:1016460014F0F2A629EF0BF02BEF0BF046EF0BF0A0
:10165600F2A030EF0BF032EF0BF046EF0BF081AC5F
:1016660037EF0BF039EF0BF046EF0BF07904D8A407
:101676003FEF0BF041EF0BF046EF0BF0000E796EEB
:10168600000EAAEC14F0F2A64BEF0BF04DEF0BF0A8
:1016960068EF0BF0F2A052EF0BF054EF0BF068EF8F
:1016A6000BF081BC59EF0BF05BEF0BF068EF0BF022
:1016B6007950D8A461EF0BF063EF0BF068EF0BF0F5
:1016C600010E796E010EAAEC14F0F2A66DEF0BF086
:1016D6006FEF0BF08AEF0BF0F2A074EF0BF076EFE2
:1016E6000BF08AEF0BF081AE7BEF0BF07DEF0BF08A
:1016F6008AEF0BF07804D8A483EF0BF085EF0BF09C
:101706008AEF0BF0000E786E000E9DEC14F0F2A638
:101716008FEF0BF091EF0BF0ACEF0BF0F2A096EF22
:101726000BF098EF0BF0ACEF0BF081BE9DEF0BF0DA
:101736009FEF0BF0ACEF0BF07850D8A4A5EF0BF0B1
:10174600A7EF0BF0ACEF0BF0010E786E010E9DECDF
:1017560014F09DACB1EF0BF0B3EF0BF0BCEF0BF058
:101766009EACB8EF0BF0BAEF0BF0BCEF0BF004EC4D
:1017760015F0F2AAC1EF0BF0C3EF0BF0CCEF0BF0B4
:10178600F2A4C8EF0BF0CAEF0BF0CCEF0BF0E6ECCF
:1017960014F09DA0D1EF0BF0D3EF0BF0DCEF0BF0C4
:1017A6009EA0D8EF0BF0DAEF0BF0DCEF0BF0E0ECDD
:1017B60014F09DA2E1EF0BF0E3EF0BF0ECEF0BF072
:1017C6009EA2E8EF0BF0EAEF0BF0ECEF0BF0ECEC7F
:1017D60014F0A0A2F1EF0BF0F3EF0BF0FCEF0BF01F
:1017E600A1A2F8EF0BF0FAEF0BF0FCEF0BF0DAEC3E
:1017F60014F09DA401EF0CF003EF0CF00CEF0CF0CD
:101806009EA408EF0CF00AEF0CF00CEF0CF002ECC3
:1018160015F0A0A011EF0CF013EF0CF01CEF0CF07C
:10182600A1A018EF0CF01AEF0CF01CEF0CF000EC76
:1018360015F09DA821EF0CF023EF0CF02CEF0CF027
:101846009EA828EF0CF02AEF0CF02CEF0CF0FEEC23
:1018560014F09DAA31EF0CF033EF0CF03CEF0CF0D6
:101866009EAA38EF0CF03AEF0CF03CEF0CF009ECC6
:1018760015F09DA641EF0CF043EF0CF04CEF0CF089
:101886009EA648EF0CF04AEF0CF04CEF0CF006EC7D
:1018960015F09DA651EF0CF053EF0CF05CEF0CF039
:1018A6009EA658EF0CF05AEF0CF05CEF0CF007EC2C
:1018B60015F0A0A661EF0CF063EF0CF06CEF0CF0E6
:1018C600A1A668EF0CF06AEF0CF06CEF0CF008ECD8
:1018D60015F07D9211001350800B206E13501324C7
:1018E600276E12AE79EF0CF07BEF0CF07CEF0CF06C
:1018F60027802750D8B482EF0CF084EF0CF099EFD4
:101906000CF02728D8A48AEF0CF08CEF0CF094EF9B
:101916000CF0000E106E000E116E000E126E000E10
:10192600136E128E000E136EA1EF0CF0000E106EE9
:10193600000E116E000E126E000E136E1750800B05
:10194600201A17501724286E16AEACEF0CF0AEEF27
:101956000CF0AFEF0CF028802850D8B4B5EF0CF09F
:10196600B7EF0CF0CCEF0CF02828D8A4BDEF0CF0A4
:10197600BFEF0CF0C7EF0CF0000E146E000E156EE4
:10198600000E166E000E176E168E000E176ED4EF32
:101996000CF0000E146E000E156E000E166E000E84
:1019A600176E1450151016101710D8A4DDEF0CF092
:1019B600DFEF0CF0F7EF0CF0000E106E000E116E5C
:1019C600000E126E000E136E800E12127F0E131290
:1019D6002050131210C010F011C011F012C012F0F6
:1019E60013C013F03AEF0EF02750D8A4FDEF0CF019
:1019F600FFEF0CF009EF0DF0000E106E000E116EE9
:101A0600000E126E000E136E3AEF0EF0285027C02D
:101A160018F0196A185E000E195A7F0E1824216EE6
:101A2600000E1920226E10C01CF011C01DF012C04D
:101A36001EF013C01FF0000E106E000E116E000E89
:101A4600126E000E136E000E236E000E246E000E34
:101A5600256E000E266E000E286E6AEF0DF02850D9
:101A6600D8B438EF0DF03AEF0DF051EF0DF0D890F5
:101A76001C361D361E361F36D890103611361236D5
:101A8600133626AE49EF0DF04BEF0DF04CEF0DF08F
:101A96001080D890233624362536263614501C5C02
:101AA60015501D5816501E5817501F58D8A05EEFD7
:101AB6000DF060EF0DF069EF0DF0268C14501C5EF2
:101AC60015501D5A16501E5A17501F5A282A190EFD
:101AD600286470EF0DF072EF0DF032EF0DF01C5030
:101AE6001D101E101F10D8B47BEF0DF07DEF0DF00A
:101AF60095EF0DF0238095EF0DF0D8901036113646
:101B06001236133626AE8AEF0DF08CEF0DF08DEF00
:101B16000DF01080D8902336243625362636210639
:101B2600D8A0220612AE9AEF0DF09CEF0DF080EFD2
:101B36000DF0000E286E26AEA3EF0DF0A5EF0DF00A
:101B4600C9EF0DF0FF0E2314186EFF0E2414196E44
:101B5600FF0E25141A6E7F0E26141B6E18501910D0
:101B66001A101B10D8B4BAEF0DF0BCEF0DF0C0EF91
:101B76000DF0010E286EC9EF0DF010A0C5EF0DF0A7
:101B8600C7EF0DF0C9EF0DF0BCEF0DF02850D8B43B
:101B9600CFEF0DF0D1EF0DF0F5EF0DF0010E1026A1
:101BA600000E11221222132213A0DCEF0DF0DEEF3D
:101BB6000DF0F5EF0DF010C018F011C019F012C0BD
:101BC6001AF013C01BF01B341B321A3219321832AA
:101BD60018C010F019C011F01AC012F01BC013F093
:101BE600214A222A22BE00EF0EF0225008E12128C7
:101BF600D8A000EF0EF002EF0EF00DEF0EF0000E83
:101C0600226E2168000E106E000E116E000E126E0E
:101C1600000E136E22BE1AEF0EF0225006E12104CA
:101C2600D8B018EF0EF01AEF0EF028EF0EF0000EF7
:101C3600226E000E216E000E106E000E116E000E4A
:101C4600126E000E136E000E206E21C027F027A024
:101C56002FEF0EF031EF0EF034EF0EF0128E35EF5F
:101C66000EF0129ED8902730136EEBEF0CF0120098
:101C76000A6E0A50D8B442EF0EF044EF0EF066EF4B
:101C86000EF005BE4BEF0EF049EF0EF066EF0EF0CC
:101C960002C006F003C007F004C008F005C009F052
:101CA600061E071E081E091E062A000E0722082207
:101CB600092206C00CF007C00DF008C00EF009C0DE
:101CC6000FF06EEF0EF002C00CF003C00DF004C072
:101CD6000EF005C00FF00250031004100510D8A432
:101CE60077EF0EF079EF0EF083EF0EF0000E026E36
:101CF600000E036E000E046E000E056E14EF0FF05C
:101D0600960E0B6E8DEF0EF00B2AD8900F320E3218
:101D16000D320C32000E0C14066E000E0D14076EFA
:101D2600000E0E14086EFE0E0F14096E06500710F4
:101D360008100910D8A4A2EF0EF0A4EF0EF087EF5A
:101D46000EF0B2EF0EF00B2A010E0C26000E0D223D
:101D56000E220F22D8900F320E320D320C32000EA8
:101D66000C14066E000E0D14076E000E0E14086E8F
:101D7600FF0E0F14096E0650071008100910D8A49C
:101D8600C7EF0EF0C9EF0EF0A6EF0EF0D1EF0EF092
:101D96000B06D8900C360D360E360F360EBED6EF25
:101DA6000EF0D8EF0EF0E0EF0EF0020E0B60DEEF55
:101DB6000EF0E0EF0EF0CBEF0EF00BB0E5EF0EF00D
:101DC600E7EF0EF0E8EF0EF00E9ED8900B320BC048
:101DD60006F0076A086A096A06C009F0086A076A0F
:101DE600066A06500C1207500D1208500E120950C2
:101DF6000F120A50D8B402EF0FF004EF0FF00CEFF9
:101E06000FF005BE0BEF0FF009EF0FF00CEF0FF020
:101E16000F8E0CC002F00DC003F00EC004F00FC010
:101E260005F01200010E466E4550D8A41DEF0FF0C6
:101E36001FEF0FF023EF0FF0000E466EA7EF0FF027
:101E4600C69A4550D96EDA6A060ED926DFA02EEF5D
:101E56000FF030EF0FF036EF0FF045C043F07FEC98
:101E660012F06CEF0FF04550D96EDA6A060ED926DD
:101E7600DFB040EF0FF042EF0FF06CEF0FF0455080
:101E8600D96EDA6A060ED926DFA64CEF0FF04EEFB2
:101E96000FF051EF0FF0C58E5EEF0FF04550D96E83
:101EA600DA6A060ED926DFB65BEF0FF05DEF0FF0AC
:101EB6005EEF0FF0C59EC69EC69CC6884550D96E7D
:101EC600DA6A050ED926DF50C86E45C002F090ECDE
:101ED60014F04550D96EDA6A060ED926DFB276EFCF
:101EE6000FF078EF0FF07BEF0FF0C79E88EF0FF043
:101EF6004550D96EDA6A060ED926DFA285EF0FF0B5
:101F060087EF0FF088EF0FF0C78E4550D96EDA6A6B
:101F1600060ED926DFA492EF0FF094EF0FF097EF9D
:101F26000FF0C78CA4EF0FF04550D96EDA6A060E93
:101F3600D926DFB4A1EF0FF0A3EF0FF0A4EF0FF057
:101F4600C79CF3EC14F0C68A46501200010E086EC8
:101F56000250D8B4B1EF0FF0B3EF0FF0C3EF0FF0AC
:101F66000250D96EDA6ADF30E832E832070B036EC8
:101F7600070E0364C1EF0FF0C3EF0FF01AEF10F076
:101F8600000E086E30EF10F00250D96EDA6ADF30BC
:101F9600E832E832070B036E010E046E032AD6EF11
:101FA6000FF0D8900436032ED4EF0FF00450FF0A3A
:101FB600056E0250D96EDA6ADF50070B020DF35038
:101FC600940FD96EDA6ADECF06F0DDCF07F006C0D1
:101FD600D9FF07C0DAFF0550DF1630EF10F00250C8
:101FE600D96EDA6ADF30E832E832070B036E010E8B
:101FF600046E032A01EF10F0D8900436032EFFEF8B
:102006000FF00250D96EDA6ADF50070B020DF3505B
:10201600940FD96EDA6ADECF05F0DDCF06F005C083
:10202600D9FF06C0DAFF0450DF1230EF10F002507D
:10203600D96EDA6ADFBC22EF10F025EF10F0010E40
:1020460026EF10F0000E000AD8B4C7EF0FF0010A11
:10205600D8B4F2EF0FF0C3EF0FF008501200010EE4
:10206600096E0250D8B43AEF10F03CEF10F04CEF86
:1020760010F00250D96EDA6ADF30E832E832070B28
:10208600046E070E04644AEF10F04CEF10F0A3EF55
:1020960010F0000E096EB8EF10F00250D96EDA6A31
:1020A600DF30E832E832070B046E010E056E042AB3
:1020B6005FEF10F0D8900536042E5DEF10F0055056
:1020C600FF0A066E0250D96EDA6ADF50070B020D60
:1020D600F3508A0FD96EDA6ADECF07F0DDCF08F04B
:1020E60007C0D9FF08C0DAFF0650DF16B8EF10F0B8
:1020F6000250D96EDA6ADF30E832E832070B046E36
:10210600010E056E042A8AEF10F0D8900536042ECB
:1021160088EF10F00250D96EDA6ADF50070B020D15
:10212600F3508A0FD96EDA6ADECF06F0DDCF07F0FC
:1021360006C0D9FF07C0DAFF0550DF12B8EF10F06E
:102146000350046E056A0550000AD8B4ADEF10F0CE
:102156004CEF10F00450000AD8B450EF10F0010A0A
:10216600D8B47BEF10F04CEF10F0095012003B345E
:102176003C34426E4250D8A4C3EF10F0C5EF10F0C5
:10218600CFEF10F0000E396E000E3A6E000E3B6E69
:10219600000E3C6E3CEF11F039C03DF03AC03EF007
:1021A6003BC03FF03CC040F0200EDFEF10F0D8906F
:1021B60040323F323E323D32E82EDAEF10F03D50EB
:1021C600416E3B8EFF0E3916FF0E3A16FF0E3B167A
:1021D600000E3C16960E425E42BEF6EF10F0F4EF8D
:1021E60010F00CEF11F04250800A970FD8B0FEEFB6
:1021F60010F000EF11F002EF11F0C5EF10F0D890DB
:102206003C323B323A323932423E02EF11F024EF91
:1022160011F01F0E426412EF11F014EF11F01CEFD3
:1022260011F0C5EF10F0D89039363A363B363C36C9
:1022360042064250D8A422EF11F024EF11F016EF17
:1022460011F04150D8B42AEF11F02CEF11F034EF11
:1022560011F03C1E3B1E3A1E396C000E3A223B2200
:102266003C2239C039F03AC03AF03BC03BF03CC0A2
:102276003CF01200000E146E1250D8A445EF11F077
:1022860047EF11F04BEF11F0000E156EAEEF11F0A7
:1022960012C00AF06CEC13F0156E12280A6E6CEC84
:1022A60013F0156E000E146E12501424020F0A6EEF
:1022B6006CEC13F0142A070E146464EF11F066EF49
:1022C60011F057EF11F0340E136EF20EE82EFED712
:1022D600132EFCD712C00CF0380E0D6ECAEC12F09D
:1022E6000D0E136EFC0EE82EFED7132EFCD712C071
:1022F6000CF0380E0D6ECAEC12F0640EE82EFED706
:1023060012C00CF0380E0D6ECAEC12F012C00CF0B2
:10231600010E0D6ECAEC12F012C00CF0020E0D6E1C
:10232600CAEC12F012C00CF0060E0D6ECAEC12F0DA
:1023360012C00CF00C0E0D6ECAEC12F012C00CF0AE
:10234600380E0D6ECAEC12F012C00CF0800E0D6E37
:10235600CAEC12F0156E15501200000E126E1050D7
:10236600D8A4B8EF11F0BAEF11F0BEEF11F0000EDD
:10237600136E21EF12F010C00AF06CEC13F0136E1E
:1023860010280A6E6CEC13F0136E000E126E1050CD
:102396001224020F0A6E6CEC13F0122A030E12645A
:1023A600D7EF11F0D9EF11F0CAEF11F0340E116E1C
:1023B600F20EE82EFED7112EFCD710C00DF0380E07
:1023C6000E6E9BEC13F00D0E116EFC0EE82EFED772
:1023D600112EFCD710C00DF0380E0E6E9BEC13F0CC
:1023E600640EE82EFED710C00DF0380E0E6E9BEC74
:1023F60013F010C00DF0010E0E6E9BEC13F010C022
:102406000DF0020E0E6E9BEC13F010C00DF0060ED2
:102416000E6E9BEC13F010C00DF00C0E0E6E9BECC6
:1024260013F010C00DF0280E0E6E9BEC13F010C0CA
:102436000DF0800E0E6E9BEC13F0136E135012000F
:10244600F0EC14F0A00E706E860E716E010E726EB8
:10245600000E736E7680080E746E76827694700E19
:10246600456E15EC0FF0610E066E600E35EC14F03D
:10247600030E0001C96F080EC86F770EE82EFED74F
:10248600C82FFCD7C92FFAD7620E066E620E35EC3E
:1024960014F0030E0001C96F080EC86F770EE82E00
:1024A600FED7C82FFCD7C92FFAD7630E066E600E6B
:1024B60035EC14F0030E0001C96F080EC86F770ED5
:1024C600E82EFED7C82FFCD7C92FFAD7640E066EA2
:1024D600620E35EC14F0030E0001C96F080EC86FCA
:1024E600770EE82EFED7C82FFCD7C92FFAD7672A52
:1024F60036EF12F007EF00F04350D96EDA6A040E99
:10250600D926DF50446EC6504418F00B4418C66EE8
:10251600000E2D6E000E2E6E800E2F6EBF0E306ECC
:102526004350D96EDA6ADECF02F0DECF03F0DECF9B
:1025360004F0DECF05F0000E3BEC0EF002C014F006
:1025460003C015F004C016F005C017F0000E106E9B
:10255600240E116EF40E126E490E136E6EEC0CF014
:1025660010C029F011C02AF012C02BF013C02CF0B5
:102576000BEC08F029C039F02AC03AF02BC03BF02A
:102586002CC03CF0BAEC10F03950C86E1200000EA8
:10259600116E0C50D8A4D2EF12F0D4EF12F0D8EF8F
:1025A60012F0000E106E03EF13F00CC002F0000ED6
:1025B600036E32EC10F0000E116E0C501124020F57
:1025C600026E11C00EF00DC00FF00E2AEDEF12F0E4
:1025D600D8900F320E2EEBEF12F00F50010B036E58
:1025E60032EC10F0112A070E1164FCEF12F0FEEF28
:1025F60012F0E0EF12F00CC00AF06AEC14F0106E64
:1026060010501200010E056E0250D8B40DEF13F0F3
:102616000FEF13F017EF13F00450D8A415EF13F0D3
:1026260017EF13F01BEF13F0000E056E39EF13F0E2
:1026360003C0C9FFC7B022EF13F024EF13F01DEF5C
:1026460013F09E96C5BC2AEF13F02CEF13F034EF6F
:1026560013F00450D96EDA6ADF6A010E056E39EF9F
:1026660013F00450D96EDA6A010EDF6E05501200BF
:10267600A60EF66E280EF76E000EF86E00EE80F0CF
:1026860010EE2EF00900F5CFEEFFE550E150FAE12D
:10269600EC0EF66E290EF76E000EF86E00EE78F070
:1026A60010EE04F00900F5CFEEFFE550E150FAE137
:1026B60000EEAEF01A0EEE6AE806FDE100EE47F017
:1026C600310EEE6AE806FDE17D907D92000123EF72
:1026D60012F00A50D8B472EF13F074EF13F084EFCF
:1026E60013F00A50D96EDA6ADF30E832E832070BA7
:1026F6000B6E070E0B6482EF13F084EF13F088EF76
:1027060013F0000E0C6E99EF13F00AC002F0A9EC5C
:102716000FF00C6E0AC002F00A50D96EDA6A000E8B
:10272600DFBE010E036E32EC10F00C6E0C50120080
:102736000D50D8A4A1EF13F0A3EF13F0A7EF13F0F9
:10274600000E0F6EC7EF13F00DC002F0000E036E01
:1027560032EC10F00F6E0DC00AF00E380F0B0B6E38
:10276600C9EC13F00F6E0DC00AF07DEC14F00F6E7D
:102776000DC00AF00EC00BF0C9EC13F00F6E0DC0C1
:102786000AF07DEC14F00F6E0F5012000A50020F83
:10279600026E0B50010B036E32EC10F00A50030F61
:1027A600026ED8900B30010B036E32EC10F00A501B
:1027B600040F026E0B40E8423F0B010B036E32EC36
:1027C60010F00A50050F026E0B38E8461F0B010B7E
:1027D600036E32EC10F00C6E0C501200010E036EFC
:1027E6000250D8A4F9EF13F0FBEF13F0FFEF13F04C
:1027F600000E036E11EF14F0C584C5B405EF14F096
:1028060007EF14F000EF14F09E96C7A80DEF14F032
:102816000FEF14F011EF14F0010E036E03501200C7
:10282600010E036E0250D8A41BEF14F01DEF14F036
:1028360021EF14F0000E036E33EF14F0C580C5B01F
:1028460027EF14F029EF14F022EF14F09E96C7A696
:102856002FEF14F031EF14F033EF14F0010E036E86
:1028660003501200076E700E026E13EC14F07C6EAD
:10287600700E026E07C003F0770E046E05EC13F0BF
:102886007C6E700E026E06C003F0770E046E05ECC9
:1028960013F07C6E700E026EF1EC13F07C6E12007B
:1028A600800F810F820F830F840F890F8A0F8B0F82
:1028B6008C0F8D0F920F930F940F950F960F323A40
:1028C600030B131B232B333B020A121A222A0A2854
:1028D600026E010E036E32EC10F0030EE82EFED7E8
:1028E60000000A28026E000E036E32EC10F00B6E2A
:1028F6000B5012000A28026E010E036E32EC10F025
:10290600030EE82EFED700000A28026E000E036EA4
:1029160032EC10F00B6E0B5012000250D96EDA6AD0
:10292600040ED926DF50036EC6500318F00B0318A9
:10293600C66E1200016EF2900150D8A4A5EF14F0F5
:10294600A7EF14F0A9EF14F0A9EF14F01200016E2E
:10295600F2900150D8A4B2EF14F0B4EF14F0B6EF31
:1029660014F0B6EF14F01200016EF2900150D8A4E4
:10297600BFEF14F0C1EF14F0C3EF14F0C3EF14F07F
:102986001200016EF2900150D8A4CCEF14F0CEEFF5
:1029960014F0D0EF14F0D0EF14F01200A80E106E61
:1029A600B0EC11F09E0E126E3DEC11F01200A192E9
:1029B6004850B36E47C0B2FF12009E904A50CF6E89
:1029C60049C0CEFF1200F2944C50D76E4BC0D6FFD2
:1029D60012009E9268C0CCFF1200D1EC14F01200D7
:1029E60094869488120001010101F0921200F09081
:1029F6001200F29212009D981200A19012009E946D
:0E2A060012009E9C120012001200120012001C
:020000040030CA
:0E000000FF02091EFF8181FF0FC00FE00F40BD
:00000001FF
