:0400000007EF00F016
:0A0008007E82A8ED0EF097EF15F0D0
:10100000003738392F3435362A3132322D23303DEE
:101010002B4C4544204F66660D004C4544204F4EF6
:101020000D0025690000000E3C6E000E3D6E000EA6
:101030003E6E000E3F6E31EF0AF0AC98AC94B8965D
:101040003950D96EDA6ADECF02F0DECF03F0DECFA0
:1010500004F0DECF05F0000E5BEC10F002C014F0DF
:1010600003C015F004C016F005C017F0000E106E96
:10107000240E116EF40E126E4A0E136EDBEC0CF0A1
:1010800010C040F011C041F012C042F013C043F054
:10109000000E146E000E156E800E166E420E176E48
:1010A00040C010F041C011F042C012F043C013F034
:1010B000DBEC0CF010C029F011C02AF012C02BF0AC
:1010C00013C02CF0000E2D6E000E2E6E800E2F6EB3
:1010D000BF0E306E7BEC0AF029C03CF02AC03DF018
:1010E0002BC03EF02CC03FF05BEF0AF0AC98AC8414
:1010F000B8963950D96EDA6ADECF02F0DECF03F04F
:10110000DECF04F0DECF05F0000E5BEC10F002C085
:1011100014F003C015F004C016F005C017F0000E5F
:10112000106E240E116EF40E126E4A0E136EDBEC6E
:101130000CF010C040F011C041F012C042F013C0DA
:1011400043F0000E146E000E156E800E166E410EEA
:10115000176E40C010F041C011F042C012F043C001
:1011600013F0DBEC0CF010C029F011C02AF012C013
:101170002BF013C02CF0000E2D6E000E2E6E800E84
:101180002F6EBF0E306E7BEC0AF029C03CF02AC0F7
:101190003DF02BC03EF02CC03FF05BEF0AF0AC9866
:1011A000AC94B8863950D96EDA6ADECF02F0DECF61
:1011B00003F0DECF04F0DECF05F0000E5BEC10F0A4
:1011C00002C014F003C015F004C016F005C017F0FB
:1011D000000E106E240E116EF40E126E4A0E136E77
:1011E000DBEC0CF010C040F011C041F012C042F036
:1011F00013C043F0000E146E000E156E800E166EB6
:10120000410E176E40C010F041C011F042C012F004
:1012100043C013F0DBEC0CF010C029F011C02AF031
:1012200012C02BF013C02CF0000E2D6E000E2E6E8F
:10123000800E2F6EBF0E306E7BEC0AF029C03CF0A2
:101240002AC03DF02BC03EF02CC03FF05BEF0AF00F
:10125000AC98AC84B8863950D96EDA6ADECF02F029
:10126000DECF03F0DECF04F0DECF05F0000E5BEC46
:1012700010F002C014F003C015F004C016F005C051
:1012800017F0000E106E240E116EF40E126E4A0E40
:10129000136EDBEC0CF010C040F011C041F012C036
:1012A00042F013C043F0000E146E000E156E800E57
:1012B000166E400E176E40C010F041C011F042C0D3
:1012C00012F043C013F0DBEC0CF010C029F011C099
:1012D0002AF012C02BF013C02CF0000E2D6E000E61
:1012E0002E6E800E2F6EBF0E306E7BEC0AF029C082
:1012F0003CF02AC03DF02BC03EF02CC03FF05BEF2D
:101300000AF0AC88B8963950D96EDA6ADECF02F0AE
:10131000DECF03F0DECF04F0DECF05F0000E5BEC95
:1013200010F002C014F003C015F004C016F005C0A0
:1013300017F0000E106E240E116EF40E126E4A0E8F
:10134000136EDBEC0CF010C040F011C041F012C085
:1013500042F013C043F0000E146E000E156E800EA6
:10136000166E400E176E40C010F041C011F042C022
:1013700012F043C013F0DBEC0CF010C029F011C0E8
:101380002AF012C02BF013C02CF0000E2D6E000EB0
:101390002E6E800E2F6EBF0E306E7BEC0AF029C0D1
:1013A0003CF02AC03DF02BC03EF02CC03FF05BEF7C
:1013B0000AF0AC88B8863950D96EDA6ADECF02F00E
:1013C000DECF03F0DECF04F0DECF05F0000E5BECE5
:1013D00010F002C014F003C015F004C016F005C0F0
:1013E00017F0000E106E240E116EF40E126E4A0EDF
:1013F000136EDBEC0CF010C040F011C041F012C0D5
:1014000042F013C043F0000E146E000E156E800EF5
:10141000166E400E176E40C010F041C011F042C071
:1014200012F043C013F0DBEC0CF010C029F011C037
:101430002AF012C02BF013C02CF0000E2D6E000EFF
:101440002E6E800E2F6EBF0E306E7BEC0AF029C020
:101450003CF02AC03DF02BC03EF02CC03FF05BEFCB
:101460000AF03950D96EDA6A040ED926DF503A6E86
:101470003B6A3B50000AD8B440EF0AF05BEF0AF039
:101480003A50000AD8B41DEF08F0010AD8B476EF3C
:1014900008F0030AD8B4CFEF08F0010AD8B428EF57
:1014A00009F0070AD8B481EF09F0010AD8B4D9EFDE
:1014B00009F05BEF0AF03CC002F03DC003F03EC013
:1014C00004F03FC005F046EC12F00250AF6E3CC095
:1014D00002F03DC003F03EC004F03FC005F046EC12
:1014E00012F003C002F004C003F005C004F0056A66
:1014F0000250B06E12002C50800B356E2C502C24F4
:10150000376E2BAE86EF0AF088EF0AF089EF0AF00B
:1015100037803750D8B48FEF0AF091EF0AF0A6EF7A
:101520000AF03728D8A497EF0AF099EF0AF0A1EF54
:101530000AF0000E296E000E2A6E000E2B6E000EB1
:101540002C6E2B8E000E2C6EAEEF0AF0000E296E64
:10155000000E2A6E000E2B6E000E2C6E3050800B8B
:10156000366E35503618D8B4B8EF0AF0BAEF0AF034
:10157000BBEF0AF0358C30503024366E2FAEC3EFFF
:101580000AF0C5EF0AF0C6EF0AF036803650D8B43C
:10159000CCEF0AF0CEEF0AF0E3EF0AF03628D8A439
:1015A000D4EF0AF0D6EF0AF0DEEF0AF0000E2D6E4F
:1015B000000E2E6E000E2F6E000E306E2F8E000E5F
:1015C000306EEBEF0AF0000E2D6E000E2E6E000E48
:1015D0002F6E000E306E3750365CD8B0F2EF0AF046
:1015E000F4EF0AF01BEF0BF035ACF9EF0AF0FBEF6C
:1015F0000AF0FDEF0AF0800E351A37C038F036C019
:1016000037F038C036F029C038F02DC029F038C086
:101610002DF02AC038F02EC02AF038C02EF02BC092
:1016200038F02FC02BF038C02FF02CC038F030C06D
:101630002CF038C030F0000E386E375036C031F024
:10164000326A315E000E325A32BE30EF0BF0325049
:1016500009E11A0E315CD8A030EF0BF032EF0BF03D
:1016600069EF0BF029502A102B102C10D8A43BEF57
:101670000BF03EEF0BF0010E3FEF0BF0000E386E5B
:10168000000E296E000E2A6E000E2B6E000E2C6EC0
:1016900036C037F072EF0BF038A051EF0BF053EF7C
:1016A0000BF059EF0BF0D89038300109386E5BEF32
:1016B0000BF0D890383229A060EF0BF062EF0BF0FE
:1016C00063EF0BF0388E2C342C322B322A32293235
:1016D000372A3650375CD8A070EF0BF072EF0BF062
:1016E0004CEF0BF035BC77EF0BF079EF0BF0B9EF67
:1016F0000BF03750D8A47FEF0BF081EF0BF08BEF9E
:101700000BF0000E296E000E2A6E000E2B6E000EDE
:101710002C6EDAEF0CF02D5029262E502A222F5055
:101720002B2230502C222CA098EF0BF09AEF0BF0CC
:1017300046EF0CF038A09FEF0BF0A1EF0BF0A7EFF6
:101740000BF0D89038300109386EA9EF0BF0D89023
:10175000383229A0AEEF0BF0B0EF0BF0B1EF0BF089
:10176000388E2C342C322B322A322932372A46EF4B
:101770000CF02D50295C2E502A582F502B582C50ED
:10178000800A316E3050800A3158D8B0CAEF0BF061
:10179000CCEF0BF0F7EF0BF029502D5C316E2A5097
:1017A0002E58326E2B502F58336E2C503058346ECA
:1017B000FF0E3124296EFF0E32202A6EFF0E3320D9
:1017C0002B6EFF0E34202C6E800E351A386C38507C
:1017D000D8A4EDEF0BF0EFEF0BF0FFEF0BF0010EE5
:1017E0002926000E2A222B222C22FFEF0BF02D504F
:1017F000295E2E502A5A2F502B5A30502C5A2950DD
:101800002A102B102C10D8A408EF0CF00AEF0CF0C3
:101810003FEF0CF03850D8A410EF0CF012EF0CF0A2
:101820003FEF0CF0000E296E000E2A6E000E2B6E9C
:10183000000E2C6EDAEF0CF0D89029362A362B36B3
:101840002C3638AE26EF0CF028EF0CF029EF0CF018
:10185000298038A02EEF0CF030EF0CF034EF0CF0B4
:10186000D880383636EF0CF0D89038363750D8B4A8
:101870003CEF0CF03EEF0CF03FEF0CF037062BAED8
:1018800044EF0CF046EF0CF01CEF0CF0000E366E3F
:1018900038AE4DEF0CF04FEF0CF067EF0CF038C0A6
:1018A00031F07F0E3116D8B458EF0CF05AEF0CF02F
:1018B0005EEF0CF0010E366E67EF0CF029A063EFBF
:1018C0000CF065EF0CF067EF0CF05AEF0CF03650AF
:1018D000D8B46DEF0CF06FEF0CF09AEF0CF0010E36
:1018E0002926000E2A222B222C222CA07AEF0CF083
:1018F0007CEF0CF09AEF0CF029C031F02AC032F0E6
:101900002BC033F02CC034F0343434323332323222
:10191000313231C029F032C02AF033C02BF034C04C
:101920002CF03728D8B497EF0CF099EF0CF09AEF21
:101930000CF0372A3728D8B4A0EF0CF0A2EF0CF047
:10194000AAEF0CF03750D8A4A8EF0CF0AAEF0CF0D7
:10195000BCEF0CF0000E296E000E2A6E000E2B6EEE
:10196000000E2C6E3750D8A4B8EF0CF0BAEF0CF084
:10197000BCEF0CF0000E356E37A0C1EF0CF0C3EFDA
:101980000CF0C6EF0CF02B8EC7EF0CF02B9ED8900E
:1019900037302C6E35AECFEF0CF0D1EF0CF0D2EF2C
:1019A0000CF02C8E29C029F02AC02AF02BC02BF075
:1019B0002CC02CF012001350800B206E13501324F7
:1019C000276E12AEE6EF0CF0E8EF0CF0E9EF0CF04A
:1019D00027802750D8B4EFEF0CF0F1EF0CF006EFB2
:1019E0000DF02728D8A4F7EF0CF0F9EF0CF001EF79
:1019F0000DF0000E106E000E116E000E126E000E35
:101A0000136E128E000E136E0EEF0DF0000E106EA0
:101A1000000E116E000E126E000E136E1750800B2A
:101A2000201A17501724286E16AE19EF0DF01BEF71
:101A30000DF01CEF0DF028802850D8B422EF0DF0E7
:101A400024EF0DF039EF0DF02828D8A42AEF0DF07F
:101A50002CEF0DF034EF0DF0000E146E000E156E2D
:101A6000000E166E000E176E168E000E176E41EFEA
:101A70000DF0000E146E000E156E000E166E000EA8
:101A8000176E1450151016101710D8A44AEF0DF049
:101A90004CEF0DF064EF0DF0000E106E000E116EA5
:101AA000000E126E000E136E800E12127F0E1312B5
:101AB0002050131210C010F011C011F012C012F01B
:101AC00013C013F0A7EF0EF02750D8A46AEF0DF063
:101AD0006CEF0DF076EF0DF0000E106E000E116E33
:101AE000000E126E000E136EA7EF0EF0285027C0E6
:101AF00018F0196A185E000E195A7F0E1824216E0C
:101B0000000E1920226E10C01CF011C01DF012C072
:101B10001EF013C01FF0000E106E000E116E000EAE
:101B2000126E000E136E000E236E000E246E000E59
:101B3000256E000E266E000E286ED7EF0DF0285091
:101B4000D8B4A5EF0DF0A7EF0DF0BEEF0DF0D890D3
:101B50001C361D361E361F36D890103611361236FA
:101B6000133626AEB6EF0DF0B8EF0DF0B9EF0DF06D
:101B70001080D890233624362536263614501C5C27
:101B800015501D5816501E5817501F58D8A0CBEF8F
:101B90000DF0CDEF0DF0D6EF0DF0268C14501C5E3D
:101BA00015501D5A16501E5A17501F5A282A190E22
:101BB0002864DDEF0DF0DFEF0DF09FEF0DF01C500E
:101BC0001D101E101F10D8B4E8EF0DF0EAEF0DF055
:101BD00002EF0EF0238002EF0EF0D890103611368F
:101BE0001236133626AEF7EF0DF0F9EF0DF0FAEFDF
:101BF0000DF01080D890233624362536263621065F
:101C0000D8A0220612AE07EF0EF009EF0EF0EDEFAE
:101C10000DF0000E286E26AE10EF0EF012EF0EF053
:101C200036EF0EF0FF0E2314186EFF0E2414196EFB
:101C3000FF0E25141A6E7F0E26141B6E18501910F5
:101C40001A101B10D8B427EF0EF029EF0EF02DEF6D
:101C50000EF0010E286E36EF0EF010A032EF0EF0EF
:101C600034EF0EF036EF0EF029EF0EF02850D8B416
:101C70003CEF0EF03EEF0EF062EF0EF0010E10267C
:101C8000000E11221222132213A049EF0EF04BEF87
:101C90000EF062EF0EF010C018F011C019F012C073
:101CA0001AF013C01BF01B341B321A3219321832CF
:101CB00018C010F019C011F01AC012F01BC013F0B8
:101CC000214A222A22BE6DEF0EF0225008E121287F
:101CD000D8A06DEF0EF06FEF0EF07AEF0EF0000E61
:101CE000226E2168000E106E000E116E000E126E34
:101CF000000E136E22BE87EF0EF0225006E1210483
:101D0000D8B085EF0EF087EF0EF095EF0EF0000ED5
:101D1000226E000E216E000E106E000E116E000E6F
:101D2000126E000E136E000E206E21C027F027A049
:101D30009CEF0EF09EEF0EF0A1EF0EF0128EA2EFD0
:101D40000EF0129ED8902730136E58EF0DF012004F
:101D50000600F2A8AEEF0EF0B0EF0EF0B9EF0EF005
:101D6000F2A2B5EF0EF0B7EF0EF0B9EF0EF058ECAF
:101D700017F0F0A6BEEF0EF0C0EF0EF0C9EF0EF0B8
:101D8000F0A0C5EF0EF0C7EF0EF0C9EF0EF056EC65
:101D900017F0F0A8CEEF0EF0D0EF0EF0D9EF0EF066
:101DA000F0A2D5EF0EF0D7EF0EF0D9EF0EF054EC15
:101DB00017F0F2A6DEEF0EF0E0EF0EF0FBEF0EF004
:101DC000F2A0E5EF0EF0E7EF0EF0FBEF0EF081A8CA
:101DD000ECEF0EF0EEEF0EF0FBEF0EF07C04D8A46B
:101DE000F4EF0EF0F6EF0EF0FBEF0EF0000E7C6E4F
:101DF000000E16EC17F0F2A600EF0FF002EF0FF056
:101E00001DEF0FF0F2A007EF0FF009EF0FF01DEF3D
:101E10000FF081B80EEF0FF010EF0FF01DEF0FF085
:101E20007C50D8A416EF0FF018EF0FF01DEF0FF055
:101E3000010E7C6E010E16EC17F0F2A622EF0FF0E9
:101E400024EF0FF03FEF0FF0F2A029EF0FF02BEF90
:101E50000FF03FEF0FF081AA30EF0FF032EF0FF0ED
:101E60003FEF0FF07B04D8A438EF0FF03AEF0FF0FC
:101E70003FEF0FF0000E7B6E000E09EC17F0F2A69C
:101E800044EF0FF046EF0FF061EF0FF0F2A04BEFD1
:101E90000FF04DEF0FF061EF0FF081BA52EF0FF03E
:101EA00054EF0FF061EF0FF07B50D8A45AEF0FF012
:101EB0005CEF0FF061EF0FF0010E7B6E010E09EC8D
:101EC00017F0F2A666EF0FF068EF0FF083EF0FF058
:101ED000F2A06DEF0FF06FEF0FF083EF0FF081AC1A
:101EE00074EF0FF076EF0FF083EF0FF07A04D8A4C1
:101EF0007CEF0FF07EEF0FF083EF0FF0000E7A6EA5
:101F0000000EFCEC16F0F2A688EF0FF08AEF0FF04F
:101F1000A5EF0FF0F2A08FEF0FF091EF0FF0A5EF0C
:101F20000FF081BC96EF0FF098EF0FF0A5EF0FF0D8
:101F30007A50D8A49EEF0FF0A0EF0FF0A5EF0FF0AE
:101F4000010E7A6E010EFCEC16F0F2A6AAEF0FF06D
:101F5000ACEF0FF0C7EF0FF0F2A0B1EF0FF0B3EF5F
:101F60000FF0C7EF0FF081AEB8EF0FF0BAEF0FF040
:101F7000C7EF0FF07904D8A4C0EF0FF0C2EF0FF055
:101F8000C7EF0FF0000E796E000EEFEC16F0F2A620
:101F9000CCEF0FF0CEEF0FF0E9EF0FF0F2A0D3EFA0
:101FA0000FF0D5EF0FF0E9EF0FF081BEDAEF0FF091
:101FB000DCEF0FF0E9EF0FF07950D8A4E2EF0FF06B
:101FC000E4EF0FF0E9EF0FF0010E796E010EEFEC88
:101FD00016F09DACEEEF0FF0F0EF0FF0F9EF0FF011
:101FE0009EACF5EF0FF0F7EF0FF0F9EF0FF05EECAE
:101FF00017F0F2AAFEEF0FF000EF10F009EF10F06B
:10200000F2A405EF10F007EF10F009EF10F044EC28
:1020100017F09DA00EEF10F010EF10F019EF10F078
:102020009EA015EF10F017EF10F019EF10F03EEC36
:1020300017F09DA21EEF10F020EF10F029EF10F026
:102040009EA225EF10F027EF10F029EF10F04AECD8
:1020500017F0A0A22EEF10F030EF10F039EF10F0D3
:10206000A1A235EF10F037EF10F039EF10F038EC97
:1020700017F09DA43EEF10F040EF10F049EF10F084
:102080009EA445EF10F047EF10F049EF10F05CEC24
:1020900017F0A0A04EEF10F050EF10F059EF10F035
:1020A000A1A055EF10F057EF10F059EF10F05AECD7
:1020B00017F07E9211000A6E0A50D8B462EF10F049
:1020C00064EF10F086EF10F005BE6BEF10F069EFD3
:1020D00010F086EF10F002C006F003C007F004C055
:1020E00008F005C009F0061E071E081E091E062A74
:1020F000000E07220822092206C00CF007C00DF0CE
:1021000008C00EF009C00FF08EEF10F002C00CF006
:1021100003C00DF004C00EF005C00FF00250031014
:1021200004100510D8A497EF10F099EF10F0A3EF6A
:1021300010F0000E026E000E036E000E046E000E14
:10214000056E34EF11F0960E0B6EADEF10F00B2A0A
:10215000D8900F320E320D320C32000E0C14066E77
:10216000000E0D14076E000E0E14086EFE0E0F14F6
:10217000096E0650071008100910D8A4C2EF10F01D
:10218000C4EF10F0A7EF10F0D2EF10F00B2A010E01
:102190000C26000E0D220E220F22D8900F320E3286
:1021A0000D320C32000E0C14066E000E0D14076E6C
:1021B000000E0E14086EFF0E0F14096E0650071065
:1021C00008100910D8A4E7EF10F0E9EF10F0C6EFFF
:1021D00010F0F1EF10F00B06D8900C360D360E36DD
:1021E0000F360EBEF6EF10F0F8EF10F000EF11F022
:1021F000020E0B60FEEF10F000EF11F0EBEF10F0AD
:102200000BB005EF11F007EF11F008EF11F00E9E83
:10221000D8900B320BC006F0076A086A096A06C03C
:1022200009F0086A076A066A06500C1207500D1278
:1022300008500E1209500F120A50D8B422EF11F0B4
:1022400024EF11F02CEF11F005BE2BEF11F029EF68
:1022500011F02CEF11F00F8E0CC002F00DC003F046
:102260000EC004F00FC005F01200010E086E0250FF
:10227000D8B43DEF11F03FEF11F04FEF11F00250E5
:10228000D96EDA6ADF30E832E832070B036E070EE8
:1022900003644DEF11F04FEF11F0A6EF11F0000EB7
:1022A000086EBCEF11F00250D96EDA6ADF30E83206
:1022B000E832070B036E010E046E032A62EF11F081
:1022C000D8900436032E60EF11F00450FF0A056E1B
:1022D0000250D96EDA6ADF50070B020DF350940FEB
:1022E000D96EDA6ADECF06F0DDCF07F006C0D9FF7F
:1022F00007C0DAFF0550DF16BCEF11F00250D96EAF
:10230000DA6ADF30E832E832070B036E010E046E42
:10231000032A8DEF11F0D8900436032E8BEF11F0C5
:102320000250D96EDA6ADF50070B020DF350940F9A
:10233000D96EDA6ADECF05F0DDCF06F005C0D9FF31
:1023400006C0DAFF0450DF12BCEF11F00250D96E64
:10235000DA6ADFBCAEEF11F0B1EF11F0010EB2EFAF
:1023600011F0000E000AD8B453EF11F0010AD8B4EE
:102370007EEF11F04FEF11F008501200010E096EC0
:102380000250D8B4C6EF11F0C8EF11F0D8EF11F039
:102390000250D96EDA6ADF30E832E832070B046E99
:1023A000070E0464D6EF11F0D8EF11F02FEF12F002
:1023B000000E096E44EF12F00250D96EDA6ADF3077
:1023C000E832E832070B046E010E056E042AEBEFCB
:1023D00011F0D8900536042EE9EF11F00550FF0AF0
:1023E000066E0250D96EDA6ADF50070B020DF35009
:1023F0008A0FD96EDA6ADECF07F0DDCF08F007C0AA
:10240000D9FF08C0DAFF0650DF1644EF12F0025081
:10241000D96EDA6ADF30E832E832070B046E010E5B
:10242000056E042A16EF12F0D8900536042E14EF2C
:1024300012F00250D96EDA6ADF50070B020DF3502A
:102440008A0FD96EDA6ADECF06F0DDCF07F006C05C
:10245000D9FF07C0DAFF0550DF1244EF12F0035036
:10246000046E056A0550000AD8B439EF12F0D8EFAF
:1024700011F00450000AD8B4DCEF11F0010AD8B40E
:1024800007EF12F0D8EF11F00950120004340534B0
:102490000B6E0B50D8A44FEF12F051EF12F05BEF20
:1024A00012F0000E026E000E036E000E046E000E9F
:1024B000056EC8EF12F002C006F003C007F004C0BA
:1024C00008F005C009F0200E6BEF12F0D890093229
:1024D000083207320632E82E66EF12F006500A6E16
:1024E000048EFF0E0216FF0E0316FF0E0416000EDA
:1024F0000516960E0B5E0BBE82EF12F080EF12F007
:1025000098EF12F00B50800A970FD8B08AEF12F0B4
:102510008CEF12F08EEF12F051EF12F0D8900532DE
:102520000432033202320B3E8EEF12F0B0EF12F0A3
:102530001F0E0B649EEF12F0A0EF12F0A8EF12F046
:1025400051EF12F0D89002360336043605360B06EA
:102550000B50D8A4AEEF12F0B0EF12F0A2EF12F0D1
:102560000A50D8B4B6EF12F0B8EF12F0C0EF12F084
:10257000051E041E031E026C000E03220422052207
:1025800002C002F003C003F004C004F005C005F06F
:102590001200000E146E1250D8A4D1EF12F0D3EF37
:1025A00012F0D7EF12F0000E156E3AEF13F012C0D2
:1025B0000AF0C8EC15F0156E12280A6EC8EC15F07A
:1025C000156E000E146E12501424020F0A6EC8EC21
:1025D00015F0142A070E1464F0EF12F0F2EF12F067
:1025E000E3EF12F0340E136EF20EE82EFED7132E28
:1025F000FCD712C00CF0380E0D6E87EC14F00D0EE7
:10260000136EFC0EE82EFED7132EFCD712C00CF072
:10261000380E0D6E87EC14F0640EE82EFED712C053
:102620000CF0380E0D6E87EC14F012C00CF0010E99
:102630000D6E87EC14F012C00CF0020E0D6E87ECDC
:1026400014F012C00CF0060E0D6E87EC14F012C0E0
:102650000CF00C0E0D6E87EC14F012C00CF0380E5E
:102660000D6E87EC14F012C00CF0800E0D6E87EC2E
:1026700014F0156E15501200000E126E1050D8A4F2
:1026800044EF13F046EF13F04AEF13F0000E136E11
:10269000ADEF13F010C00AF0C8EC15F0136E10285F
:1026A0000A6EC8EC15F0136E000E126E1050122454
:1026B000020F0A6EC8EC15F0122A030E126463EFC3
:1026C00013F065EF13F056EF13F0340E116EF20EA7
:1026D000E82EFED7112EFCD710C00DF0380E0E6E6E
:1026E000F7EC15F00D0E116EFC0EE82EFED7112E34
:1026F000FCD710C00DF0380E0E6EF7EC15F0640E1E
:10270000E82EFED710C00DF0380E0E6EF7EC15F067
:1027100010C00DF0010E0E6EF7EC15F010C00DF0AC
:10272000020E0E6EF7EC15F010C00DF0060E0E6ED8
:10273000F7EC15F010C00DF00C0E0E6EF7EC15F066
:1027400010C00DF0280E0E6EF7EC15F010C00DF055
:10275000800E0E6EF7EC15F0136E135012004EEC57
:1027600017F04DEC16F07D0E0D6EC2EC14F0780EE5
:10277000026E94EC16F00001C76FC705D8A4C3EF32
:1027800013F0C5EF13F0B7EF13F0610E7818D8A46B
:10279000CCEF13F0CEEF13F0DCEF13F07D0E0A6EEA
:1027A000F9EC14F01A0E036E000E056E070E046E9F
:1027B00063EC15F0B7EF13F0620E7818D8A4E3EFCE
:1027C00013F0E5EF13F0F3EF13F07D0E0A6E2EEC2D
:1027D00015F0110E036E000E056E080E046E63EC0C
:1027E00015F0B7EF13F0B7EF13F007EF00F002505A
:1027F000D96EDA6A050ED926DFAA01EF14F003EFCD
:1028000014F03EEF14F0AC8A0250D96EDA6A050E6D
:10281000D926DFAC0EEF14F010EF14F013EF14F024
:102820009D8820EF14F00250D96EDA6A050ED92681
:10283000DFBC1DEF14F01FEF14F020EF14F09D9893
:102840000250D96EDA6A050ED926DFAE2AEF14F0EF
:102850002CEF14F02FEF14F0AC8C3EEF14F002507C
:10286000D96EDA6A050ED926DFBE39EF14F03BEFD8
:1028700014F03EEF14F0AC9C3EEF14F01200025046
:10288000D96EDA6A060ED926DFAA49EF14F04BEFAB
:1028900014F086EF14F0AB880250D96EDA6A060E97
:1028A000D926DFAC56EF14F058EF14F05BEF14F0BC
:1028B0009D8A68EF14F00250D96EDA6A060ED926A6
:1028C000DFBC65EF14F067EF14F068EF14F09D9A29
:1028D0000250D96EDA6A060ED926DFAE72EF14F016
:1028E00074EF14F077EF14F0AB8C86EF14F0025015
:1028F000D96EDA6A060ED926DFBE81EF14F083EFB7
:1029000014F086EF14F0AB9C86EF14F01200000E6A
:10291000116E0C50D8A48FEF14F091EF14F095EFD6
:1029200014F0000E106EC0EF14F00CC002F0000E98
:10293000036EBEEC11F0000E116E0C501124020F4C
:10294000026E11C00EF00DC00FF00E2AAAEF14F0A7
:10295000D8900F320E2EA8EF14F00F50010B036E1B
:10296000BEEC11F0112A070E1164B9EF14F0BBEFA1
:1029700014F09DEF14F00CC00AF0C9EC16F0106EC4
:10298000105012000D50D8A4C8EF14F0CAEF14F084
:10299000CEEF14F0000E0F6EF7EF14F077C010F0CA
:1029A0000D50D96EDA6ADF500F0B0E6E10500E18F4
:1029B000F80B0E18106E0D50D96EDA6ADF38070B5F
:1029C0000E6E0E460E460E4610500E18C70B0E1811
:1029D000106E109C0D50D96EDA6ADFAE02D0108EE8
:1029E00001D0109E100E0A6EC8EC15F00F6E0F503D
:1029F00012000A50D8A4FFEF14F001EF15F003EF16
:102A000015F02DEF15F076C00CF00A50D96EDA6A89
:102A1000DF500F0B0B6E0C500B18F80B0B180C6ED5
:102A20000A50D96EDA6ADF38070B0B6E0B460B467D
:102A30000B460C500B18C70B0B180C6E0C9C0A5055
:102A4000D96EDA6ADFAE02D00C8E01D00C9E0C0E6D
:102A5000026E010E036EBEEC11F012000A50D8A4F3
:102A600034EF15F036EF15F038EF15F062EF15F092
:102A700075C00CF00A50D96EDA6ADF500F0B0B6E7E
:102A80000C500B18F80B0B180C6E0A50D96EDA6A42
:102A9000DF38070B0B6E0B460B460B460C500B1822
:102AA000C70B0B180C6E0C9C0A50D96EDA6ADFAE9D
:102AB00002D00C8E01D00C9E0C0E026E000E036E26
:102AC000BEEC11F01200010E076E0350D8A46BEF9C
:102AD00015F06DEF15F071EF15F0000E076E95EF24
:102AE00015F0000E096E000E086E000E096E000E45
:102AF000086E8AEF15F003500824066E06C0F6FF34
:102B0000100EF76EF86A0800F55023EC17F0076E08
:102B1000084A092A0450085C05500958D8A093EFC8
:102B200015F095EF15F07BEF15F007501200640ECD
:102B3000F66E2D0EF76E000EF86E00EE80F010EEC1
:102B40002EF00900F5CFEEFFE550E150FAE1A20EBC
:102B5000F66E2E0EF76E000EF86E00EE79F010EEA7
:102B600005F00900F5CFEEFFE550E150FAE100EE87
:102B7000AEF0180EEE6AE806FDE100EE56F0230E08
:102B8000EE6AE806FDE17E907E920001AFEF13F061
:102B90000A50D8B4CEEF15F0D0EF15F0E0EF15F0F5
:102BA0000A50D96EDA6ADF30E832E832070B0B6E72
:102BB000070E0B64DEEF15F0E0EF15F0E4EF15F013
:102BC000000E0C6EF5EF15F00AC002F035EC11F0B6
:102BD0000C6E0AC002F00A50D96EDA6A000EDFBE2F
:102BE000010E036EBEEC11F00C6E0C5012000D5075
:102BF000D8A4FDEF15F0FFEF15F003EF16F0000E6F
:102C00000F6E23EF16F00DC002F0000E036EBEEC47
:102C100011F00F6E0DC00AF00E380F0B0B6E25EC85
:102C200016F00F6E0DC00AF0DCEC16F00F6E0DC042
:102C30000AF00EC00BF025EC16F00F6E0DC00AF076
:102C4000DCEC16F00F6E0F5012000A50020F026EED
:102C50000B50010B036EBEEC11F00A50030F026E15
:102C6000D8900B30010B036EBEEC11F00A50040F2C
:102C7000026E0B40E8423F0B010B036EBEEC11F0FD
:102C80000A50050F026E0B38E8461F0B010B036E4E
:102C9000BEEC11F00C6E0C501200800E466E250E2C
:102CA000476E000E486E000E496E000E4A6E4B8A4B
:102CB0004B9C4B9E4C8A4C9C4C9E000E4E6E000EC4
:102CC0004F6E000E506E000E516E000E526E000ED2
:102CD000536E000E546E000E556E460E446E74EC2C
:102CE00016F00001C66F1200010E456E4450D8A4C4
:102CF0007CEF16F07EEF16F082EF16F0000E456EB8
:102D000092EF16F0AB9E948C948E44C039F013EC85
:102D100008F044C002F0F7EC13F044C002F03FECBE
:102D200014F0AB8E455012000250D8A49AEF16F062
:102D30009CEF16F09EEF16F0B1EF16F09EAAA3EFEF
:102D400016F0A5EF16F0AEEF16F00250D96EDA6A63
:102D5000AECFDFFF010E036EB0EF16F0000E036E74
:102D600003501200800F810F820F830F840F890F91
:102D70008A0F8B0F8C0F8D0F920F930F940F950F5F
:102D8000960F323A030B131B232B333B020A121A02
:102D9000222A0A28026E010E036EBEEC11F0030E09
:102DA000E82EFED700000A28026E000E036EBEEC6D
:102DB00011F00B6E0B5012000A28026E010E036E0A
:102DC000BEEC11F0030EE82EFED700000A28026EBA
:102DD000000E036EBEEC11F00B6E0B501200016E74
:102DE000F2900150D8A4F7EF16F0F9EF16F0FBEFD0
:102DF00016F0FBEF16F01200016EF2900150D8A40D
:102E000004EF17F006EF17F008EF17F008EF17F0D0
:102E10001200016EF2900150D8A411EF17F013EFD9
:102E200017F015EF17F015EF17F01200016EF29082
:102E30000150D8A41EEF17F020EF17F022EF17F083
:102E400022EF17F01200026EACA229EF17F02BEF61
:102E500017F024EF17F002C0ADFF010E1200A80E0C
:102E6000106E3CEC13F09E0E126EC9EC12F01200C4
:102E7000A1925750B36E56C0B2FF12009E905950A7
:102E8000CF6E58C0CEFF1200F2945B50D76E5AC07E
:102E9000D6FF12009E9270C0CCFF12002FEC17F0EC
:072EA0001200010101010312
:102EA800F0921200F0901200F2921200A19012001B
:082EB8009E9412009E9C120082
:020000040030CA
:0E000000FF02091EFF8181FF0FC00FE00F40BD
:00000001FF
