:040000003CEF00F0E1
:100008001982FACF15F0FBCF16F0A0A60EEF00F07C
:1000180010EF00F026EF00F0A1A615EF00F017EFA3
:1000280000F026EF00F002D824EF00F00500FA6E89
:100038000B50FD6E0C50FE6EF850FF6EFA50120019
:1000480036EF00F09DA62BEF00F02DEF00F036EF15
:1000580000F09EA632EF00F034EF00F036EF00F02B
:1000680017EF00F016C0FBFF15C0FAFF1992110038
:0400780039EF09F063
:101000000000C5EC09F064EC09F00009D8B40BEF5E
:1010100008F00DEF08F01FEF08F05AEC09F0000996
:10102000D8B415EF08F017EF08F01BEF08F0010E29
:101030000D6E5FEF08F0020E0D6E5FEF08F05AECD8
:1010400009F00009D8B427EF08F029EF08F02DEFD8
:1010500008F0030E0D6E5FEF08F0040E0D6E5FEFEB
:1010600008F013EC09F046EC09F00009D8B43BEFA6
:1010700008F03DEF08F07CEF08F0E5EC08F07CEFBD
:1010800008F013EC09F07CEF08F046EC09F00009D9
:10109000D8B44DEF08F04FEF08F07CEF08F03DEFCB
:1010A00008F050EC09F00009D8B459EF08F05BEFF4
:1010B00008F07CEF08F0FCEC08F07CEF08F00D5035
:1010C000136E146A1450000AD8B469EF08F07CEF6C
:1010D00008F01350010AD8B431EF08F0030AD8B46D
:1010E00041EF08F0010AD8B445EF08F0070AD8B478
:1010F00051EF08F07CEF08F0C3EC09F012002AEC85
:1011000009F0700EAAEC09F07F0EA6EC09F0020EB1
:10111000176E100E186E93EC09F0000E176E000E8D
:10112000186E98EC09F05C0E176E130E186E84ECB6
:1011300009F06C0E176E130E186E8EEC09F0740E1B
:10114000176E130E186E9DEC09F0000E176E000E50
:10115000186E89EC09F0C1EC09F012006EEC09F090
:10116000F28EF28CF28C7FEC08F07C0E176E130E70
:10117000186E8EEC09F0230E1164C1EF08F0C3EF76
:1011800008F0C7EF08F08B828B90BBEF08F08B90D4
:101190008B92BBEF08F03CEF00F0000E8D6E000E5E
:1011A0008C6E000E896E000E8A6E000E8B6E070E1E
:1011B000966E92689368FC0E946E95687E681F0E1A
:1011C0007F6E000E7C6EF18E120007500810D8B4AE
:1011D000ECEF08F0EEEF08F0FBEF08F002D8FBEFC1
:1011E00008F00500FA6E0750FD6E0850FE6EF850CC
:1011F000FF6EFA501200120009500A10D8B403EF23
:1012000009F005EF09F012EF09F002D812EF09F02A
:101210000500FA6E0950FD6E0A50FE6EF850FF6E22
:10122000FA501200120005500610D8B41AEF09F057
:101230001CEF09F029EF09F002D829EF09F00500A9
:10124000FA6E0550FD6E0650FE6EF850FF6EFA50B5
:1012500012001200C6BA2FEF09F031EF09F038EF93
:1012600009F0800EC76E060EC612000EC56EC68A45
:10127000120000EE01F0110EEE6AE806FDE1199091
:101280001992000EF86E0001AEEF08F0C7A04BEF08
:1012900009F04EEF09F0010E4FEF09F0000E1200B9
:1012A000C7B055EF09F058EF09F0010E59EF09F0FA
:1012B000000E1200C7B45FEF09F062EF09F0010EF3
:1012C00063EF09F0000E1200C7AA69EF09F06CEF96
:1012D00009F0010E6DEF09F0000E1200A2EC09F00A
:1012E00077EC09F0CDEC08F07FEC09F01200800EED
:1012F000C76E060EC612000EC56EC69A1200300EDC
:10130000D36E000E9B6E120017C007F018C008F0D5
:10131000120017C001F018C002F0120017C009F047
:1013200018C00AF0120017C00BF018C00CF0120021
:1013300017C003F018C004F0120017C005F018C061
:1013400006F01200D08EA2869F861200176E17C07C
:1013500077FF1200176E17C0C8FF12001050B2ECD2
:1013600009F01200126E12C0C9FF1200C7EC09F09A
:101370000F6E1200C7EC09F00E6E1200C9CF11F00B
:1013800012009D861200C68812009E961200C95057
:02139000120049
:020000040030CA
:0E000000FF021F1EFF8B85FF0FC00FE00F4099
:00000001FF
