:040000005BEF00F0C2
:100008004682FACF36F0FBCF37F0D9CF38F0DACFC7
:1000180039F0F3CF3AF0F4CF3BF0F6CF3CF0F7CF1E
:100028003DF0F8CF3EF0F5CF3FF0A0A61EEF00F070
:1000380020EF00F035EF00F0A1A625EF00F027EF44
:1000480000F035EF00F002D833EF00F00500FA6E4B
:100058000D50FD6E0E50FE6EFF6AFA50120045EF0D
:1000680000F09DA63AEF00F03CEF00F045EF00F0FD
:100078009EA641EF00F043EF00F045EF00F027EFB8
:1000880000F03FC0F5FF3EC0F8FF3DC0F7FF3CC0A1
:10009800F6FF3BC0F4FF3AC0F3FF39C0DAFF38C0BF
:1000A800D9FF37C0FBFF36C0FAFF46921100D5EFE3
:0200B8000CF04A
:1010000000081BD21AE21A3A106812FC1A2E148633
:101010001B7E1B761B6E1B661B5E1B561BF01A5E2F
:101020001653797374656D20537461727465640D21
:101030000044617465203A2000005FEC0DF0000967
:10104000D8B425EF08F027EF08F062EF08F035EF8D
:1010500008F0C3EC0DF07EEF08F0BFEC0DF07EEF72
:1010600008F0B7EC0DF07EEF08F072C02EF073C000
:101070002FF002D846EF08F00500FA6E0001665125
:10108000FD6E6751FE6EFF6AFA501200316E326AD1
:101090003250000AD8B44FEF08F031EF08F0315069
:1010A000010AD8B431EF08F0030AD8B429EF08F0E8
:1010B000010AD8B42DEF08F0070AD8B431EF08F0D0
:1010C00031EF08F0000183917DC0D9FF7EC0DAFFC7
:1010D0007D4B7E2BDF50C7EC0DF000017F07D8A0C1
:1010E00080077F518011D8A478EF08F07AEF08F0DC
:1010F0007DEF08F0060E7EEF08F0030E12003FECC5
:101100000DF0F28EF28CF28C210E0001856F85516C
:10111000D8A4100E866F000E886F0F0E876F95ECA7
:101120000BF0080E0001906F030E916FA60E4AECB3
:101130000DF0850EE82EFED70000080E0001906F1E
:10114000040E916FA20E4AEC0DF0850EE82EFED72C
:101150000000080E0001906FA60E0FEC0DF0116E4E
:10116000080E0001906FA20E0FEC0DF0106EFBEC5C
:101170000AF020EE01F0050EEBCFDBFFE806FCE203
:10118000E0EC08F09E0EF7EC0CF00F6E000E000184
:101190008D6F0FC08EF0700E55EC0AF00B0E000133
:1011A000976F260E966F5D0EE82EFED7962FFCD712
:1011B000972FFAD700F000F0B7EF08F05BEF00F0E0
:1011C0000A380F0B300F136E0A500F0B300F146ECE
:1011D0002D0E156E0B380F0B300F166E0B500F0BBC
:1011E000300F176E2D0E186E0C380F0B300F196E56
:1011F0000C500F0B300F1A6E2F0E1B6E09380F0B91
:10120000300F1C6E09500F0B300F1D6E2D0E1E6E11
:1012100008380F0B300F1F6E08500F0B300F206E69
:101220002D0E216E07380F0B300F226E07500F0B5B
:10123000300F236E0D0E246E310E0001856F855127
:10124000D8A4100E866F000E886F080E876F95EC7D
:101250000BF0130E0001856F866B000E886F120E67
:10126000876F95EC0BF01200E2EC0DF07DC0D9FF1A
:101270007EC0DAFFDF6E00017D4B7E2B7F07D8A09A
:1012800080077F518011D8B448EF09F04AEF09F088
:101290004FEF09F0CEEC0DF0050E86EF09F08387D5
:1012A0005AEF09F0ABEC0DF086EF09F0AFEC0DF062
:1012B00086EF09F06CC02EF06DC02FF002D86AEFF7
:1012C00009F00500FA6E6051FD6E6151FE6EFF6A15
:1012D000FA501200316E326A3250000AD8B473EFFD
:1012E00009F056EF09F03150010AD8B456EF09F071
:1012F000030AD8B452EF09F0010AD8B452EF09F04A
:10130000070AD8B456EF09F056EF09F012000001B1
:10131000866F010E0001876F83B591EF09F093EF9F
:1013200009F0D6EF09F086C07CF083938385839122
:101330000E0E816F010E7B6FF40E7A6F8387D00ED5
:10134000606F1B0E616F000E6C6F000E6D6FD00E24
:10135000626F1B0E636F000E6E6F000E6F6FD00E0C
:10136000646F1B0E656F000E706F000E716FD00EF4
:10137000666F1B0E676F000E726F000E736FCC0EE0
:10138000686F1B0E696F000E746F000E756F960EFE
:10139000846F1B0E856F9EEC0DF0DCEC0DF0E6EC1F
:1013A0000CF0D4EC0DF0000E0001876F8751120095
:1013B00000018E6F000E00018F6F00018E5187ECCF
:1013C00009F00009D8B4E7EF09F0E9EF09F0DDEF23
:1013D00009F00A0E0001896F190E8A6F8F0E8B6F4C
:1013E0008C6B1BEC0DF08D0E0001846F856B000E75
:1013F000876F010E866FB1EC0CF0000E0001896F53
:10140000000E8A6F000E8B6F000E8C6F27EC0DF0B4
:10141000A7EC0DF042EC0CF0E806D8B412EF0AF09D
:1014200014EF0AF00AEF0AF000018F5112000001D8
:10143000838728EF0AF0BBEC0DF054EF0AF0E0ECE4
:101440000DF0030E54EF0AF0B7EC0DF054EF0AF074
:101450006CC02EF06DC02FF002D838EF0AF00500F6
:10146000FA6E6051FD6E6151FE6EFF6AFA50120015
:10147000316E326A3250000AD8B441EF0AF024EFDC
:101480000AF03150010AD8B424EF0AF0030AD8B4A4
:101490001BEF0AF0010AD8B41BEF0AF0070AD8B410
:1014A0001FEF0AF024EF0AF0120000018F6F000115
:1014B0008F5187EC09F00009D8B461EF0AF063EFAF
:1014C0000AF057EF0AF0B20E0001896F180E8A6F0A
:1014D0008E0E8B6F8C6B1BEC0DF08D0E0001846FEC
:1014E000856B000E876F010E866FB1EC0CF0000E5D
:1014F0000001896F000E8A6F000E8B6F000E8C6FDB
:1015000027EC0DF0A7EC0DF042EC0CF0E806D8B497
:101510008CEF0AF08EEF0AF084EF0AF01200DEEC96
:101520000DF0000183A197EF0AF099EF0AF0A6EF02
:101530000AF05FEC0DF00009D8B4A1EF0AF0A3EFB8
:101540000AF0A6EF0AF00F0E0001816F0001815131
:10155000020DF350010F336E33C0F6FF100EF76E1D
:10156000F86A0900F5CF34F00900F5CF35F002D85C
:10157000C3EF0AF00500FA6E3450FD6E3550FE6E72
:10158000FF6AFA5012000001816F12000001886F9B
:10159000000184518511D8B4D0EF0AF0D2EF0AF0DF
:1015A000E8EF0AF08851020DF350600FD96EDA6A45
:1015B00084C0DEFF85C0DDFF8851020DF3506C0F43
:1015C000D96EDA6A86C0DEFF87C0DDFFFAEF0AF067
:1015D0008851020DF350600FD96EDA6AD00EDE6EBC
:1015E0001B0EDD6E8851020DF3506C0FD96EDA6A56
:1015F000DE6ADD6A1200000E00018D6FD00ED8EC9D
:1016000009F0076E010E00018D6FD00ED8EC09F0C5
:10161000086E020E00018D6FD00ED8EC09F0096E35
:10162000040E00018D6FD00ED8EC09F00A6E050E85
:1016300000018D6FD00ED8EC09F00B6E060E000184
:101640008D6FD00ED8EC09F00C6E20EE07F000EE96
:1016500090F0050EDBCFEBFFE806FCE21200000184
:101660008391020E826F3DEF0BF0BBEC0DF061EF4A
:101670000BF0B7EC0DF061EF0BF070C02EF071C005
:101680002FF002D84DEF0BF00500FA6E6451FD6E9D
:101690006551FE6EFF6AFA501200316E326A3250A6
:1016A000000AD8B456EF0BF039EF0BF03150020AB4
:1016B000D8B435EF0BF0010AD8B435EF0BF039EFA1
:1016C0000BF01200296E25502610D8B46AEF0BF0EB
:1016D0006CEF0BF082EF0BF02950020DF350600F0E
:1016E000D96EDA6A25C0DEFF26C0DDFF2950020D63
:1016F000F3506C0FD96EDA6A27C0DEFF28C0DDFF19
:1017000094EF0BF02950020DF350600FD96EDA6A96
:10171000D00EDE6E1B0EDD6E2950020DF3506C0FE5
:10172000D96EDA6ADE6ADD6A1200000E00018A6F85
:10173000000E896F000E8A6F000E896FB8EF0BF0F4
:1017400085C0F6FF86C0F7FF000EF86E0F0EF76437
:1017500003D00800F55005D0F6CFE9FFF7CFEAFF38
:10176000EF5003EC0DF00001854B862B894B8A2B43
:101770008751895D88518A59D8A0C1EF0BF0C3EF1A
:101780000BF0A0EF0BF01200080EB86E900EAB6ECF
:10179000240EAC6EA00EAF6E010EB06E000E0001F6
:1017A000846F000E856F94EC0DF0000E0001846FC5
:1017B000000E856F8FEC0DF0000E0001846F000E9F
:1017C000856F99EC0DF0000E126E12000001846F0F
:1017D000010E0001856F83B3F0EF0BF0F2EF0BF019
:1017E00005EF0CF08383000E856F8451D8B4FBEFB6
:1017F0000BF0FDEF0BF001EF0CF0010E816F03EF2A
:101800000CF0020E816FD6EC0DF000018551120034
:1018100020EE02F02E50D9262F50DA22DF50306E03
:1018200030C025F0266A2EC0D9FF2FC0DAFFDECFE8
:1018300027F0DDCF28F0C3EC0CF0000E2A6E000E6E
:101840002B6E000E2C6E000E2D6E33EC0DF0020E82
:101850001200000E8D6E000E8C6E000E896E000E52
:101860008A6E000E8B6E070E966E92689368BF0E9E
:10187000946EFE0E956E7E681F0E7F6E000E7C6E5F
:10188000F18E1200010E0001846F83B34AEF0CF059
:101890004CEF0CF056EF0CF083957C69DCEC0DF00E
:1018A000D8EC0DF0DAEC0DF082C084F00001845128
:1018B00012002EC025F02FC026F0000E286E010E5B
:1018C000276EC3EC0CF0000E2A6E000E2B6E000E7D
:1018D0002C6E000E2D6E33EC0DF0040E12002EC097
:1018E00025F02FC026F0000E286E020E276EC3ECE6
:1018F0000CF0000E2A6E000E2B6E000E2C6E000EE9
:101900002D6E33EC0DF0020E12002EC025F02FC00C
:1019100026F0000E286E010E276EC3EC0CF0000EB0
:101920002A6E000E2B6E000E2C6E000E2D6E33EC08
:101930000DF0020E12002EC025F02FC026F0000E72
:10194000286E020E276EC3EC0CF0000E2A6E000EFD
:101950002B6E000E2C6E000E2D6E33EC0DF0040E6F
:101960001200000183A7B7EF0CF0B9EF0CF0C2EF43
:101970000CF084C07DF085C07EF086C07FF087C00B
:1019800080F083971200000183A7C9EF0CF0CBEF22
:101990000CF0D4EF0CF025C07DF026C07EF027C0FF
:1019A0007FF028C080F08397120000EE60F0240ED4
:1019B000EE6AE806FDE100EE01F0240EEE6AE806AC
:1019C000FDE14690469200017FEF08F0C6BAEBEFCA
:1019D0000CF0EDEF0CF0F6EF0CF0800EC76E080E79
:1019E000C66E000EC56E270EC86EC68A12000001B4
:1019F000906F000E00018D6F9051D8EC09F000013E
:101A0000916F915112000001846F9EA80AEF0DF0B2
:101A10000CEF0DF005EF0DF084C0ADFF12000001DA
:101A2000916F90C08DF000019151D8EC09F0000148
:101A3000926F9251120089C084F08AC085F08BC0E9
:101A400086F08CC087F0000EC6EC0AF0120089C048
:101A500084F08AC085F08BC086F08CC087F0020EBF
:101A6000C6EC0AF012002AC025F02BC026F02CC0CC
:101A700027F02DC028F0000E62EC0BF01200A3EC52
:101A80000DF055EC0DF029EC0CF08AEC0DF0C4ECE7
:101A90000BF012000001926F90C08DF091C08EF09B
:101AA0000001925155EC0AF01200800EC76E080E2C
:101AB000C66E000EC56E270EC86EC69A1200C5BC53
:101AC00064EF0DF067EF0DF0010E68EF0DF0000E02
:101AD0001200000183817C510109C7EC0DF0050E55
:101AE0001200000183817C51C7EC0DF0030E12003F
:101AF00000018393000E826F0E0E1200000183918D
:101B0000E4EC0DF0040E120000018393000E826FCE
:101B10000E0E1200300ED36E000E9B6E120084C0AB
:101B200042F085C043F0120084C044F085C045F007
:101B3000120084C040F085C041F0120084C00DF056
:101B400085C00EF01200D08EA2869F861200000E75
:101B5000E6EC0BF01200D1EC0DF0090E1200D1EC06
:101B60000DF00A0E1200CEEC0DF0050E1200EAEC9C
:101B70000DF0000E1200ECEC0DF0010E1200ECEC7A
:101B80000DF0020E1200ECEC0DF0010E1200256EAD
:101B900025C0C9FF12008FEC0AF01200C59AC58853
:101BA0001200C58AC58812009D861200C5801200E9
:101BB0009D961200C69A12009E9612009E961200E2
:101BC0009E861200C9501200C5861200050E120032
:0C1BD000010E1200C5841200C582120034
:020000040030CA
:0E000000FF021F1EFF8B85FF0FC00FE00F4099
:00000001FF
